{
  "_format": "hh-sol-artifact-1",
  "contractName": "NFTBattle",
  "sourceName": "contracts/NFTBattle.sol",
  "abi": [
    {
      "inputs": [],
      "stateMutability": "nonpayable",
      "type": "constructor"
    },
    {
      "inputs": [
        {
          "internalType": "address",
          "name": "sender",
          "type": "address"
        },
        {
          "internalType": "uint256",
          "name": "tokenId",
          "type": "uint256"
        },
        {
          "internalType": "address",
          "name": "owner",
          "type": "address"
        }
      ],
      "name": "ERC721IncorrectOwner",
      "type": "error"
    },
    {
      "inputs": [
        {
          "internalType": "address",
          "name": "operator",
          "type": "address"
        },
        {
          "internalType": "uint256",
          "name": "tokenId",
          "type": "uint256"
        }
      ],
      "name": "ERC721InsufficientApproval",
      "type": "error"
    },
    {
      "inputs": [
        {
          "internalType": "address",
          "name": "approver",
          "type": "address"
        }
      ],
      "name": "ERC721InvalidApprover",
      "type": "error"
    },
    {
      "inputs": [
        {
          "internalType": "address",
          "name": "operator",
          "type": "address"
        }
      ],
      "name": "ERC721InvalidOperator",
      "type": "error"
    },
    {
      "inputs": [
        {
          "internalType": "address",
          "name": "owner",
          "type": "address"
        }
      ],
      "name": "ERC721InvalidOwner",
      "type": "error"
    },
    {
      "inputs": [
        {
          "internalType": "address",
          "name": "receiver",
          "type": "address"
        }
      ],
      "name": "ERC721InvalidReceiver",
      "type": "error"
    },
    {
      "inputs": [
        {
          "internalType": "address",
          "name": "sender",
          "type": "address"
        }
      ],
      "name": "ERC721InvalidSender",
      "type": "error"
    },
    {
      "inputs": [
        {
          "internalType": "uint256",
          "name": "tokenId",
          "type": "uint256"
        }
      ],
      "name": "ERC721NonexistentToken",
      "type": "error"
    },
    {
      "inputs": [
        {
          "internalType": "address",
          "name": "owner",
          "type": "address"
        }
      ],
      "name": "OwnableInvalidOwner",
      "type": "error"
    },
    {
      "inputs": [
        {
          "internalType": "address",
          "name": "account",
          "type": "address"
        }
      ],
      "name": "OwnableUnauthorizedAccount",
      "type": "error"
    },
    {
      "anonymous": false,
      "inputs": [
        {
          "indexed": true,
          "internalType": "address",
          "name": "owner",
          "type": "address"
        },
        {
          "indexed": true,
          "internalType": "address",
          "name": "approved",
          "type": "address"
        },
        {
          "indexed": true,
          "internalType": "uint256",
          "name": "tokenId",
          "type": "uint256"
        }
      ],
      "name": "Approval",
      "type": "event"
    },
    {
      "anonymous": false,
      "inputs": [
        {
          "indexed": true,
          "internalType": "address",
          "name": "owner",
          "type": "address"
        },
        {
          "indexed": true,
          "internalType": "address",
          "name": "operator",
          "type": "address"
        },
        {
          "indexed": false,
          "internalType": "bool",
          "name": "approved",
          "type": "bool"
        }
      ],
      "name": "ApprovalForAll",
      "type": "event"
    },
    {
      "anonymous": false,
      "inputs": [
        {
          "indexed": false,
          "internalType": "uint256",
          "name": "_fromTokenId",
          "type": "uint256"
        },
        {
          "indexed": false,
          "internalType": "uint256",
          "name": "_toTokenId",
          "type": "uint256"
        }
      ],
      "name": "BatchMetadataUpdate",
      "type": "event"
    },
    {
      "anonymous": false,
      "inputs": [
        {
          "indexed": false,
          "internalType": "uint256",
          "name": "battleId",
          "type": "uint256"
        },
        {
          "indexed": false,
          "internalType": "uint256",
          "name": "startTime",
          "type": "uint256"
        },
        {
          "indexed": false,
          "internalType": "uint256",
          "name": "endTime",
          "type": "uint256"
        }
      ],
      "name": "BattleCreated",
      "type": "event"
    },
    {
      "anonymous": false,
      "inputs": [
        {
          "indexed": false,
          "internalType": "uint256",
          "name": "battleId",
          "type": "uint256"
        },
        {
          "indexed": false,
          "internalType": "uint256",
          "name": "designId",
          "type": "uint256"
        },
        {
          "indexed": false,
          "internalType": "address",
          "name": "creator",
          "type": "address"
        }
      ],
      "name": "DesignSubmitted",
      "type": "event"
    },
    {
      "anonymous": false,
      "inputs": [
        {
          "indexed": false,
          "internalType": "uint256",
          "name": "_tokenId",
          "type": "uint256"
        }
      ],
      "name": "MetadataUpdate",
      "type": "event"
    },
    {
      "anonymous": false,
      "inputs": [
        {
          "indexed": true,
          "internalType": "address",
          "name": "previousOwner",
          "type": "address"
        },
        {
          "indexed": true,
          "internalType": "address",
          "name": "newOwner",
          "type": "address"
        }
      ],
      "name": "OwnershipTransferred",
      "type": "event"
    },
    {
      "anonymous": false,
      "inputs": [
        {
          "indexed": true,
          "internalType": "address",
          "name": "from",
          "type": "address"
        },
        {
          "indexed": true,
          "internalType": "address",
          "name": "to",
          "type": "address"
        },
        {
          "indexed": true,
          "internalType": "uint256",
          "name": "tokenId",
          "type": "uint256"
        }
      ],
      "name": "Transfer",
      "type": "event"
    },
    {
      "anonymous": false,
      "inputs": [
        {
          "indexed": false,
          "internalType": "uint256",
          "name": "battleId",
          "type": "uint256"
        },
        {
          "indexed": false,
          "internalType": "uint256",
          "name": "designId",
          "type": "uint256"
        },
        {
          "indexed": false,
          "internalType": "address",
          "name": "voter",
          "type": "address"
        }
      ],
      "name": "Voted",
      "type": "event"
    },
    {
      "anonymous": false,
      "inputs": [
        {
          "indexed": false,
          "internalType": "uint256",
          "name": "battleId",
          "type": "uint256"
        },
        {
          "indexed": false,
          "internalType": "uint256",
          "name": "designId",
          "type": "uint256"
        },
        {
          "indexed": false,
          "internalType": "address",
          "name": "winner",
          "type": "address"
        }
      ],
      "name": "WinnerDeclared",
      "type": "event"
    },
    {
      "inputs": [
        {
          "internalType": "address",
          "name": "to",
          "type": "address"
        },
        {
          "internalType": "uint256",
          "name": "tokenId",
          "type": "uint256"
        }
      ],
      "name": "approve",
      "outputs": [],
      "stateMutability": "nonpayable",
      "type": "function"
    },
    {
      "inputs": [
        {
          "internalType": "address",
          "name": "owner",
          "type": "address"
        }
      ],
      "name": "balanceOf",
      "outputs": [
        {
          "internalType": "uint256",
          "name": "",
          "type": "uint256"
        }
      ],
      "stateMutability": "view",
      "type": "function"
    },
    {
      "inputs": [],
      "name": "battleCounter",
      "outputs": [
        {
          "internalType": "uint256",
          "name": "",
          "type": "uint256"
        }
      ],
      "stateMutability": "view",
      "type": "function"
    },
    {
      "inputs": [
        {
          "internalType": "uint256",
          "name": "",
          "type": "uint256"
        }
      ],
      "name": "battles",
      "outputs": [
        {
          "internalType": "uint256",
          "name": "startTime",
          "type": "uint256"
        },
        {
          "internalType": "uint256",
          "name": "endTime",
          "type": "uint256"
        },
        {
          "internalType": "bool",
          "name": "ended",
          "type": "bool"
        },
        {
          "internalType": "uint256",
          "name": "designCount",
          "type": "uint256"
        }
      ],
      "stateMutability": "view",
      "type": "function"
    },
    {
      "inputs": [
        {
          "internalType": "uint256",
          "name": "duration",
          "type": "uint256"
        }
      ],
      "name": "createBattle",
      "outputs": [],
      "stateMutability": "nonpayable",
      "type": "function"
    },
    {
      "inputs": [
        {
          "internalType": "uint256",
          "name": "battleId",
          "type": "uint256"
        }
      ],
      "name": "declareWinner",
      "outputs": [],
      "stateMutability": "nonpayable",
      "type": "function"
    },
    {
      "inputs": [
        {
          "internalType": "uint256",
          "name": "tokenId",
          "type": "uint256"
        }
      ],
      "name": "getApproved",
      "outputs": [
        {
          "internalType": "address",
          "name": "",
          "type": "address"
        }
      ],
      "stateMutability": "view",
      "type": "function"
    },
    {
      "inputs": [
        {
          "internalType": "address",
          "name": "owner",
          "type": "address"
        },
        {
          "internalType": "address",
          "name": "operator",
          "type": "address"
        }
      ],
      "name": "isApprovedForAll",
      "outputs": [
        {
          "internalType": "bool",
          "name": "",
          "type": "bool"
        }
      ],
      "stateMutability": "view",
      "type": "function"
    },
    {
      "inputs": [],
      "name": "name",
      "outputs": [
        {
          "internalType": "string",
          "name": "",
          "type": "string"
        }
      ],
      "stateMutability": "view",
      "type": "function"
    },
    {
      "inputs": [],
      "name": "owner",
      "outputs": [
        {
          "internalType": "address",
          "name": "",
          "type": "address"
        }
      ],
      "stateMutability": "view",
      "type": "function"
    },
    {
      "inputs": [
        {
          "internalType": "uint256",
          "name": "tokenId",
          "type": "uint256"
        }
      ],
      "name": "ownerOf",
      "outputs": [
        {
          "internalType": "address",
          "name": "",
          "type": "address"
        }
      ],
      "stateMutability": "view",
      "type": "function"
    },
    {
      "inputs": [],
      "name": "renounceOwnership",
      "outputs": [],
      "stateMutability": "nonpayable",
      "type": "function"
    },
    {
      "inputs": [
        {
          "internalType": "address",
          "name": "from",
          "type": "address"
        },
        {
          "internalType": "address",
          "name": "to",
          "type": "address"
        },
        {
          "internalType": "uint256",
          "name": "tokenId",
          "type": "uint256"
        }
      ],
      "name": "safeTransferFrom",
      "outputs": [],
      "stateMutability": "nonpayable",
      "type": "function"
    },
    {
      "inputs": [
        {
          "internalType": "address",
          "name": "from",
          "type": "address"
        },
        {
          "internalType": "address",
          "name": "to",
          "type": "address"
        },
        {
          "internalType": "uint256",
          "name": "tokenId",
          "type": "uint256"
        },
        {
          "internalType": "bytes",
          "name": "data",
          "type": "bytes"
        }
      ],
      "name": "safeTransferFrom",
      "outputs": [],
      "stateMutability": "nonpayable",
      "type": "function"
    },
    {
      "inputs": [
        {
          "internalType": "address",
          "name": "operator",
          "type": "address"
        },
        {
          "internalType": "bool",
          "name": "approved",
          "type": "bool"
        }
      ],
      "name": "setApprovalForAll",
      "outputs": [],
      "stateMutability": "nonpayable",
      "type": "function"
    },
    {
      "inputs": [
        {
          "internalType": "uint256",
          "name": "battleId",
          "type": "uint256"
        },
        {
          "internalType": "string",
          "name": "designURI",
          "type": "string"
        }
      ],
      "name": "submitDesign",
      "outputs": [],
      "stateMutability": "nonpayable",
      "type": "function"
    },
    {
      "inputs": [
        {
          "internalType": "bytes4",
          "name": "interfaceId",
          "type": "bytes4"
        }
      ],
      "name": "supportsInterface",
      "outputs": [
        {
          "internalType": "bool",
          "name": "",
          "type": "bool"
        }
      ],
      "stateMutability": "view",
      "type": "function"
    },
    {
      "inputs": [],
      "name": "symbol",
      "outputs": [
        {
          "internalType": "string",
          "name": "",
          "type": "string"
        }
      ],
      "stateMutability": "view",
      "type": "function"
    },
    {
      "inputs": [],
      "name": "tokenCounter",
      "outputs": [
        {
          "internalType": "uint256",
          "name": "",
          "type": "uint256"
        }
      ],
      "stateMutability": "view",
      "type": "function"
    },
    {
      "inputs": [
        {
          "internalType": "uint256",
          "name": "tokenId",
          "type": "uint256"
        }
      ],
      "name": "tokenURI",
      "outputs": [
        {
          "internalType": "string",
          "name": "",
          "type": "string"
        }
      ],
      "stateMutability": "view",
      "type": "function"
    },
    {
      "inputs": [
        {
          "internalType": "address",
          "name": "from",
          "type": "address"
        },
        {
          "internalType": "address",
          "name": "to",
          "type": "address"
        },
        {
          "internalType": "uint256",
          "name": "tokenId",
          "type": "uint256"
        }
      ],
      "name": "transferFrom",
      "outputs": [],
      "stateMutability": "nonpayable",
      "type": "function"
    },
    {
      "inputs": [
        {
          "internalType": "address",
          "name": "newOwner",
          "type": "address"
        }
      ],
      "name": "transferOwnership",
      "outputs": [],
      "stateMutability": "nonpayable",
      "type": "function"
    },
    {
      "inputs": [
        {
          "internalType": "uint256",
          "name": "battleId",
          "type": "uint256"
        },
        {
          "internalType": "uint256",
          "name": "designId",
          "type": "uint256"
        }
      ],
      "name": "vote",
      "outputs": [],
      "stateMutability": "nonpayable",
      "type": "function"
    }
  ],
  "bytecode": "0x60806040523480156200001157600080fd5b50336040518060400160405280600981526020017f4e4654426174746c6500000000000000000000000000000000000000000000008152506040518060400160405280600481526020017f4e46544200000000000000000000000000000000000000000000000000000000815250816000908162000090919062000472565b508060019081620000a2919062000472565b505050600073ffffffffffffffffffffffffffffffffffffffff168173ffffffffffffffffffffffffffffffffffffffff16036200011a5760006040517f1e4fbdf70000000000000000000000000000000000000000000000000000000081526004016200011191906200059e565b60405180910390fd5b6200012b816200013260201b60201c565b50620005bb565b6000600760009054906101000a900473ffffffffffffffffffffffffffffffffffffffff16905081600760006101000a81548173ffffffffffffffffffffffffffffffffffffffff021916908373ffffffffffffffffffffffffffffffffffffffff1602179055508173ffffffffffffffffffffffffffffffffffffffff168173ffffffffffffffffffffffffffffffffffffffff167f8be0079c531659141344cd1fd0a4f28419497f9722a3daafe3b4186f6b6457e060405160405180910390a35050565b600081519050919050565b7f4e487b7100000000000000000000000000000000000000000000000000000000600052604160045260246000fd5b7f4e487b7100000000000000000000000000000000000000000000000000000000600052602260045260246000fd5b600060028204905060018216806200027a57607f821691505b60208210810362000290576200028f62000232565b5b50919050565b60008190508160005260206000209050919050565b60006020601f8301049050919050565b600082821b905092915050565b600060088302620002fa7fffffffffffffffffffffffffffffffffffffffffffffffffffffffffffffffff82620002bb565b620003068683620002bb565b95508019841693508086168417925050509392505050565b6000819050919050565b6000819050919050565b6000620003536200034d62000347846200031e565b62000328565b6200031e565b9050919050565b6000819050919050565b6200036f8362000332565b620003876200037e826200035a565b848454620002c8565b825550505050565b600090565b6200039e6200038f565b620003ab81848462000364565b505050565b5b81811015620003d357620003c760008262000394565b600181019050620003b1565b5050565b601f8211156200042257620003ec8162000296565b620003f784620002ab565b8101602085101562000407578190505b6200041f6200041685620002ab565b830182620003b0565b50505b505050565b600082821c905092915050565b6000620004476000198460080262000427565b1980831691505092915050565b600062000462838362000434565b9150826002028217905092915050565b6200047d82620001f8565b67ffffffffffffffff81111562000499576200049862000203565b5b620004a5825462000261565b620004b2828285620003d7565b600060209050601f831160018114620004ea5760008415620004d5578287015190505b620004e1858262000454565b86555062000551565b601f198416620004fa8662000296565b60005b828110156200052457848901518255600182019150602085019450602081019050620004fd565b8683101562000544578489015162000540601f89168262000434565b8355505b6001600288020188555050505b505050505050565b600073ffffffffffffffffffffffffffffffffffffffff82169050919050565b6000620005868262000559565b9050919050565b620005988162000579565b82525050565b6000602082019050620005b560008301846200058d565b92915050565b61324a80620005cb6000396000f3fe608060405234801561001057600080fd5b506004361061014c5760003560e01c8063715018a6116100c3578063b384abef1161007c578063b384abef1461038a578063b88d4fde146103a6578063c87b56dd146103c2578063d082e381146103f2578063e985e9c514610410578063f2fde38b146104405761014c565b8063715018a6146102ee5780638da5cb5b146102f857806394d44f121461031657806395d89b4114610332578063a22cb46514610350578063a9b9be3f1461036c5761014c565b806323b872dd1161011557806323b872dd1461020757806342842e0e1461022357806345fb2e861461023f578063606d2e961461025b5780636352211e1461028e57806370a08231146102be5761014c565b8062c2943c1461015157806301ffc9a71461016d57806306fdde031461019d578063081812fc146101bb578063095ea7b3146101eb575b600080fd5b61016b6004803603810190610166919061233d565b61045c565b005b610187600480360381019061018291906123c2565b610745565b604051610194919061240a565b60405180910390f35b6101a56107a6565b6040516101b291906124b5565b60405180910390f35b6101d560048036038101906101d0919061233d565b610838565b6040516101e29190612518565b60405180910390f35b6102056004803603810190610200919061255f565b610854565b005b610221600480360381019061021c919061259f565b61086a565b005b61023d6004803603810190610238919061259f565b61096c565b005b61025960048036038101906102549190612727565b61098c565b005b6102756004803603810190610270919061233d565b610b64565b6040516102859493929190612792565b60405180910390f35b6102a860048036038101906102a3919061233d565b610ba1565b6040516102b59190612518565b60405180910390f35b6102d860048036038101906102d391906127d7565b610bb3565b6040516102e59190612804565b60405180910390f35b6102f6610c6d565b005b610300610c81565b60405161030d9190612518565b60405180910390f35b610330600480360381019061032b919061233d565b610cab565b005b61033a610d8c565b60405161034791906124b5565b60405180910390f35b61036a6004803603810190610365919061284b565b610e1e565b005b610374610e34565b6040516103819190612804565b60405180910390f35b6103a4600480360381019061039f919061288b565b610e3a565b005b6103c060048036038101906103bb919061296c565b61106c565b005b6103dc60048036038101906103d7919061233d565b611091565b6040516103e991906124b5565b60405180910390f35b6103fa6111a4565b6040516104079190612804565b60405180910390f35b61042a600480360381019061042591906129ef565b6111aa565b604051610437919061240a565b60405180910390f35b61045a600480360381019061045591906127d7565b61123e565b005b600a60008281526020019081526020016000206001015442116104b4576040517f08c379a00000000000000000000000000000000000000000000000000000000081526004016104ab90612a7b565b60405180910390fd5b600a600082815260200190815260200160002060020160009054906101000a900460ff1615610518576040517f08c379a000000000000000000000000000000000000000000000000000000000815260040161050f90612ae7565b60405180910390fd5b6000600a6000838152602001908152602001600020905060008060005b83600401548110156105935781846003016000838152602001908152602001600020600201541115610580578360030160008281526020019081526020016000206002015491508092505b808061058b90612b36565b915050610535565b5060018360020160006101000a81548160ff02191690831515021790555060008360030160008481526020019081526020016000206040518060600160405290816000820160009054906101000a900473ffffffffffffffffffffffffffffffffffffffff1673ffffffffffffffffffffffffffffffffffffffff1673ffffffffffffffffffffffffffffffffffffffff16815260200160018201805461063990612bad565b80601f016020809104026020016040519081016040528092919081815260200182805461066590612bad565b80156106b25780601f10610687576101008083540402835291602001916106b2565b820191906000526020600020905b81548152906001019060200180831161069557829003601f168201915b505050505081526020016002820154815250509050600960008154809291906106da90612b36565b91905055506106ef81600001516009546112c4565b6106ff60095482602001516113bd565b7f8981fdd74bd05da9ef8f2aeb472f541ee871b1e9e3908c19d01a9bf51ce5f7ab8584836000015160405161073693929190612bde565b60405180910390a15050505050565b6000634906490660e01b7bffffffffffffffffffffffffffffffffffffffffffffffffffffffff1916827bffffffffffffffffffffffffffffffffffffffffffffffffffffffff1916148061079f575061079e82611419565b5b9050919050565b6060600080546107b590612bad565b80601f01602080910402602001604051908101604052809291908181526020018280546107e190612bad565b801561082e5780601f106108035761010080835404028352916020019161082e565b820191906000526020600020905b81548152906001019060200180831161081157829003601f168201915b5050505050905090565b6000610843826114fb565b5061084d82611583565b9050919050565b61086682826108616115c0565b6115c8565b5050565b600073ffffffffffffffffffffffffffffffffffffffff168273ffffffffffffffffffffffffffffffffffffffff16036108dc5760006040517f64a0ae920000000000000000000000000000000000000000000000000000000081526004016108d39190612518565b60405180910390fd5b60006108f083836108eb6115c0565b6115da565b90508373ffffffffffffffffffffffffffffffffffffffff168173ffffffffffffffffffffffffffffffffffffffff1614610966578382826040517f64283d7b00000000000000000000000000000000000000000000000000000000815260040161095d93929190612c15565b60405180910390fd5b50505050565b6109878383836040518060200160405280600081525061106c565b505050565b600a6000838152602001908152602001600020600001544210156109e5576040517f08c379a00000000000000000000000000000000000000000000000000000000081526004016109dc90612c98565b60405180910390fd5b600a600083815260200190815260200160002060010154421115610a3e576040517f08c379a0000000000000000000000000000000000000000000000000000000008152600401610a3590612d04565b60405180910390fd5b6000600a600084815260200190815260200160002090506000816004016000815480929190610a6c90612b36565b91905055905060405180606001604052803373ffffffffffffffffffffffffffffffffffffffff168152602001848152602001600081525082600301600083815260200190815260200160002060008201518160000160006101000a81548173ffffffffffffffffffffffffffffffffffffffff021916908373ffffffffffffffffffffffffffffffffffffffff1602179055506020820151816001019081610b159190612ed0565b50604082015181600201559050507fec29bb74be622a6f8d42e4bae24e83dd9e7620a906308b84667f3e7f30ac57d7848233604051610b5693929190612bde565b60405180910390a150505050565b600a6020528060005260406000206000915090508060000154908060010154908060020160009054906101000a900460ff16908060040154905084565b6000610bac826114fb565b9050919050565b60008073ffffffffffffffffffffffffffffffffffffffff168273ffffffffffffffffffffffffffffffffffffffff1603610c265760006040517f89c62b64000000000000000000000000000000000000000000000000000000008152600401610c1d9190612518565b60405180910390fd5b600360008373ffffffffffffffffffffffffffffffffffffffff1673ffffffffffffffffffffffffffffffffffffffff168152602001908152602001600020549050919050565b610c756117f4565b610c7f600061187b565b565b6000600760009054906101000a900473ffffffffffffffffffffffffffffffffffffffff16905090565b610cb36117f4565b60086000815480929190610cc690612b36565b91905055506000600854905042600a6000838152602001908152602001600020600001819055508142610cf99190612fa2565b600a6000838152602001908152602001600020600101819055506000600a600083815260200190815260200160002060020160006101000a81548160ff0219169083151502179055507fd62c968428ee35efcd585201e478fee8104bb7facd8559d3dd58fd7fb83e658681428442610d719190612fa2565b604051610d8093929190612fd6565b60405180910390a15050565b606060018054610d9b90612bad565b80601f0160208091040260200160405190810160405280929190818152602001828054610dc790612bad565b8015610e145780601f10610de957610100808354040283529160200191610e14565b820191906000526020600020905b815481529060010190602001808311610df757829003601f168201915b5050505050905090565b610e30610e296115c0565b8383611941565b5050565b60085481565b600a600083815260200190815260200160002060000154421015610e93576040517f08c379a0000000000000000000000000000000000000000000000000000000008152600401610e8a90612c98565b60405180910390fd5b600a600083815260200190815260200160002060010154421115610eec576040517f08c379a0000000000000000000000000000000000000000000000000000000008152600401610ee390612d04565b60405180910390fd5b600a600083815260200190815260200160002060050160003373ffffffffffffffffffffffffffffffffffffffff1673ffffffffffffffffffffffffffffffffffffffff16815260200190815260200160002060009054906101000a900460ff1615610f8d576040517f08c379a0000000000000000000000000000000000000000000000000000000008152600401610f8490613059565b60405180910390fd5b6000600a6000848152602001908152602001600020905060018160050160003373ffffffffffffffffffffffffffffffffffffffff1673ffffffffffffffffffffffffffffffffffffffff16815260200190815260200160002060006101000a81548160ff021916908315150217905550806003016000838152602001908152602001600020600201600081548092919061102790612b36565b91905055507fd91ecafccf238642dccd41161308b3eebe62a12bc5819daf5164780c221ec95b83833360405161105f93929190612bde565b60405180910390a1505050565b61107784848461086a565b61108b6110826115c0565b85858585611ab0565b50505050565b606061109c826114fb565b5060006006600084815260200190815260200160002080546110bd90612bad565b80601f01602080910402602001604051908101604052809291908181526020018280546110e990612bad565b80156111365780601f1061110b57610100808354040283529160200191611136565b820191906000526020600020905b81548152906001019060200180831161111957829003601f168201915b505050505090506000611147611c61565b9050600081510361115c57819250505061119f565b6000825111156111915780826040516020016111799291906130b5565b6040516020818303038152906040529250505061119f565b61119a84611c78565b925050505b919050565b60095481565b6000600560008473ffffffffffffffffffffffffffffffffffffffff1673ffffffffffffffffffffffffffffffffffffffff16815260200190815260200160002060008373ffffffffffffffffffffffffffffffffffffffff1673ffffffffffffffffffffffffffffffffffffffff16815260200190815260200160002060009054906101000a900460ff16905092915050565b6112466117f4565b600073ffffffffffffffffffffffffffffffffffffffff168173ffffffffffffffffffffffffffffffffffffffff16036112b85760006040517f1e4fbdf70000000000000000000000000000000000000000000000000000000081526004016112af9190612518565b60405180910390fd5b6112c18161187b565b50565b600073ffffffffffffffffffffffffffffffffffffffff168273ffffffffffffffffffffffffffffffffffffffff16036113365760006040517f64a0ae9200000000000000000000000000000000000000000000000000000000815260040161132d9190612518565b60405180910390fd5b6000611344838360006115da565b9050600073ffffffffffffffffffffffffffffffffffffffff168173ffffffffffffffffffffffffffffffffffffffff16146113b85760006040517f73c6ac6e0000000000000000000000000000000000000000000000000000000081526004016113af9190612518565b60405180910390fd5b505050565b806006600084815260200190815260200160002090816113dd9190612ed0565b507ff8e1a15aba9398e019f0b49df1a4fde98ee17ae345cb5f6b5e2c27f5033e8ce78260405161140d9190612804565b60405180910390a15050565b60007f80ac58cd000000000000000000000000000000000000000000000000000000007bffffffffffffffffffffffffffffffffffffffffffffffffffffffff1916827bffffffffffffffffffffffffffffffffffffffffffffffffffffffff191614806114e457507f5b5e139f000000000000000000000000000000000000000000000000000000007bffffffffffffffffffffffffffffffffffffffffffffffffffffffff1916827bffffffffffffffffffffffffffffffffffffffffffffffffffffffff1916145b806114f457506114f382611ce1565b5b9050919050565b60008061150783611d4b565b9050600073ffffffffffffffffffffffffffffffffffffffff168173ffffffffffffffffffffffffffffffffffffffff160361157a57826040517f7e2732890000000000000000000000000000000000000000000000000000000081526004016115719190612804565b60405180910390fd5b80915050919050565b60006004600083815260200190815260200160002060009054906101000a900473ffffffffffffffffffffffffffffffffffffffff169050919050565b600033905090565b6115d58383836001611d88565b505050565b6000806115e684611d4b565b9050600073ffffffffffffffffffffffffffffffffffffffff168373ffffffffffffffffffffffffffffffffffffffff161461162857611627818486611f4d565b5b600073ffffffffffffffffffffffffffffffffffffffff168173ffffffffffffffffffffffffffffffffffffffff16146116b95761166a600085600080611d88565b6001600360008373ffffffffffffffffffffffffffffffffffffffff1673ffffffffffffffffffffffffffffffffffffffff168152602001908152602001600020600082825403925050819055505b600073ffffffffffffffffffffffffffffffffffffffff168573ffffffffffffffffffffffffffffffffffffffff161461173c576001600360008773ffffffffffffffffffffffffffffffffffffffff1673ffffffffffffffffffffffffffffffffffffffff168152602001908152602001600020600082825401925050819055505b846002600086815260200190815260200160002060006101000a81548173ffffffffffffffffffffffffffffffffffffffff021916908373ffffffffffffffffffffffffffffffffffffffff160217905550838573ffffffffffffffffffffffffffffffffffffffff168273ffffffffffffffffffffffffffffffffffffffff167fddf252ad1be2c89b69c2b068fc378daa952ba7f163c4a11628f55a4df523b3ef60405160405180910390a4809150509392505050565b6117fc6115c0565b73ffffffffffffffffffffffffffffffffffffffff1661181a610c81565b73ffffffffffffffffffffffffffffffffffffffff16146118795761183d6115c0565b6040517f118cdaa70000000000000000000000000000000000000000000000000000000081526004016118709190612518565b60405180910390fd5b565b6000600760009054906101000a900473ffffffffffffffffffffffffffffffffffffffff16905081600760006101000a81548173ffffffffffffffffffffffffffffffffffffffff021916908373ffffffffffffffffffffffffffffffffffffffff1602179055508173ffffffffffffffffffffffffffffffffffffffff168173ffffffffffffffffffffffffffffffffffffffff167f8be0079c531659141344cd1fd0a4f28419497f9722a3daafe3b4186f6b6457e060405160405180910390a35050565b600073ffffffffffffffffffffffffffffffffffffffff168273ffffffffffffffffffffffffffffffffffffffff16036119b257816040517f5b08ba180000000000000000000000000000000000000000000000000000000081526004016119a99190612518565b60405180910390fd5b80600560008573ffffffffffffffffffffffffffffffffffffffff1673ffffffffffffffffffffffffffffffffffffffff16815260200190815260200160002060008473ffffffffffffffffffffffffffffffffffffffff1673ffffffffffffffffffffffffffffffffffffffff16815260200190815260200160002060006101000a81548160ff0219169083151502179055508173ffffffffffffffffffffffffffffffffffffffff168373ffffffffffffffffffffffffffffffffffffffff167f17307eab39ab6107e8899845ad3d59bd9653f200f220920489ca2b5937696c3183604051611aa3919061240a565b60405180910390a3505050565b60008373ffffffffffffffffffffffffffffffffffffffff163b1115611c5a578273ffffffffffffffffffffffffffffffffffffffff1663150b7a02868685856040518563ffffffff1660e01b8152600401611b0f949392919061312e565b6020604051808303816000875af1925050508015611b4b57506040513d601f19601f82011682018060405250810190611b48919061318f565b60015b611bcf573d8060008114611b7b576040519150601f19603f3d011682016040523d82523d6000602084013e611b80565b606091505b506000815103611bc757836040517f64a0ae92000000000000000000000000000000000000000000000000000000008152600401611bbe9190612518565b60405180910390fd5b805181602001fd5b63150b7a0260e01b7bffffffffffffffffffffffffffffffffffffffffffffffffffffffff1916817bffffffffffffffffffffffffffffffffffffffffffffffffffffffff191614611c5857836040517f64a0ae92000000000000000000000000000000000000000000000000000000008152600401611c4f9190612518565b60405180910390fd5b505b5050505050565b606060405180602001604052806000815250905090565b6060611c83826114fb565b506000611c8e611c61565b90506000815111611cae5760405180602001604052806000815250611cd9565b80611cb884612011565b604051602001611cc99291906130b5565b6040516020818303038152906040525b915050919050565b60007f01ffc9a7000000000000000000000000000000000000000000000000000000007bffffffffffffffffffffffffffffffffffffffffffffffffffffffff1916827bffffffffffffffffffffffffffffffffffffffffffffffffffffffff1916149050919050565b60006002600083815260200190815260200160002060009054906101000a900473ffffffffffffffffffffffffffffffffffffffff169050919050565b8080611dc15750600073ffffffffffffffffffffffffffffffffffffffff168273ffffffffffffffffffffffffffffffffffffffff1614155b15611ef5576000611dd1846114fb565b9050600073ffffffffffffffffffffffffffffffffffffffff168373ffffffffffffffffffffffffffffffffffffffff1614158015611e3c57508273ffffffffffffffffffffffffffffffffffffffff168173ffffffffffffffffffffffffffffffffffffffff1614155b8015611e4f5750611e4d81846111aa565b155b15611e9157826040517fa9fbf51f000000000000000000000000000000000000000000000000000000008152600401611e889190612518565b60405180910390fd5b8115611ef357838573ffffffffffffffffffffffffffffffffffffffff168273ffffffffffffffffffffffffffffffffffffffff167f8c5be1e5ebec7d5bd14f71427d1e84f3dd0314c0f7b2291e5b200ac8c7c3b92560405160405180910390a45b505b836004600085815260200190815260200160002060006101000a81548173ffffffffffffffffffffffffffffffffffffffff021916908373ffffffffffffffffffffffffffffffffffffffff16021790555050505050565b611f588383836120df565b61200c57600073ffffffffffffffffffffffffffffffffffffffff168373ffffffffffffffffffffffffffffffffffffffff1603611fcd57806040517f7e273289000000000000000000000000000000000000000000000000000000008152600401611fc49190612804565b60405180910390fd5b81816040517f177e802f0000000000000000000000000000000000000000000000000000000081526004016120039291906131bc565b60405180910390fd5b505050565b606060006001612020846121a0565b01905060008167ffffffffffffffff81111561203f5761203e6125fc565b5b6040519080825280601f01601f1916602001820160405280156120715781602001600182028036833780820191505090505b509050600082602001820190505b6001156120d4578080600190039150507f3031323334353637383961626364656600000000000000000000000000000000600a86061a8153600a85816120c8576120c76131e5565b5b0494506000850361207f575b819350505050919050565b60008073ffffffffffffffffffffffffffffffffffffffff168373ffffffffffffffffffffffffffffffffffffffff161415801561219757508273ffffffffffffffffffffffffffffffffffffffff168473ffffffffffffffffffffffffffffffffffffffff161480612158575061215784846111aa565b5b8061219657508273ffffffffffffffffffffffffffffffffffffffff1661217e83611583565b73ffffffffffffffffffffffffffffffffffffffff16145b5b90509392505050565b600080600090507a184f03e93ff9f4daa797ed6e38ed64bf6a1f01000000000000000083106121fe577a184f03e93ff9f4daa797ed6e38ed64bf6a1f01000000000000000083816121f4576121f36131e5565b5b0492506040810190505b6d04ee2d6d415b85acef8100000000831061223b576d04ee2d6d415b85acef81000000008381612231576122306131e5565b5b0492506020810190505b662386f26fc10000831061226a57662386f26fc1000083816122605761225f6131e5565b5b0492506010810190505b6305f5e1008310612293576305f5e1008381612289576122886131e5565b5b0492506008810190505b61271083106122b85761271083816122ae576122ad6131e5565b5b0492506004810190505b606483106122db57606483816122d1576122d06131e5565b5b0492506002810190505b600a83106122ea576001810190505b80915050919050565b6000604051905090565b600080fd5b600080fd5b6000819050919050565b61231a81612307565b811461232557600080fd5b50565b60008135905061233781612311565b92915050565b600060208284031215612353576123526122fd565b5b600061236184828501612328565b91505092915050565b60007fffffffff0000000000000000000000000000000000000000000000000000000082169050919050565b61239f8161236a565b81146123aa57600080fd5b50565b6000813590506123bc81612396565b92915050565b6000602082840312156123d8576123d76122fd565b5b60006123e6848285016123ad565b91505092915050565b60008115159050919050565b612404816123ef565b82525050565b600060208201905061241f60008301846123fb565b92915050565b600081519050919050565b600082825260208201905092915050565b60005b8381101561245f578082015181840152602081019050612444565b60008484015250505050565b6000601f19601f8301169050919050565b600061248782612425565b6124918185612430565b93506124a1818560208601612441565b6124aa8161246b565b840191505092915050565b600060208201905081810360008301526124cf818461247c565b905092915050565b600073ffffffffffffffffffffffffffffffffffffffff82169050919050565b6000612502826124d7565b9050919050565b612512816124f7565b82525050565b600060208201905061252d6000830184612509565b92915050565b61253c816124f7565b811461254757600080fd5b50565b60008135905061255981612533565b92915050565b60008060408385031215612576576125756122fd565b5b60006125848582860161254a565b925050602061259585828601612328565b9150509250929050565b6000806000606084860312156125b8576125b76122fd565b5b60006125c68682870161254a565b93505060206125d78682870161254a565b92505060406125e886828701612328565b9150509250925092565b600080fd5b600080fd5b7f4e487b7100000000000000000000000000000000000000000000000000000000600052604160045260246000fd5b6126348261246b565b810181811067ffffffffffffffff82111715612653576126526125fc565b5b80604052505050565b60006126666122f3565b9050612672828261262b565b919050565b600067ffffffffffffffff821115612692576126916125fc565b5b61269b8261246b565b9050602081019050919050565b82818337600083830152505050565b60006126ca6126c584612677565b61265c565b9050828152602081018484840111156126e6576126e56125f7565b5b6126f18482856126a8565b509392505050565b600082601f83011261270e5761270d6125f2565b5b813561271e8482602086016126b7565b91505092915050565b6000806040838503121561273e5761273d6122fd565b5b600061274c85828601612328565b925050602083013567ffffffffffffffff81111561276d5761276c612302565b5b612779858286016126f9565b9150509250929050565b61278c81612307565b82525050565b60006080820190506127a76000830187612783565b6127b46020830186612783565b6127c160408301856123fb565b6127ce6060830184612783565b95945050505050565b6000602082840312156127ed576127ec6122fd565b5b60006127fb8482850161254a565b91505092915050565b60006020820190506128196000830184612783565b92915050565b612828816123ef565b811461283357600080fd5b50565b6000813590506128458161281f565b92915050565b60008060408385031215612862576128616122fd565b5b60006128708582860161254a565b925050602061288185828601612836565b9150509250929050565b600080604083850312156128a2576128a16122fd565b5b60006128b085828601612328565b92505060206128c185828601612328565b9150509250929050565b600067ffffffffffffffff8211156128e6576128e56125fc565b5b6128ef8261246b565b9050602081019050919050565b600061290f61290a846128cb565b61265c565b90508281526020810184848401111561292b5761292a6125f7565b5b6129368482856126a8565b509392505050565b600082601f830112612953576129526125f2565b5b81356129638482602086016128fc565b91505092915050565b60008060008060808587031215612986576129856122fd565b5b60006129948782880161254a565b94505060206129a58782880161254a565b93505060406129b687828801612328565b925050606085013567ffffffffffffffff8111156129d7576129d6612302565b5b6129e38782880161293e565b91505092959194509250565b60008060408385031215612a0657612a056122fd565b5b6000612a148582860161254a565b9250506020612a258582860161254a565b9150509250929050565b7f426174746c65206f6e676f696e67000000000000000000000000000000000000600082015250565b6000612a65600e83612430565b9150612a7082612a2f565b602082019050919050565b60006020820190508181036000830152612a9481612a58565b9050919050565b7f57696e6e657220616c7265616479206465636c61726564000000000000000000600082015250565b6000612ad1601783612430565b9150612adc82612a9b565b602082019050919050565b60006020820190508181036000830152612b0081612ac4565b9050919050565b7f4e487b7100000000000000000000000000000000000000000000000000000000600052601160045260246000fd5b6000612b4182612307565b91507fffffffffffffffffffffffffffffffffffffffffffffffffffffffffffffffff8203612b7357612b72612b07565b5b600182019050919050565b7f4e487b7100000000000000000000000000000000000000000000000000000000600052602260045260246000fd5b60006002820490506001821680612bc557607f821691505b602082108103612bd857612bd7612b7e565b5b50919050565b6000606082019050612bf36000830186612783565b612c006020830185612783565b612c0d6040830184612509565b949350505050565b6000606082019050612c2a6000830186612509565b612c376020830185612783565b612c446040830184612509565b949350505050565b7f426174746c65206e6f7420737461727465640000000000000000000000000000600082015250565b6000612c82601283612430565b9150612c8d82612c4c565b602082019050919050565b60006020820190508181036000830152612cb181612c75565b9050919050565b7f426174746c6520656e6465640000000000000000000000000000000000000000600082015250565b6000612cee600c83612430565b9150612cf982612cb8565b602082019050919050565b60006020820190508181036000830152612d1d81612ce1565b9050919050565b60008190508160005260206000209050919050565b60006020601f8301049050919050565b600082821b905092915050565b600060088302612d867fffffffffffffffffffffffffffffffffffffffffffffffffffffffffffffffff82612d49565b612d908683612d49565b95508019841693508086168417925050509392505050565b6000819050919050565b6000612dcd612dc8612dc384612307565b612da8565b612307565b9050919050565b6000819050919050565b612de783612db2565b612dfb612df382612dd4565b848454612d56565b825550505050565b600090565b612e10612e03565b612e1b818484612dde565b505050565b5b81811015612e3f57612e34600082612e08565b600181019050612e21565b5050565b601f821115612e8457612e5581612d24565b612e5e84612d39565b81016020851015612e6d578190505b612e81612e7985612d39565b830182612e20565b50505b505050565b600082821c905092915050565b6000612ea760001984600802612e89565b1980831691505092915050565b6000612ec08383612e96565b9150826002028217905092915050565b612ed982612425565b67ffffffffffffffff811115612ef257612ef16125fc565b5b612efc8254612bad565b612f07828285612e43565b600060209050601f831160018114612f3a5760008415612f28578287015190505b612f328582612eb4565b865550612f9a565b601f198416612f4886612d24565b60005b82811015612f7057848901518255600182019150602085019450602081019050612f4b565b86831015612f8d5784890151612f89601f891682612e96565b8355505b6001600288020188555050505b505050505050565b6000612fad82612307565b9150612fb883612307565b9250828201905080821115612fd057612fcf612b07565b5b92915050565b6000606082019050612feb6000830186612783565b612ff86020830185612783565b6130056040830184612783565b949350505050565b7f416c726561647920766f74656400000000000000000000000000000000000000600082015250565b6000613043600d83612430565b915061304e8261300d565b602082019050919050565b6000602082019050818103600083015261307281613036565b9050919050565b600081905092915050565b600061308f82612425565b6130998185613079565b93506130a9818560208601612441565b80840191505092915050565b60006130c18285613084565b91506130cd8284613084565b91508190509392505050565b600081519050919050565b600082825260208201905092915050565b6000613100826130d9565b61310a81856130e4565b935061311a818560208601612441565b6131238161246b565b840191505092915050565b60006080820190506131436000830187612509565b6131506020830186612509565b61315d6040830185612783565b818103606083015261316f81846130f5565b905095945050505050565b60008151905061318981612396565b92915050565b6000602082840312156131a5576131a46122fd565b5b60006131b38482850161317a565b91505092915050565b60006040820190506131d16000830185612509565b6131de6020830184612783565b9392505050565b7f4e487b7100000000000000000000000000000000000000000000000000000000600052601260045260246000fdfea26469706673582212209c6a748c73ecfb935e00a1fd063e575550adbad917c035f58a3a44016a79e22264736f6c63430008140033",
  "linkReferences": {},
  "deployedLinkReferences": {}
}