{
  "_format": "hh-sol-artifact-1",
  "contractName": "NFTFashionPlatformCollaboration",
  "sourceName": "contracts/NFTFashionPlatformCollaboration.sol",
  "abi": [
    {
      "inputs": [],
      "stateMutability": "nonpayable",
      "type": "constructor"
    },
    {
      "inputs": [
        {
          "internalType": "address",
          "name": "sender",
          "type": "address"
        },
        {
          "internalType": "uint256",
          "name": "tokenId",
          "type": "uint256"
        },
        {
          "internalType": "address",
          "name": "owner",
          "type": "address"
        }
      ],
      "name": "ERC721IncorrectOwner",
      "type": "error"
    },
    {
      "inputs": [
        {
          "internalType": "address",
          "name": "operator",
          "type": "address"
        },
        {
          "internalType": "uint256",
          "name": "tokenId",
          "type": "uint256"
        }
      ],
      "name": "ERC721InsufficientApproval",
      "type": "error"
    },
    {
      "inputs": [
        {
          "internalType": "address",
          "name": "approver",
          "type": "address"
        }
      ],
      "name": "ERC721InvalidApprover",
      "type": "error"
    },
    {
      "inputs": [
        {
          "internalType": "address",
          "name": "operator",
          "type": "address"
        }
      ],
      "name": "ERC721InvalidOperator",
      "type": "error"
    },
    {
      "inputs": [
        {
          "internalType": "address",
          "name": "owner",
          "type": "address"
        }
      ],
      "name": "ERC721InvalidOwner",
      "type": "error"
    },
    {
      "inputs": [
        {
          "internalType": "address",
          "name": "receiver",
          "type": "address"
        }
      ],
      "name": "ERC721InvalidReceiver",
      "type": "error"
    },
    {
      "inputs": [
        {
          "internalType": "address",
          "name": "sender",
          "type": "address"
        }
      ],
      "name": "ERC721InvalidSender",
      "type": "error"
    },
    {
      "inputs": [
        {
          "internalType": "uint256",
          "name": "tokenId",
          "type": "uint256"
        }
      ],
      "name": "ERC721NonexistentToken",
      "type": "error"
    },
    {
      "inputs": [
        {
          "internalType": "address",
          "name": "owner",
          "type": "address"
        }
      ],
      "name": "OwnableInvalidOwner",
      "type": "error"
    },
    {
      "inputs": [
        {
          "internalType": "address",
          "name": "account",
          "type": "address"
        }
      ],
      "name": "OwnableUnauthorizedAccount",
      "type": "error"
    },
    {
      "anonymous": false,
      "inputs": [
        {
          "indexed": true,
          "internalType": "address",
          "name": "owner",
          "type": "address"
        },
        {
          "indexed": true,
          "internalType": "address",
          "name": "approved",
          "type": "address"
        },
        {
          "indexed": true,
          "internalType": "uint256",
          "name": "tokenId",
          "type": "uint256"
        }
      ],
      "name": "Approval",
      "type": "event"
    },
    {
      "anonymous": false,
      "inputs": [
        {
          "indexed": true,
          "internalType": "address",
          "name": "owner",
          "type": "address"
        },
        {
          "indexed": true,
          "internalType": "address",
          "name": "operator",
          "type": "address"
        },
        {
          "indexed": false,
          "internalType": "bool",
          "name": "approved",
          "type": "bool"
        }
      ],
      "name": "ApprovalForAll",
      "type": "event"
    },
    {
      "anonymous": false,
      "inputs": [
        {
          "indexed": true,
          "internalType": "address",
          "name": "artist",
          "type": "address"
        },
        {
          "indexed": false,
          "internalType": "string",
          "name": "name",
          "type": "string"
        }
      ],
      "name": "ArtistRegistered",
      "type": "event"
    },
    {
      "anonymous": false,
      "inputs": [
        {
          "indexed": false,
          "internalType": "uint256",
          "name": "_fromTokenId",
          "type": "uint256"
        },
        {
          "indexed": false,
          "internalType": "uint256",
          "name": "_toTokenId",
          "type": "uint256"
        }
      ],
      "name": "BatchMetadataUpdate",
      "type": "event"
    },
    {
      "anonymous": false,
      "inputs": [
        {
          "indexed": true,
          "internalType": "uint256",
          "name": "tokenId",
          "type": "uint256"
        },
        {
          "indexed": false,
          "internalType": "address[]",
          "name": "collaborators",
          "type": "address[]"
        },
        {
          "indexed": false,
          "internalType": "uint256[]",
          "name": "shares",
          "type": "uint256[]"
        }
      ],
      "name": "CollaborationCreated",
      "type": "event"
    },
    {
      "anonymous": false,
      "inputs": [
        {
          "indexed": true,
          "internalType": "uint256",
          "name": "tokenId",
          "type": "uint256"
        },
        {
          "indexed": false,
          "internalType": "string",
          "name": "content",
          "type": "string"
        }
      ],
      "name": "CommunityPostAdded",
      "type": "event"
    },
    {
      "anonymous": false,
      "inputs": [
        {
          "indexed": true,
          "internalType": "uint256",
          "name": "tokenId",
          "type": "uint256"
        },
        {
          "indexed": true,
          "internalType": "address",
          "name": "buyer",
          "type": "address"
        }
      ],
      "name": "DesignBought",
      "type": "event"
    },
    {
      "anonymous": false,
      "inputs": [
        {
          "indexed": true,
          "internalType": "uint256",
          "name": "tokenId",
          "type": "uint256"
        },
        {
          "indexed": true,
          "internalType": "address",
          "name": "liker",
          "type": "address"
        }
      ],
      "name": "DesignLiked",
      "type": "event"
    },
    {
      "anonymous": false,
      "inputs": [
        {
          "indexed": true,
          "internalType": "uint256",
          "name": "tokenId",
          "type": "uint256"
        },
        {
          "indexed": true,
          "internalType": "address",
          "name": "creator",
          "type": "address"
        },
        {
          "indexed": false,
          "internalType": "string",
          "name": "category",
          "type": "string"
        },
        {
          "indexed": false,
          "internalType": "string",
          "name": "designType",
          "type": "string"
        }
      ],
      "name": "DesignUploaded",
      "type": "event"
    },
    {
      "anonymous": false,
      "inputs": [
        {
          "indexed": true,
          "internalType": "address",
          "name": "artist",
          "type": "address"
        },
        {
          "indexed": true,
          "internalType": "address",
          "name": "minter",
          "type": "address"
        },
        {
          "indexed": false,
          "internalType": "uint256",
          "name": "tokenId",
          "type": "uint256"
        }
      ],
      "name": "MembershipNFTMinted",
      "type": "event"
    },
    {
      "anonymous": false,
      "inputs": [
        {
          "indexed": false,
          "internalType": "uint256",
          "name": "_tokenId",
          "type": "uint256"
        }
      ],
      "name": "MetadataUpdate",
      "type": "event"
    },
    {
      "anonymous": false,
      "inputs": [
        {
          "indexed": true,
          "internalType": "address",
          "name": "previousOwner",
          "type": "address"
        },
        {
          "indexed": true,
          "internalType": "address",
          "name": "newOwner",
          "type": "address"
        }
      ],
      "name": "OwnershipTransferred",
      "type": "event"
    },
    {
      "anonymous": false,
      "inputs": [
        {
          "indexed": true,
          "internalType": "address",
          "name": "from",
          "type": "address"
        },
        {
          "indexed": true,
          "internalType": "address",
          "name": "to",
          "type": "address"
        },
        {
          "indexed": true,
          "internalType": "uint256",
          "name": "tokenId",
          "type": "uint256"
        }
      ],
      "name": "Transfer",
      "type": "event"
    },
    {
      "inputs": [
        {
          "internalType": "uint256",
          "name": "_tokenId",
          "type": "uint256"
        },
        {
          "internalType": "string",
          "name": "_content",
          "type": "string"
        }
      ],
      "name": "addCommunityPost",
      "outputs": [],
      "stateMutability": "nonpayable",
      "type": "function"
    },
    {
      "inputs": [
        {
          "internalType": "address",
          "name": "to",
          "type": "address"
        },
        {
          "internalType": "uint256",
          "name": "tokenId",
          "type": "uint256"
        }
      ],
      "name": "approve",
      "outputs": [],
      "stateMutability": "nonpayable",
      "type": "function"
    },
    {
      "inputs": [
        {
          "internalType": "address",
          "name": "",
          "type": "address"
        },
        {
          "internalType": "uint256",
          "name": "",
          "type": "uint256"
        }
      ],
      "name": "artistMembershipNFTs",
      "outputs": [
        {
          "internalType": "uint256",
          "name": "",
          "type": "uint256"
        }
      ],
      "stateMutability": "view",
      "type": "function"
    },
    {
      "inputs": [
        {
          "internalType": "address",
          "name": "",
          "type": "address"
        }
      ],
      "name": "artists",
      "outputs": [
        {
          "internalType": "string",
          "name": "name",
          "type": "string"
        },
        {
          "internalType": "string",
          "name": "profileURI",
          "type": "string"
        },
        {
          "internalType": "bool",
          "name": "registered",
          "type": "bool"
        }
      ],
      "stateMutability": "view",
      "type": "function"
    },
    {
      "inputs": [
        {
          "internalType": "address",
          "name": "owner",
          "type": "address"
        }
      ],
      "name": "balanceOf",
      "outputs": [
        {
          "internalType": "uint256",
          "name": "",
          "type": "uint256"
        }
      ],
      "stateMutability": "view",
      "type": "function"
    },
    {
      "inputs": [
        {
          "internalType": "uint256",
          "name": "_tokenId",
          "type": "uint256"
        }
      ],
      "name": "buyCollaboration",
      "outputs": [],
      "stateMutability": "payable",
      "type": "function"
    },
    {
      "inputs": [
        {
          "internalType": "uint256",
          "name": "_tokenId",
          "type": "uint256"
        }
      ],
      "name": "buyDesign",
      "outputs": [],
      "stateMutability": "payable",
      "type": "function"
    },
    {
      "inputs": [
        {
          "internalType": "address",
          "name": "artist",
          "type": "address"
        },
        {
          "internalType": "address",
          "name": "viewer",
          "type": "address"
        }
      ],
      "name": "canViewPremiumNFTs",
      "outputs": [
        {
          "internalType": "bool",
          "name": "",
          "type": "bool"
        }
      ],
      "stateMutability": "view",
      "type": "function"
    },
    {
      "inputs": [],
      "name": "collaborationCounter",
      "outputs": [
        {
          "internalType": "uint256",
          "name": "",
          "type": "uint256"
        }
      ],
      "stateMutability": "view",
      "type": "function"
    },
    {
      "inputs": [
        {
          "internalType": "uint256",
          "name": "",
          "type": "uint256"
        }
      ],
      "name": "collaborations",
      "outputs": [
        {
          "internalType": "uint256",
          "name": "tokenId",
          "type": "uint256"
        },
        {
          "internalType": "string",
          "name": "collabURI",
          "type": "string"
        }
      ],
      "stateMutability": "view",
      "type": "function"
    },
    {
      "inputs": [
        {
          "internalType": "uint256",
          "name": "",
          "type": "uint256"
        },
        {
          "internalType": "uint256",
          "name": "",
          "type": "uint256"
        }
      ],
      "name": "communityPosts",
      "outputs": [
        {
          "internalType": "string",
          "name": "",
          "type": "string"
        }
      ],
      "stateMutability": "view",
      "type": "function"
    },
    {
      "inputs": [
        {
          "internalType": "uint256",
          "name": "",
          "type": "uint256"
        }
      ],
      "name": "designs",
      "outputs": [
        {
          "internalType": "uint256",
          "name": "tokenId",
          "type": "uint256"
        },
        {
          "internalType": "string",
          "name": "designURI",
          "type": "string"
        },
        {
          "internalType": "address",
          "name": "creator",
          "type": "address"
        },
        {
          "internalType": "string",
          "name": "category",
          "type": "string"
        },
        {
          "internalType": "string",
          "name": "designType",
          "type": "string"
        },
        {
          "internalType": "uint256",
          "name": "price",
          "type": "uint256"
        },
        {
          "internalType": "uint256",
          "name": "likes",
          "type": "uint256"
        }
      ],
      "stateMutability": "view",
      "type": "function"
    },
    {
      "inputs": [
        {
          "internalType": "uint256",
          "name": "tokenId",
          "type": "uint256"
        }
      ],
      "name": "getApproved",
      "outputs": [
        {
          "internalType": "address",
          "name": "",
          "type": "address"
        }
      ],
      "stateMutability": "view",
      "type": "function"
    },
    {
      "inputs": [
        {
          "internalType": "address",
          "name": "owner",
          "type": "address"
        },
        {
          "internalType": "address",
          "name": "operator",
          "type": "address"
        }
      ],
      "name": "isApprovedForAll",
      "outputs": [
        {
          "internalType": "bool",
          "name": "",
          "type": "bool"
        }
      ],
      "stateMutability": "view",
      "type": "function"
    },
    {
      "inputs": [
        {
          "internalType": "uint256",
          "name": "_tokenId",
          "type": "uint256"
        }
      ],
      "name": "likeDesign",
      "outputs": [],
      "stateMutability": "nonpayable",
      "type": "function"
    },
    {
      "inputs": [
        {
          "internalType": "address",
          "name": "artist",
          "type": "address"
        }
      ],
      "name": "mintMembershipNFT",
      "outputs": [],
      "stateMutability": "nonpayable",
      "type": "function"
    },
    {
      "inputs": [],
      "name": "name",
      "outputs": [
        {
          "internalType": "string",
          "name": "",
          "type": "string"
        }
      ],
      "stateMutability": "view",
      "type": "function"
    },
    {
      "inputs": [],
      "name": "owner",
      "outputs": [
        {
          "internalType": "address",
          "name": "",
          "type": "address"
        }
      ],
      "stateMutability": "view",
      "type": "function"
    },
    {
      "inputs": [
        {
          "internalType": "uint256",
          "name": "tokenId",
          "type": "uint256"
        }
      ],
      "name": "ownerOf",
      "outputs": [
        {
          "internalType": "address",
          "name": "",
          "type": "address"
        }
      ],
      "stateMutability": "view",
      "type": "function"
    },
    {
      "inputs": [
        {
          "internalType": "string",
          "name": "_name",
          "type": "string"
        },
        {
          "internalType": "string",
          "name": "_profileURI",
          "type": "string"
        }
      ],
      "name": "registerArtist",
      "outputs": [],
      "stateMutability": "nonpayable",
      "type": "function"
    },
    {
      "inputs": [],
      "name": "renounceOwnership",
      "outputs": [],
      "stateMutability": "nonpayable",
      "type": "function"
    },
    {
      "inputs": [
        {
          "internalType": "address",
          "name": "from",
          "type": "address"
        },
        {
          "internalType": "address",
          "name": "to",
          "type": "address"
        },
        {
          "internalType": "uint256",
          "name": "tokenId",
          "type": "uint256"
        }
      ],
      "name": "safeTransferFrom",
      "outputs": [],
      "stateMutability": "nonpayable",
      "type": "function"
    },
    {
      "inputs": [
        {
          "internalType": "address",
          "name": "from",
          "type": "address"
        },
        {
          "internalType": "address",
          "name": "to",
          "type": "address"
        },
        {
          "internalType": "uint256",
          "name": "tokenId",
          "type": "uint256"
        },
        {
          "internalType": "bytes",
          "name": "data",
          "type": "bytes"
        }
      ],
      "name": "safeTransferFrom",
      "outputs": [],
      "stateMutability": "nonpayable",
      "type": "function"
    },
    {
      "inputs": [
        {
          "internalType": "address",
          "name": "operator",
          "type": "address"
        },
        {
          "internalType": "bool",
          "name": "approved",
          "type": "bool"
        }
      ],
      "name": "setApprovalForAll",
      "outputs": [],
      "stateMutability": "nonpayable",
      "type": "function"
    },
    {
      "inputs": [
        {
          "internalType": "string",
          "name": "_tokenURI",
          "type": "string"
        },
        {
          "internalType": "string",
          "name": "_category",
          "type": "string"
        },
        {
          "internalType": "string",
          "name": "_designType",
          "type": "string"
        },
        {
          "internalType": "uint256",
          "name": "_price",
          "type": "uint256"
        }
      ],
      "name": "singleUploadDesign",
      "outputs": [],
      "stateMutability": "nonpayable",
      "type": "function"
    },
    {
      "inputs": [
        {
          "internalType": "bytes4",
          "name": "interfaceId",
          "type": "bytes4"
        }
      ],
      "name": "supportsInterface",
      "outputs": [
        {
          "internalType": "bool",
          "name": "",
          "type": "bool"
        }
      ],
      "stateMutability": "view",
      "type": "function"
    },
    {
      "inputs": [],
      "name": "symbol",
      "outputs": [
        {
          "internalType": "string",
          "name": "",
          "type": "string"
        }
      ],
      "stateMutability": "view",
      "type": "function"
    },
    {
      "inputs": [],
      "name": "tokenCounter",
      "outputs": [
        {
          "internalType": "uint256",
          "name": "",
          "type": "uint256"
        }
      ],
      "stateMutability": "view",
      "type": "function"
    },
    {
      "inputs": [
        {
          "internalType": "uint256",
          "name": "tokenId",
          "type": "uint256"
        }
      ],
      "name": "tokenURI",
      "outputs": [
        {
          "internalType": "string",
          "name": "",
          "type": "string"
        }
      ],
      "stateMutability": "view",
      "type": "function"
    },
    {
      "inputs": [
        {
          "internalType": "address",
          "name": "from",
          "type": "address"
        },
        {
          "internalType": "address",
          "name": "to",
          "type": "address"
        },
        {
          "internalType": "uint256",
          "name": "tokenId",
          "type": "uint256"
        }
      ],
      "name": "transferFrom",
      "outputs": [],
      "stateMutability": "nonpayable",
      "type": "function"
    },
    {
      "inputs": [
        {
          "internalType": "address",
          "name": "newOwner",
          "type": "address"
        }
      ],
      "name": "transferOwnership",
      "outputs": [],
      "stateMutability": "nonpayable",
      "type": "function"
    },
    {
      "inputs": [
        {
          "internalType": "string",
          "name": "_tokenURI",
          "type": "string"
        },
        {
          "internalType": "address[]",
          "name": "_collaborators",
          "type": "address[]"
        },
        {
          "internalType": "uint256[]",
          "name": "_shares",
          "type": "uint256[]"
        }
      ],
      "name": "uploadDesignWithCollaboration",
      "outputs": [],
      "stateMutability": "nonpayable",
      "type": "function"
    },
    {
      "inputs": [
        {
          "internalType": "address",
          "name": "",
          "type": "address"
        },
        {
          "internalType": "uint256",
          "name": "",
          "type": "uint256"
        }
      ],
      "name": "userOwnedDesigns",
      "outputs": [
        {
          "internalType": "uint256",
          "name": "",
          "type": "uint256"
        }
      ],
      "stateMutability": "view",
      "type": "function"
    },
    {
      "inputs": [
        {
          "internalType": "uint256",
          "name": "_tokenId",
          "type": "uint256"
        }
      ],
      "name": "viewCollaborators",
      "outputs": [
        {
          "internalType": "address[]",
          "name": "",
          "type": "address[]"
        },
        {
          "internalType": "uint256[]",
          "name": "",
          "type": "uint256[]"
        }
      ],
      "stateMutability": "view",
      "type": "function"
    }
  ],
  "bytecode": "0x60806040523480156200001157600080fd5b50336040518060400160405280600a81526020017f46617368696f6e4e4654000000000000000000000000000000000000000000008152506040518060400160405280600781526020017f46415348494f4e00000000000000000000000000000000000000000000000000815250816000908162000090919062000482565b508060019081620000a2919062000482565b505050600073ffffffffffffffffffffffffffffffffffffffff168173ffffffffffffffffffffffffffffffffffffffff16036200011a5760006040517f1e4fbdf7000000000000000000000000000000000000000000000000000000008152600401620001119190620005ae565b60405180910390fd5b6200012b816200014260201b60201c565b5060016008819055506001600e81905550620005cb565b6000600760009054906101000a900473ffffffffffffffffffffffffffffffffffffffff16905081600760006101000a81548173ffffffffffffffffffffffffffffffffffffffff021916908373ffffffffffffffffffffffffffffffffffffffff1602179055508173ffffffffffffffffffffffffffffffffffffffff168173ffffffffffffffffffffffffffffffffffffffff167f8be0079c531659141344cd1fd0a4f28419497f9722a3daafe3b4186f6b6457e060405160405180910390a35050565b600081519050919050565b7f4e487b7100000000000000000000000000000000000000000000000000000000600052604160045260246000fd5b7f4e487b7100000000000000000000000000000000000000000000000000000000600052602260045260246000fd5b600060028204905060018216806200028a57607f821691505b602082108103620002a0576200029f62000242565b5b50919050565b60008190508160005260206000209050919050565b60006020601f8301049050919050565b600082821b905092915050565b6000600883026200030a7fffffffffffffffffffffffffffffffffffffffffffffffffffffffffffffffff82620002cb565b620003168683620002cb565b95508019841693508086168417925050509392505050565b6000819050919050565b6000819050919050565b6000620003636200035d62000357846200032e565b62000338565b6200032e565b9050919050565b6000819050919050565b6200037f8362000342565b620003976200038e826200036a565b848454620002d8565b825550505050565b600090565b620003ae6200039f565b620003bb81848462000374565b505050565b5b81811015620003e357620003d7600082620003a4565b600181019050620003c1565b5050565b601f8211156200043257620003fc81620002a6565b6200040784620002bb565b8101602085101562000417578190505b6200042f6200042685620002bb565b830182620003c0565b50505b505050565b600082821c905092915050565b6000620004576000198460080262000437565b1980831691505092915050565b600062000472838362000444565b9150826002028217905092915050565b6200048d8262000208565b67ffffffffffffffff811115620004a957620004a862000213565b5b620004b5825462000271565b620004c2828285620003e7565b600060209050601f831160018114620004fa5760008415620004e5578287015190505b620004f1858262000464565b86555062000561565b601f1984166200050a86620002a6565b60005b8281101562000534578489015182556001820191506020850194506020810190506200050d565b8683101562000554578489015162000550601f89168262000444565b8355505b6001600288020188555050505b505050505050565b600073ffffffffffffffffffffffffffffffffffffffff82169050919050565b6000620005968262000569565b9050919050565b620005a88162000589565b82525050565b6000602082019050620005c560008301846200059d565b92915050565b615e0880620005db6000396000f3fe6080604052600436106101f95760003560e01c80637a332b951161010d578063a22cb465116100a0578063d082e3811161006f578063d082e3811461078b578063e431fc98146107b6578063e985e9c5146107df578063ebdc7c831461081c578063f2fde38b14610847576101f9565b8063a22cb465146106bf578063b88d4fde146106e8578063c86cbb4314610711578063c87b56dd1461074e576101f9565b806390ac11a3116100dc57806390ac11a3146105f857806395d89b411461063b57806396fd1f6f146106665780639c7aeb28146106a3576101f9565b80637a332b951461053d5780637a4ff7c9146105665780638da5cb5b1461058f578063904fd766146105ba576101f9565b806342842e0e116101905780635ef471711161015f5780635ef47171146104465780636352211e1461048357806370a08231146104c0578063715018a6146104fd578063778e8fe414610514576101f9565b806342842e0e1461039a5780634b254f68146103c3578063559e3b00146104015780635da1c1de1461042a576101f9565b8063095ea7b3116101cc578063095ea7b3146102e25780630d8d137d1461030b57806322eeeaf01461033457806323b872dd14610371576101f9565b806301ffc9a7146101fe578063069dab8f1461023b57806306fdde031461027a578063081812fc146102a5575b600080fd5b34801561020a57600080fd5b50610225600480360381019061022091906142a1565b610870565b60405161023291906142e9565b60405180910390f35b34801561024757600080fd5b50610262600480360381019061025d9190614362565b6108d1565b6040516102719392919061441f565b60405180910390f35b34801561028657600080fd5b5061028f610a18565b60405161029c9190614464565b60405180910390f35b3480156102b157600080fd5b506102cc60048036038101906102c791906144bc565b610aaa565b6040516102d991906144f8565b60405180910390f35b3480156102ee57600080fd5b5061030960048036038101906103049190614513565b610ac6565b005b34801561031757600080fd5b50610332600480360381019061032d9190614813565b610adc565b005b34801561034057600080fd5b5061035b60048036038101906103569190614513565b610d40565b60405161036891906148c9565b60405180910390f35b34801561037d57600080fd5b50610398600480360381019061039391906148e4565b610d71565b005b3480156103a657600080fd5b506103c160048036038101906103bc91906148e4565b610e73565b005b3480156103cf57600080fd5b506103ea60048036038101906103e591906144bc565b610e93565b6040516103f8929190614937565b60405180910390f35b34801561040d57600080fd5b5061042860048036038101906104239190614967565b610f3f565b005b610444600480360381019061043f91906144bc565b6110cd565b005b34801561045257600080fd5b5061046d600480360381019061046891906149df565b61152b565b60405161047a9190614464565b60405180910390f35b34801561048f57600080fd5b506104aa60048036038101906104a591906144bc565b6115e4565b6040516104b791906144f8565b60405180910390f35b3480156104cc57600080fd5b506104e760048036038101906104e29190614362565b6115f6565b6040516104f491906148c9565b60405180910390f35b34801561050957600080fd5b506105126116b0565b005b34801561052057600080fd5b5061053b60048036038101906105369190614362565b6116c4565b005b34801561054957600080fd5b50610564600480360381019061055f91906144bc565b6118ba565b005b34801561057257600080fd5b5061058d60048036038101906105889190614a1f565b611988565b005b34801561059b57600080fd5b506105a4611e12565b6040516105b191906144f8565b60405180910390f35b3480156105c657600080fd5b506105e160048036038101906105dc91906144bc565b611e3c565b6040516105ef929190614c56565b60405180910390f35b34801561060457600080fd5b5061061f600480360381019061061a91906144bc565b61203e565b6040516106329796959493929190614c8d565b60405180910390f35b34801561064757600080fd5b50610650612238565b60405161065d9190614464565b60405180910390f35b34801561067257600080fd5b5061068d60048036038101906106889190614513565b6122ca565b60405161069a91906148c9565b60405180910390f35b6106bd60048036038101906106b891906144bc565b6122fb565b005b3480156106cb57600080fd5b506106e660048036038101906106e19190614d3d565b612845565b005b3480156106f457600080fd5b5061070f600480360381019061070a9190614e1e565b61285b565b005b34801561071d57600080fd5b5061073860048036038101906107339190614ea1565b612880565b60405161074591906142e9565b60405180910390f35b34801561075a57600080fd5b50610775600480360381019061077091906144bc565b61299f565b6040516107829190614464565b60405180910390f35b34801561079757600080fd5b506107a0612ab2565b6040516107ad91906148c9565b60405180910390f35b3480156107c257600080fd5b506107dd60048036038101906107d89190614ee1565b612ab8565b005b3480156107eb57600080fd5b5061080660048036038101906108019190614ea1565b612bd7565b60405161081391906142e9565b60405180910390f35b34801561082857600080fd5b50610831612c6b565b60405161083e91906148c9565b60405180910390f35b34801561085357600080fd5b5061086e60048036038101906108699190614362565b612c71565b005b6000634906490660e01b7bffffffffffffffffffffffffffffffffffffffffffffffffffffffff1916827bffffffffffffffffffffffffffffffffffffffffffffffffffffffff191614806108ca57506108c982612cf7565b5b9050919050565b60096020528060005260406000206000915090508060000180546108f490614f6c565b80601f016020809104026020016040519081016040528092919081815260200182805461092090614f6c565b801561096d5780601f106109425761010080835404028352916020019161096d565b820191906000526020600020905b81548152906001019060200180831161095057829003601f168201915b50505050509080600101805461098290614f6c565b80601f01602080910402602001604051908101604052809291908181526020018280546109ae90614f6c565b80156109fb5780601f106109d0576101008083540402835291602001916109fb565b820191906000526020600020905b8154815290600101906020018083116109de57829003601f168201915b5050505050908060020160009054906101000a900460ff16905083565b606060008054610a2790614f6c565b80601f0160208091040260200160405190810160405280929190818152602001828054610a5390614f6c565b8015610aa05780601f10610a7557610100808354040283529160200191610aa0565b820191906000526020600020905b815481529060010190602001808311610a8357829003601f168201915b5050505050905090565b6000610ab582612dd9565b50610abf82612e61565b9050919050565b610ad88282610ad3612e9e565b612ea6565b5050565b600960003373ffffffffffffffffffffffffffffffffffffffff1673ffffffffffffffffffffffffffffffffffffffff16815260200190815260200160002060020160009054906101000a900460ff16610b6b576040517f08c379a0000000000000000000000000000000000000000000000000000000008152600401610b6290614fe9565b60405180910390fd5b8051825114610baf576040517f08c379a0000000000000000000000000000000000000000000000000000000008152600401610ba69061507b565b60405180910390fd5b6000805b8251811015610bf757828181518110610bcf57610bce61509b565b5b602002602001015182610be291906150f9565b91508080610bef9061512d565b915050610bb3565b5060648114610c3b576040517f08c379a0000000000000000000000000000000000000000000000000000000008152600401610c32906151c1565b60405180910390fd5b6000600e549050610c4c3382612eb8565b610c568186612fb1565b604051806080016040528082815260200186815260200185815260200184815250600f6000838152602001908152602001600020600082015181600001556020820151816001019081610ca9919061538d565b506040820151816002019080519060200190610cc6929190614141565b506060820151816003019080519060200190610ce39291906141cb565b50905050600e6000815480929190610cfa9061512d565b9190505550807f5ab595516f7177802523bb2d9f9c0569c26ec844a9e05862c8ece02b7eb530eb8585604051610d31929190614c56565b60405180910390a25050505050565b600d6020528160005260406000208181548110610d5c57600080fd5b90600052602060002001600091509150505481565b600073ffffffffffffffffffffffffffffffffffffffff168273ffffffffffffffffffffffffffffffffffffffff1603610de35760006040517f64a0ae92000000000000000000000000000000000000000000000000000000008152600401610dda91906144f8565b60405180910390fd5b6000610df78383610df2612e9e565b61300d565b90508373ffffffffffffffffffffffffffffffffffffffff168173ffffffffffffffffffffffffffffffffffffffff1614610e6d578382826040517f64283d7b000000000000000000000000000000000000000000000000000000008152600401610e649392919061545f565b60405180910390fd5b50505050565b610e8e8383836040518060200160405280600081525061285b565b505050565b600f602052806000526040600020600091509050806000015490806001018054610ebc90614f6c565b80601f0160208091040260200160405190810160405280929190818152602001828054610ee890614f6c565b8015610f355780601f10610f0a57610100808354040283529160200191610f35565b820191906000526020600020905b815481529060010190602001808311610f1857829003601f168201915b5050505050905082565b600960003373ffffffffffffffffffffffffffffffffffffffff1673ffffffffffffffffffffffffffffffffffffffff16815260200190815260200160002060020160009054906101000a900460ff1615610fcf576040517f08c379a0000000000000000000000000000000000000000000000000000000008152600401610fc6906154e2565b60405180910390fd5b604051806060016040528083815260200182815260200160011515815250600960003373ffffffffffffffffffffffffffffffffffffffff1673ffffffffffffffffffffffffffffffffffffffff1681526020019081526020016000206000820151816000019081611041919061538d565b506020820151816001019081611057919061538d565b5060408201518160020160006101000a81548160ff0219169083151502179055509050503373ffffffffffffffffffffffffffffffffffffffff167fd4fd8fd455c3fdfe36126d7de16d1f208385873ff3250ddf3bc9b833ba2b7e35836040516110c19190614464565b60405180910390a25050565b6000600a60008381526020019081526020016000206040518060e00160405290816000820154815260200160018201805461110790614f6c565b80601f016020809104026020016040519081016040528092919081815260200182805461113390614f6c565b80156111805780601f1061115557610100808354040283529160200191611180565b820191906000526020600020905b81548152906001019060200180831161116357829003601f168201915b505050505081526020016002820160009054906101000a900473ffffffffffffffffffffffffffffffffffffffff1673ffffffffffffffffffffffffffffffffffffffff1673ffffffffffffffffffffffffffffffffffffffff1681526020016003820180546111ef90614f6c565b80601f016020809104026020016040519081016040528092919081815260200182805461121b90614f6c565b80156112685780601f1061123d57610100808354040283529160200191611268565b820191906000526020600020905b81548152906001019060200180831161124b57829003601f168201915b5050505050815260200160048201805461128190614f6c565b80601f01602080910402602001604051908101604052809291908181526020018280546112ad90614f6c565b80156112fa5780601f106112cf576101008083540402835291602001916112fa565b820191906000526020600020905b8154815290600101906020018083116112dd57829003601f168201915b505050505081526020016005820154815260200160068201548152505090506000816000015103611360576040517f08c379a00000000000000000000000000000000000000000000000000000000081526004016113579061554e565b60405180910390fd5b806040015173ffffffffffffffffffffffffffffffffffffffff163373ffffffffffffffffffffffffffffffffffffffff16036113d2576040517f08c379a00000000000000000000000000000000000000000000000000000000081526004016113c9906155e0565b60405180910390fd5b8060a00151341015611419576040517f08c379a00000000000000000000000000000000000000000000000000000000081526004016114109061564c565b60405180910390fd5b6000816040015190508073ffffffffffffffffffffffffffffffffffffffff166108fc349081150290604051600060405180830381858888f19350505050158015611468573d6000803e3d6000fd5b5061147c611475846115e4565b3385613227565b600b60003373ffffffffffffffffffffffffffffffffffffffff1673ffffffffffffffffffffffffffffffffffffffff1681526020019081526020016000208390806001815401808255809150506001900390600052602060002001600090919091909150553373ffffffffffffffffffffffffffffffffffffffff16837f015d09dfcd024446daddf454800a085be52caf28e84b51fe76854f5a833a1a7e60405160405180910390a3505050565b600c602052816000526040600020818154811061154757600080fd5b9060005260206000200160009150915050805461156390614f6c565b80601f016020809104026020016040519081016040528092919081815260200182805461158f90614f6c565b80156115dc5780601f106115b1576101008083540402835291602001916115dc565b820191906000526020600020905b8154815290600101906020018083116115bf57829003601f168201915b505050505081565b60006115ef82612dd9565b9050919050565b60008073ffffffffffffffffffffffffffffffffffffffff168273ffffffffffffffffffffffffffffffffffffffff16036116695760006040517f89c62b6400000000000000000000000000000000000000000000000000000000815260040161166091906144f8565b60405180910390fd5b600360008373ffffffffffffffffffffffffffffffffffffffff1673ffffffffffffffffffffffffffffffffffffffff168152602001908152602001600020549050919050565b6116b8613394565b6116c2600061341b565b565b600960008273ffffffffffffffffffffffffffffffffffffffff1673ffffffffffffffffffffffffffffffffffffffff16815260200190815260200160002060020160009054906101000a900460ff16611753576040517f08c379a000000000000000000000000000000000000000000000000000000000815260040161174a906156b8565b60405180910390fd5b600073ffffffffffffffffffffffffffffffffffffffff163373ffffffffffffffffffffffffffffffffffffffff16036117c2576040517f08c379a00000000000000000000000000000000000000000000000000000000081526004016117b990615724565b60405180910390fd5b600060085490506117d33382612eb8565b600d60008373ffffffffffffffffffffffffffffffffffffffff1673ffffffffffffffffffffffffffffffffffffffff1681526020019081526020016000208190806001815401808255809150506001900390600052602060002001600090919091909150556008600081548092919061184c9061512d565b91905055503373ffffffffffffffffffffffffffffffffffffffff168273ffffffffffffffffffffffffffffffffffffffff167fdd0a22f894b6ae25a82db4ff76f56b360523afdf8ee72eb57fee5a4540f2cc68836040516118ae91906148c9565b60405180910390a35050565b6000600a60008381526020019081526020016000206000015403611913576040517f08c379a000000000000000000000000000000000000000000000000000000000815260040161190a9061554e565b60405180910390fd5b6001600a6000838152602001908152602001600020600601600082825461193a91906150f9565b925050819055503373ffffffffffffffffffffffffffffffffffffffff16817fc6634ab7aeee3cff2c8c91ba52bd7636869c494bee1329ea21d9ab7c9e3affaa60405160405180910390a350565b600960003373ffffffffffffffffffffffffffffffffffffffff1673ffffffffffffffffffffffffffffffffffffffff16815260200190815260200160002060020160009054906101000a900460ff16611a17576040517f08c379a0000000000000000000000000000000000000000000000000000000008152600401611a0e90614fe9565b60405180910390fd5b604051602001611a269061579b565b6040516020818303038152906040528051906020012083604051602001611a4d91906157e1565b604051602081830303815290604052805190602001201480611ab85750604051602001611a7990615844565b6040516020818303038152906040528051906020012083604051602001611aa091906157e1565b60405160208183030381529060405280519060200120145b611af7576040517f08c379a0000000000000000000000000000000000000000000000000000000008152600401611aee906158a5565b60405180910390fd5b604051602001611b0690615911565b6040516020818303038152906040528051906020012082604051602001611b2d91906157e1565b604051602081830303815290604052805190602001201480611b985750604051602001611b5990615972565b6040516020818303038152906040528051906020012082604051602001611b8091906157e1565b60405160208183030381529060405280519060200120145b611bd7576040517f08c379a0000000000000000000000000000000000000000000000000000000008152600401611bce906159d3565b60405180910390fd5b60008111611c1a576040517f08c379a0000000000000000000000000000000000000000000000000000000008152600401611c1190615a3f565b60405180910390fd5b60006008549050611c2b3382612eb8565b611c358186612fb1565b6040518060e001604052808281526020018681526020013373ffffffffffffffffffffffffffffffffffffffff1681526020018581526020018481526020018381526020016000815250600a6000838152602001908152602001600020600082015181600001556020820151816001019081611cb1919061538d565b5060408201518160020160006101000a81548173ffffffffffffffffffffffffffffffffffffffff021916908373ffffffffffffffffffffffffffffffffffffffff1602179055506060820151816003019081611d0e919061538d565b506080820151816004019081611d24919061538d565b5060a0820151816005015560c08201518160060155905050600b60003373ffffffffffffffffffffffffffffffffffffffff1673ffffffffffffffffffffffffffffffffffffffff16815260200190815260200160002081908060018154018082558091505060019003906000526020600020016000909190919091505560086000815480929190611db59061512d565b91905055503373ffffffffffffffffffffffffffffffffffffffff16817f2d3e4bf750865a23ba11ab0b1a891d174f35ebdd0e266948f302f38bdea7ba2f8686604051611e03929190615a5f565b60405180910390a35050505050565b6000600760009054906101000a900473ffffffffffffffffffffffffffffffffffffffff16905090565b6060806000600f600085815260200190815260200160002060405180608001604052908160008201548152602001600182018054611e7990614f6c565b80601f0160208091040260200160405190810160405280929190818152602001828054611ea590614f6c565b8015611ef25780601f10611ec757610100808354040283529160200191611ef2565b820191906000526020600020905b815481529060010190602001808311611ed557829003601f168201915b5050505050815260200160028201805480602002602001604051908101604052809291908181526020018280548015611f8057602002820191906000526020600020905b8160009054906101000a900473ffffffffffffffffffffffffffffffffffffffff1673ffffffffffffffffffffffffffffffffffffffff1681526020019060010190808311611f36575b5050505050815260200160038201805480602002602001604051908101604052809291908181526020018280548015611fd857602002820191906000526020600020905b815481526020019060010190808311611fc4575b5050505050815250509050600081600001510361202a576040517f08c379a000000000000000000000000000000000000000000000000000000000815260040161202190615b08565b60405180910390fd5b806040015181606001519250925050915091565b600a60205280600052604060002060009150905080600001549080600101805461206790614f6c565b80601f016020809104026020016040519081016040528092919081815260200182805461209390614f6c565b80156120e05780601f106120b5576101008083540402835291602001916120e0565b820191906000526020600020905b8154815290600101906020018083116120c357829003601f168201915b5050505050908060020160009054906101000a900473ffffffffffffffffffffffffffffffffffffffff169080600301805461211b90614f6c565b80601f016020809104026020016040519081016040528092919081815260200182805461214790614f6c565b80156121945780601f1061216957610100808354040283529160200191612194565b820191906000526020600020905b81548152906001019060200180831161217757829003601f168201915b5050505050908060040180546121a990614f6c565b80601f01602080910402602001604051908101604052809291908181526020018280546121d590614f6c565b80156122225780601f106121f757610100808354040283529160200191612222565b820191906000526020600020905b81548152906001019060200180831161220557829003601f168201915b5050505050908060050154908060060154905087565b60606001805461224790614f6c565b80601f016020809104026020016040519081016040528092919081815260200182805461227390614f6c565b80156122c05780601f10612295576101008083540402835291602001916122c0565b820191906000526020600020905b8154815290600101906020018083116122a357829003601f168201915b5050505050905090565b600b60205281600052604060002081815481106122e657600080fd5b90600052602060002001600091509150505481565b6000600f60008381526020019081526020016000206040518060800160405290816000820154815260200160018201805461233590614f6c565b80601f016020809104026020016040519081016040528092919081815260200182805461236190614f6c565b80156123ae5780601f10612383576101008083540402835291602001916123ae565b820191906000526020600020905b81548152906001019060200180831161239157829003601f168201915b505050505081526020016002820180548060200260200160405190810160405280929190818152602001828054801561243c57602002820191906000526020600020905b8160009054906101000a900473ffffffffffffffffffffffffffffffffffffffff1673ffffffffffffffffffffffffffffffffffffffff16815260200190600101908083116123f2575b505050505081526020016003820180548060200260200160405190810160405280929190818152602001828054801561249457602002820191906000526020600020905b815481526020019060010190808311612480575b505050505081525050905060008160000151036124e6576040517f08c379a00000000000000000000000000000000000000000000000000000000081526004016124dd90615b74565b60405180910390fd5b6000600a60008481526020019081526020016000206040518060e00160405290816000820154815260200160018201805461252090614f6c565b80601f016020809104026020016040519081016040528092919081815260200182805461254c90614f6c565b80156125995780601f1061256e57610100808354040283529160200191612599565b820191906000526020600020905b81548152906001019060200180831161257c57829003601f168201915b505050505081526020016002820160009054906101000a900473ffffffffffffffffffffffffffffffffffffffff1673ffffffffffffffffffffffffffffffffffffffff1673ffffffffffffffffffffffffffffffffffffffff16815260200160038201805461260890614f6c565b80601f016020809104026020016040519081016040528092919081815260200182805461263490614f6c565b80156126815780601f1061265657610100808354040283529160200191612681565b820191906000526020600020905b81548152906001019060200180831161266457829003601f168201915b5050505050815260200160048201805461269a90614f6c565b80601f01602080910402602001604051908101604052809291908181526020018280546126c690614f6c565b80156127135780601f106126e857610100808354040283529160200191612713565b820191906000526020600020905b8154815290600101906020018083116126f657829003601f168201915b505050505081526020016005820154815260200160068201548152505090508060a00151341015612779576040517f08c379a00000000000000000000000000000000000000000000000000000000081526004016127709061564c565b60405180910390fd5b61278383346134e1565b61279661278f846115e4565b3385613227565b600b60003373ffffffffffffffffffffffffffffffffffffffff1673ffffffffffffffffffffffffffffffffffffffff1681526020019081526020016000208390806001815401808255809150506001900390600052602060002001600090919091909150553373ffffffffffffffffffffffffffffffffffffffff16837f015d09dfcd024446daddf454800a085be52caf28e84b51fe76854f5a833a1a7e60405160405180910390a3505050565b612857612850612e9e565b838361378f565b5050565b612866848484610d71565b61287a612871612e9e565b858585856138fe565b50505050565b600080600d60008573ffffffffffffffffffffffffffffffffffffffff1673ffffffffffffffffffffffffffffffffffffffff16815260200190815260200160002080548060200260200160405190810160405280929190818152602001828054801561290c57602002820191906000526020600020905b8154815260200190600101908083116128f8575b5050505050905060005b8151811015612992578373ffffffffffffffffffffffffffffffffffffffff1661295983838151811061294c5761294b61509b565b5b60200260200101516115e4565b73ffffffffffffffffffffffffffffffffffffffff160361297f57600192505050612999565b808061298a9061512d565b915050612916565b5060009150505b92915050565b60606129aa82612dd9565b5060006006600084815260200190815260200160002080546129cb90614f6c565b80601f01602080910402602001604051908101604052809291908181526020018280546129f790614f6c565b8015612a445780601f10612a1957610100808354040283529160200191612a44565b820191906000526020600020905b815481529060010190602001808311612a2757829003601f168201915b505050505090506000612a55613aaf565b90506000815103612a6a578192505050612aad565b600082511115612a9f578082604051602001612a87929190615b94565b60405160208183030381529060405292505050612aad565b612aa884613ac6565b925050505b919050565b60085481565b6000600a60008481526020019081526020016000206000015403612b11576040517f08c379a0000000000000000000000000000000000000000000000000000000008152600401612b089061554e565b60405180910390fd5b6000815111612b55576040517f08c379a0000000000000000000000000000000000000000000000000000000008152600401612b4c90615c04565b60405180910390fd5b600c600083815260200190815260200160002081908060018154018082558091505060019003906000526020600020016000909190919091509081612b9a919061538d565b50817f280cdacab590a3abc1d512498a9998ca3748e76ae92a1fb0924b42e1b533372f82604051612bcb9190614464565b60405180910390a25050565b6000600560008473ffffffffffffffffffffffffffffffffffffffff1673ffffffffffffffffffffffffffffffffffffffff16815260200190815260200160002060008373ffffffffffffffffffffffffffffffffffffffff1673ffffffffffffffffffffffffffffffffffffffff16815260200190815260200160002060009054906101000a900460ff16905092915050565b600e5481565b612c79613394565b600073ffffffffffffffffffffffffffffffffffffffff168173ffffffffffffffffffffffffffffffffffffffff1603612ceb5760006040517f1e4fbdf7000000000000000000000000000000000000000000000000000000008152600401612ce291906144f8565b60405180910390fd5b612cf48161341b565b50565b60007f80ac58cd000000000000000000000000000000000000000000000000000000007bffffffffffffffffffffffffffffffffffffffffffffffffffffffff1916827bffffffffffffffffffffffffffffffffffffffffffffffffffffffff19161480612dc257507f5b5e139f000000000000000000000000000000000000000000000000000000007bffffffffffffffffffffffffffffffffffffffffffffffffffffffff1916827bffffffffffffffffffffffffffffffffffffffffffffffffffffffff1916145b80612dd25750612dd182613b2f565b5b9050919050565b600080612de583613b99565b9050600073ffffffffffffffffffffffffffffffffffffffff168173ffffffffffffffffffffffffffffffffffffffff1603612e5857826040517f7e273289000000000000000000000000000000000000000000000000000000008152600401612e4f91906148c9565b60405180910390fd5b80915050919050565b60006004600083815260200190815260200160002060009054906101000a900473ffffffffffffffffffffffffffffffffffffffff169050919050565b600033905090565b612eb38383836001613bd6565b505050565b600073ffffffffffffffffffffffffffffffffffffffff168273ffffffffffffffffffffffffffffffffffffffff1603612f2a5760006040517f64a0ae92000000000000000000000000000000000000000000000000000000008152600401612f2191906144f8565b60405180910390fd5b6000612f388383600061300d565b9050600073ffffffffffffffffffffffffffffffffffffffff168173ffffffffffffffffffffffffffffffffffffffff1614612fac5760006040517f73c6ac6e000000000000000000000000000000000000000000000000000000008152600401612fa391906144f8565b60405180910390fd5b505050565b80600660008481526020019081526020016000209081612fd1919061538d565b507ff8e1a15aba9398e019f0b49df1a4fde98ee17ae345cb5f6b5e2c27f5033e8ce78260405161300191906148c9565b60405180910390a15050565b60008061301984613b99565b9050600073ffffffffffffffffffffffffffffffffffffffff168373ffffffffffffffffffffffffffffffffffffffff161461305b5761305a818486613d9b565b5b600073ffffffffffffffffffffffffffffffffffffffff168173ffffffffffffffffffffffffffffffffffffffff16146130ec5761309d600085600080613bd6565b6001600360008373ffffffffffffffffffffffffffffffffffffffff1673ffffffffffffffffffffffffffffffffffffffff168152602001908152602001600020600082825403925050819055505b600073ffffffffffffffffffffffffffffffffffffffff168573ffffffffffffffffffffffffffffffffffffffff161461316f576001600360008773ffffffffffffffffffffffffffffffffffffffff1673ffffffffffffffffffffffffffffffffffffffff168152602001908152602001600020600082825401925050819055505b846002600086815260200190815260200160002060006101000a81548173ffffffffffffffffffffffffffffffffffffffff021916908373ffffffffffffffffffffffffffffffffffffffff160217905550838573ffffffffffffffffffffffffffffffffffffffff168273ffffffffffffffffffffffffffffffffffffffff167fddf252ad1be2c89b69c2b068fc378daa952ba7f163c4a11628f55a4df523b3ef60405160405180910390a4809150509392505050565b600073ffffffffffffffffffffffffffffffffffffffff168273ffffffffffffffffffffffffffffffffffffffff16036132995760006040517f64a0ae9200000000000000000000000000000000000000000000000000000000815260040161329091906144f8565b60405180910390fd5b60006132a78383600061300d565b9050600073ffffffffffffffffffffffffffffffffffffffff168173ffffffffffffffffffffffffffffffffffffffff160361331a57816040517f7e27328900000000000000000000000000000000000000000000000000000000815260040161331191906148c9565b60405180910390fd5b8373ffffffffffffffffffffffffffffffffffffffff168173ffffffffffffffffffffffffffffffffffffffff161461338e578382826040517f64283d7b0000000000000000000000000000000000000000000000000000000081526004016133859392919061545f565b60405180910390fd5b50505050565b61339c612e9e565b73ffffffffffffffffffffffffffffffffffffffff166133ba611e12565b73ffffffffffffffffffffffffffffffffffffffff1614613419576133dd612e9e565b6040517f118cdaa700000000000000000000000000000000000000000000000000000000815260040161341091906144f8565b60405180910390fd5b565b6000600760009054906101000a900473ffffffffffffffffffffffffffffffffffffffff16905081600760006101000a81548173ffffffffffffffffffffffffffffffffffffffff021916908373ffffffffffffffffffffffffffffffffffffffff1602179055508173ffffffffffffffffffffffffffffffffffffffff168173ffffffffffffffffffffffffffffffffffffffff167f8be0079c531659141344cd1fd0a4f28419497f9722a3daafe3b4186f6b6457e060405160405180910390a35050565b6000600f60008481526020019081526020016000206040518060800160405290816000820154815260200160018201805461351b90614f6c565b80601f016020809104026020016040519081016040528092919081815260200182805461354790614f6c565b80156135945780601f1061356957610100808354040283529160200191613594565b820191906000526020600020905b81548152906001019060200180831161357757829003601f168201915b505050505081526020016002820180548060200260200160405190810160405280929190818152602001828054801561362257602002820191906000526020600020905b8160009054906101000a900473ffffffffffffffffffffffffffffffffffffffff1673ffffffffffffffffffffffffffffffffffffffff16815260200190600101908083116135d8575b505050505081526020016003820180548060200260200160405190810160405280929190818152602001828054801561367a57602002820191906000526020600020905b815481526020019060010190808311613666575b505050505081525050905060008160000151036136cc576040517f08c379a00000000000000000000000000000000000000000000000000000000081526004016136c390615b08565b60405180910390fd5b60005b81604001515181101561378957816040015181815181106136f3576136f261509b565b5b602002602001015173ffffffffffffffffffffffffffffffffffffffff166108fc60648460600151848151811061372d5761372c61509b565b5b6020026020010151866137409190615c24565b61374a9190615c95565b9081150290604051600060405180830381858888f19350505050158015613775573d6000803e3d6000fd5b5080806137819061512d565b9150506136cf565b50505050565b600073ffffffffffffffffffffffffffffffffffffffff168273ffffffffffffffffffffffffffffffffffffffff160361380057816040517f5b08ba180000000000000000000000000000000000000000000000000000000081526004016137f791906144f8565b60405180910390fd5b80600560008573ffffffffffffffffffffffffffffffffffffffff1673ffffffffffffffffffffffffffffffffffffffff16815260200190815260200160002060008473ffffffffffffffffffffffffffffffffffffffff1673ffffffffffffffffffffffffffffffffffffffff16815260200190815260200160002060006101000a81548160ff0219169083151502179055508173ffffffffffffffffffffffffffffffffffffffff168373ffffffffffffffffffffffffffffffffffffffff167f17307eab39ab6107e8899845ad3d59bd9653f200f220920489ca2b5937696c31836040516138f191906142e9565b60405180910390a3505050565b60008373ffffffffffffffffffffffffffffffffffffffff163b1115613aa8578273ffffffffffffffffffffffffffffffffffffffff1663150b7a02868685856040518563ffffffff1660e01b815260040161395d9493929190615d1b565b6020604051808303816000875af192505050801561399957506040513d601f19601f820116820180604052508101906139969190615d7c565b60015b613a1d573d80600081146139c9576040519150601f19603f3d011682016040523d82523d6000602084013e6139ce565b606091505b506000815103613a1557836040517f64a0ae92000000000000000000000000000000000000000000000000000000008152600401613a0c91906144f8565b60405180910390fd5b805181602001fd5b63150b7a0260e01b7bffffffffffffffffffffffffffffffffffffffffffffffffffffffff1916817bffffffffffffffffffffffffffffffffffffffffffffffffffffffff191614613aa657836040517f64a0ae92000000000000000000000000000000000000000000000000000000008152600401613a9d91906144f8565b60405180910390fd5b505b5050505050565b606060405180602001604052806000815250905090565b6060613ad182612dd9565b506000613adc613aaf565b90506000815111613afc5760405180602001604052806000815250613b27565b80613b0684613e5f565b604051602001613b17929190615b94565b6040516020818303038152906040525b915050919050565b60007f01ffc9a7000000000000000000000000000000000000000000000000000000007bffffffffffffffffffffffffffffffffffffffffffffffffffffffff1916827bffffffffffffffffffffffffffffffffffffffffffffffffffffffff1916149050919050565b60006002600083815260200190815260200160002060009054906101000a900473ffffffffffffffffffffffffffffffffffffffff169050919050565b8080613c0f5750600073ffffffffffffffffffffffffffffffffffffffff168273ffffffffffffffffffffffffffffffffffffffff1614155b15613d43576000613c1f84612dd9565b9050600073ffffffffffffffffffffffffffffffffffffffff168373ffffffffffffffffffffffffffffffffffffffff1614158015613c8a57508273ffffffffffffffffffffffffffffffffffffffff168173ffffffffffffffffffffffffffffffffffffffff1614155b8015613c9d5750613c9b8184612bd7565b155b15613cdf57826040517fa9fbf51f000000000000000000000000000000000000000000000000000000008152600401613cd691906144f8565b60405180910390fd5b8115613d4157838573ffffffffffffffffffffffffffffffffffffffff168273ffffffffffffffffffffffffffffffffffffffff167f8c5be1e5ebec7d5bd14f71427d1e84f3dd0314c0f7b2291e5b200ac8c7c3b92560405160405180910390a45b505b836004600085815260200190815260200160002060006101000a81548173ffffffffffffffffffffffffffffffffffffffff021916908373ffffffffffffffffffffffffffffffffffffffff16021790555050505050565b613da6838383613f2d565b613e5a57600073ffffffffffffffffffffffffffffffffffffffff168373ffffffffffffffffffffffffffffffffffffffff1603613e1b57806040517f7e273289000000000000000000000000000000000000000000000000000000008152600401613e1291906148c9565b60405180910390fd5b81816040517f177e802f000000000000000000000000000000000000000000000000000000008152600401613e51929190615da9565b60405180910390fd5b505050565b606060006001613e6e84613fee565b01905060008167ffffffffffffffff811115613e8d57613e8c61455d565b5b6040519080825280601f01601f191660200182016040528015613ebf5781602001600182028036833780820191505090505b509050600082602001820190505b600115613f22578080600190039150507f3031323334353637383961626364656600000000000000000000000000000000600a86061a8153600a8581613f1657613f15615c66565b5b04945060008503613ecd575b819350505050919050565b60008073ffffffffffffffffffffffffffffffffffffffff168373ffffffffffffffffffffffffffffffffffffffff1614158015613fe557508273ffffffffffffffffffffffffffffffffffffffff168473ffffffffffffffffffffffffffffffffffffffff161480613fa65750613fa58484612bd7565b5b80613fe457508273ffffffffffffffffffffffffffffffffffffffff16613fcc83612e61565b73ffffffffffffffffffffffffffffffffffffffff16145b5b90509392505050565b600080600090507a184f03e93ff9f4daa797ed6e38ed64bf6a1f010000000000000000831061404c577a184f03e93ff9f4daa797ed6e38ed64bf6a1f010000000000000000838161404257614041615c66565b5b0492506040810190505b6d04ee2d6d415b85acef81000000008310614089576d04ee2d6d415b85acef8100000000838161407f5761407e615c66565b5b0492506020810190505b662386f26fc1000083106140b857662386f26fc1000083816140ae576140ad615c66565b5b0492506010810190505b6305f5e10083106140e1576305f5e10083816140d7576140d6615c66565b5b0492506008810190505b61271083106141065761271083816140fc576140fb615c66565b5b0492506004810190505b60648310614129576064838161411f5761411e615c66565b5b0492506002810190505b600a8310614138576001810190505b80915050919050565b8280548282559060005260206000209081019282156141ba579160200282015b828111156141b95782518260006101000a81548173ffffffffffffffffffffffffffffffffffffffff021916908373ffffffffffffffffffffffffffffffffffffffff16021790555091602001919060010190614161565b5b5090506141c79190614218565b5090565b828054828255906000526020600020908101928215614207579160200282015b828111156142065782518255916020019190600101906141eb565b5b5090506142149190614218565b5090565b5b80821115614231576000816000905550600101614219565b5090565b6000604051905090565b600080fd5b600080fd5b60007fffffffff0000000000000000000000000000000000000000000000000000000082169050919050565b61427e81614249565b811461428957600080fd5b50565b60008135905061429b81614275565b92915050565b6000602082840312156142b7576142b661423f565b5b60006142c58482850161428c565b91505092915050565b60008115159050919050565b6142e3816142ce565b82525050565b60006020820190506142fe60008301846142da565b92915050565b600073ffffffffffffffffffffffffffffffffffffffff82169050919050565b600061432f82614304565b9050919050565b61433f81614324565b811461434a57600080fd5b50565b60008135905061435c81614336565b92915050565b6000602082840312156143785761437761423f565b5b60006143868482850161434d565b91505092915050565b600081519050919050565b600082825260208201905092915050565b60005b838110156143c95780820151818401526020810190506143ae565b60008484015250505050565b6000601f19601f8301169050919050565b60006143f18261438f565b6143fb818561439a565b935061440b8185602086016143ab565b614414816143d5565b840191505092915050565b6000606082019050818103600083015261443981866143e6565b9050818103602083015261444d81856143e6565b905061445c60408301846142da565b949350505050565b6000602082019050818103600083015261447e81846143e6565b905092915050565b6000819050919050565b61449981614486565b81146144a457600080fd5b50565b6000813590506144b681614490565b92915050565b6000602082840312156144d2576144d161423f565b5b60006144e0848285016144a7565b91505092915050565b6144f281614324565b82525050565b600060208201905061450d60008301846144e9565b92915050565b6000806040838503121561452a5761452961423f565b5b60006145388582860161434d565b9250506020614549858286016144a7565b9150509250929050565b600080fd5b600080fd5b7f4e487b7100000000000000000000000000000000000000000000000000000000600052604160045260246000fd5b614595826143d5565b810181811067ffffffffffffffff821117156145b4576145b361455d565b5b80604052505050565b60006145c7614235565b90506145d3828261458c565b919050565b600067ffffffffffffffff8211156145f3576145f261455d565b5b6145fc826143d5565b9050602081019050919050565b82818337600083830152505050565b600061462b614626846145d8565b6145bd565b90508281526020810184848401111561464757614646614558565b5b614652848285614609565b509392505050565b600082601f83011261466f5761466e614553565b5b813561467f848260208601614618565b91505092915050565b600067ffffffffffffffff8211156146a3576146a261455d565b5b602082029050602081019050919050565b600080fd5b60006146cc6146c784614688565b6145bd565b905080838252602082019050602084028301858111156146ef576146ee6146b4565b5b835b818110156147185780614704888261434d565b8452602084019350506020810190506146f1565b5050509392505050565b600082601f83011261473757614736614553565b5b81356147478482602086016146b9565b91505092915050565b600067ffffffffffffffff82111561476b5761476a61455d565b5b602082029050602081019050919050565b600061478f61478a84614750565b6145bd565b905080838252602082019050602084028301858111156147b2576147b16146b4565b5b835b818110156147db57806147c788826144a7565b8452602084019350506020810190506147b4565b5050509392505050565b600082601f8301126147fa576147f9614553565b5b813561480a84826020860161477c565b91505092915050565b60008060006060848603121561482c5761482b61423f565b5b600084013567ffffffffffffffff81111561484a57614849614244565b5b6148568682870161465a565b935050602084013567ffffffffffffffff81111561487757614876614244565b5b61488386828701614722565b925050604084013567ffffffffffffffff8111156148a4576148a3614244565b5b6148b0868287016147e5565b9150509250925092565b6148c381614486565b82525050565b60006020820190506148de60008301846148ba565b92915050565b6000806000606084860312156148fd576148fc61423f565b5b600061490b8682870161434d565b935050602061491c8682870161434d565b925050604061492d868287016144a7565b9150509250925092565b600060408201905061494c60008301856148ba565b818103602083015261495e81846143e6565b90509392505050565b6000806040838503121561497e5761497d61423f565b5b600083013567ffffffffffffffff81111561499c5761499b614244565b5b6149a88582860161465a565b925050602083013567ffffffffffffffff8111156149c9576149c8614244565b5b6149d58582860161465a565b9150509250929050565b600080604083850312156149f6576149f561423f565b5b6000614a04858286016144a7565b9250506020614a15858286016144a7565b9150509250929050565b60008060008060808587031215614a3957614a3861423f565b5b600085013567ffffffffffffffff811115614a5757614a56614244565b5b614a638782880161465a565b945050602085013567ffffffffffffffff811115614a8457614a83614244565b5b614a908782880161465a565b935050604085013567ffffffffffffffff811115614ab157614ab0614244565b5b614abd8782880161465a565b9250506060614ace878288016144a7565b91505092959194509250565b600081519050919050565b600082825260208201905092915050565b6000819050602082019050919050565b614b0f81614324565b82525050565b6000614b218383614b06565b60208301905092915050565b6000602082019050919050565b6000614b4582614ada565b614b4f8185614ae5565b9350614b5a83614af6565b8060005b83811015614b8b578151614b728882614b15565b9750614b7d83614b2d565b925050600181019050614b5e565b5085935050505092915050565b600081519050919050565b600082825260208201905092915050565b6000819050602082019050919050565b614bcd81614486565b82525050565b6000614bdf8383614bc4565b60208301905092915050565b6000602082019050919050565b6000614c0382614b98565b614c0d8185614ba3565b9350614c1883614bb4565b8060005b83811015614c49578151614c308882614bd3565b9750614c3b83614beb565b925050600181019050614c1c565b5085935050505092915050565b60006040820190508181036000830152614c708185614b3a565b90508181036020830152614c848184614bf8565b90509392505050565b600060e082019050614ca2600083018a6148ba565b8181036020830152614cb481896143e6565b9050614cc360408301886144e9565b8181036060830152614cd581876143e6565b90508181036080830152614ce981866143e6565b9050614cf860a08301856148ba565b614d0560c08301846148ba565b98975050505050505050565b614d1a816142ce565b8114614d2557600080fd5b50565b600081359050614d3781614d11565b92915050565b60008060408385031215614d5457614d5361423f565b5b6000614d628582860161434d565b9250506020614d7385828601614d28565b9150509250929050565b600067ffffffffffffffff821115614d9857614d9761455d565b5b614da1826143d5565b9050602081019050919050565b6000614dc1614dbc84614d7d565b6145bd565b905082815260208101848484011115614ddd57614ddc614558565b5b614de8848285614609565b509392505050565b600082601f830112614e0557614e04614553565b5b8135614e15848260208601614dae565b91505092915050565b60008060008060808587031215614e3857614e3761423f565b5b6000614e468782880161434d565b9450506020614e578782880161434d565b9350506040614e68878288016144a7565b925050606085013567ffffffffffffffff811115614e8957614e88614244565b5b614e9587828801614df0565b91505092959194509250565b60008060408385031215614eb857614eb761423f565b5b6000614ec68582860161434d565b9250506020614ed78582860161434d565b9150509250929050565b60008060408385031215614ef857614ef761423f565b5b6000614f06858286016144a7565b925050602083013567ffffffffffffffff811115614f2757614f26614244565b5b614f338582860161465a565b9150509250929050565b7f4e487b7100000000000000000000000000000000000000000000000000000000600052602260045260246000fd5b60006002820490506001821680614f8457607f821691505b602082108103614f9757614f96614f3d565b5b50919050565b7f596f75206d75737420626520612072656769737465726564206172746973742e600082015250565b6000614fd360208361439a565b9150614fde82614f9d565b602082019050919050565b6000602082019050818103600083015261500281614fc6565b9050919050565b7f436f6c6c61626f7261746f727320616e6420736861726573206c656e6774682060008201527f6d69736d617463682e0000000000000000000000000000000000000000000000602082015250565b600061506560298361439a565b915061507082615009565b604082019050919050565b6000602082019050818103600083015261509481615058565b9050919050565b7f4e487b7100000000000000000000000000000000000000000000000000000000600052603260045260246000fd5b7f4e487b7100000000000000000000000000000000000000000000000000000000600052601160045260246000fd5b600061510482614486565b915061510f83614486565b9250828201905080821115615127576151266150ca565b5b92915050565b600061513882614486565b91507fffffffffffffffffffffffffffffffffffffffffffffffffffffffffffffffff820361516a576151696150ca565b5b600182019050919050565b7f546f74616c20736861726573206d75737420657175616c20313030252e000000600082015250565b60006151ab601d8361439a565b91506151b682615175565b602082019050919050565b600060208201905081810360008301526151da8161519e565b9050919050565b60008190508160005260206000209050919050565b60006020601f8301049050919050565b600082821b905092915050565b6000600883026152437fffffffffffffffffffffffffffffffffffffffffffffffffffffffffffffffff82615206565b61524d8683615206565b95508019841693508086168417925050509392505050565b6000819050919050565b600061528a61528561528084614486565b615265565b614486565b9050919050565b6000819050919050565b6152a48361526f565b6152b86152b082615291565b848454615213565b825550505050565b600090565b6152cd6152c0565b6152d881848461529b565b505050565b5b818110156152fc576152f16000826152c5565b6001810190506152de565b5050565b601f82111561534157615312816151e1565b61531b846151f6565b8101602085101561532a578190505b61533e615336856151f6565b8301826152dd565b50505b505050565b600082821c905092915050565b600061536460001984600802615346565b1980831691505092915050565b600061537d8383615353565b9150826002028217905092915050565b6153968261438f565b67ffffffffffffffff8111156153af576153ae61455d565b5b6153b98254614f6c565b6153c4828285615300565b600060209050601f8311600181146153f757600084156153e5578287015190505b6153ef8582615371565b865550615457565b601f198416615405866151e1565b60005b8281101561542d57848901518255600182019150602085019450602081019050615408565b8683101561544a5784890151615446601f891682615353565b8355505b6001600288020188555050505b505050505050565b600060608201905061547460008301866144e9565b61548160208301856148ba565b61548e60408301846144e9565b949350505050565b7f41727469737420616c726561647920726567697374657265642e000000000000600082015250565b60006154cc601a8361439a565b91506154d782615496565b602082019050919050565b600060208201905081810360008301526154fb816154bf565b9050919050565b7f44657369676e20646f6573206e6f742065786973742e00000000000000000000600082015250565b600061553860168361439a565b915061554382615502565b602082019050919050565b600060208201905081810360008301526155678161552b565b9050919050565b7f43726561746f722063616e6e6f7420627579207468656972206f776e2064657360008201527f69676e2e00000000000000000000000000000000000000000000000000000000602082015250565b60006155ca60248361439a565b91506155d58261556e565b604082019050919050565b600060208201905081810360008301526155f9816155bd565b9050919050565b7f496e73756666696369656e742045746865722073656e742e0000000000000000600082015250565b600061563660188361439a565b915061564182615600565b602082019050919050565b6000602082019050818103600083015261566581615629565b9050919050565b7f417274697374206973206e6f7420726567697374657265642e00000000000000600082015250565b60006156a260198361439a565b91506156ad8261566c565b602082019050919050565b600060208201905081810360008301526156d181615695565b9050919050565b7f496e76616c69642073656e64657220616464726573732e000000000000000000600082015250565b600061570e60178361439a565b9150615719826156d8565b602082019050919050565b6000602082019050818103600083015261573d81615701565b9050919050565b600081905092915050565b7f47656e6572616c00000000000000000000000000000000000000000000000000600082015250565b6000615785600783615744565b91506157908261574f565b600782019050919050565b60006157a682615778565b9150819050919050565b60006157bb8261438f565b6157c58185615744565b93506157d58185602086016143ab565b80840191505092915050565b60006157ed82846157b0565b915081905092915050565b7f5072656d69756d00000000000000000000000000000000000000000000000000600082015250565b600061582e600783615744565b9150615839826157f8565b600782019050919050565b600061584f82615821565b9150819050919050565b7f496e76616c69642063617465676f727900000000000000000000000000000000600082015250565b600061588f60108361439a565b915061589a82615859565b602082019050919050565b600060208201905081810360008301526158be81615882565b9050919050565b7f436c6f7468696e67000000000000000000000000000000000000000000000000600082015250565b60006158fb600883615744565b9150615906826158c5565b600882019050919050565b600061591c826158ee565b9150819050919050565b7f4661627269630000000000000000000000000000000000000000000000000000600082015250565b600061595c600683615744565b915061596782615926565b600682019050919050565b600061597d8261594f565b9150819050919050565b7f496e76616c69642064657369676e207479706500000000000000000000000000600082015250565b60006159bd60138361439a565b91506159c882615987565b602082019050919050565b600060208201905081810360008301526159ec816159b0565b9050919050565b7f5072696365206d7573742062652067726561746572207468616e20302e000000600082015250565b6000615a29601d8361439a565b9150615a34826159f3565b602082019050919050565b60006020820190508181036000830152615a5881615a1c565b9050919050565b60006040820190508181036000830152615a7981856143e6565b90508181036020830152615a8d81846143e6565b90509392505050565b7f4e6f20636f6c6c61626f726174696f6e20666f756e6420666f7220746869732060008201527f746f6b656e2e0000000000000000000000000000000000000000000000000000602082015250565b6000615af260268361439a565b9150615afd82615a96565b604082019050919050565b60006020820190508181036000830152615b2181615ae5565b9050919050565b7f436f6c6c61626f726174696f6e20646f6573206e6f742065786973742e000000600082015250565b6000615b5e601d8361439a565b9150615b6982615b28565b602082019050919050565b60006020820190508181036000830152615b8d81615b51565b9050919050565b6000615ba082856157b0565b9150615bac82846157b0565b91508190509392505050565b7f436f6e74656e742063616e6e6f7420626520656d7074792e0000000000000000600082015250565b6000615bee60188361439a565b9150615bf982615bb8565b602082019050919050565b60006020820190508181036000830152615c1d81615be1565b9050919050565b6000615c2f82614486565b9150615c3a83614486565b9250828202615c4881614486565b91508282048414831517615c5f57615c5e6150ca565b5b5092915050565b7f4e487b7100000000000000000000000000000000000000000000000000000000600052601260045260246000fd5b6000615ca082614486565b9150615cab83614486565b925082615cbb57615cba615c66565b5b828204905092915050565b600081519050919050565b600082825260208201905092915050565b6000615ced82615cc6565b615cf78185615cd1565b9350615d078185602086016143ab565b615d10816143d5565b840191505092915050565b6000608082019050615d3060008301876144e9565b615d3d60208301866144e9565b615d4a60408301856148ba565b8181036060830152615d5c8184615ce2565b905095945050505050565b600081519050615d7681614275565b92915050565b600060208284031215615d9257615d9161423f565b5b6000615da084828501615d67565b91505092915050565b6000604082019050615dbe60008301856144e9565b615dcb60208301846148ba565b939250505056fea2646970667358221220a3cf36d139d9c79011aa76a40a994f32593fd7561ce777d891a6797e306be2b164736f6c63430008140033",
  "linkReferences": {},
  "deployedLinkReferences": {}
}