{
  "_format": "hh-sol-artifact-1",
  "contractName": "NFTFashionPlatformCore",
  "sourceName": "contracts/NFTFashionPlatformCore.sol",
  "abi": [
    {
      "inputs": [],
      "stateMutability": "nonpayable",
      "type": "constructor"
    },
    {
      "inputs": [
        {
          "internalType": "address",
          "name": "sender",
          "type": "address"
        },
        {
          "internalType": "uint256",
          "name": "tokenId",
          "type": "uint256"
        },
        {
          "internalType": "address",
          "name": "owner",
          "type": "address"
        }
      ],
      "name": "ERC721IncorrectOwner",
      "type": "error"
    },
    {
      "inputs": [
        {
          "internalType": "address",
          "name": "operator",
          "type": "address"
        },
        {
          "internalType": "uint256",
          "name": "tokenId",
          "type": "uint256"
        }
      ],
      "name": "ERC721InsufficientApproval",
      "type": "error"
    },
    {
      "inputs": [
        {
          "internalType": "address",
          "name": "approver",
          "type": "address"
        }
      ],
      "name": "ERC721InvalidApprover",
      "type": "error"
    },
    {
      "inputs": [
        {
          "internalType": "address",
          "name": "operator",
          "type": "address"
        }
      ],
      "name": "ERC721InvalidOperator",
      "type": "error"
    },
    {
      "inputs": [
        {
          "internalType": "address",
          "name": "owner",
          "type": "address"
        }
      ],
      "name": "ERC721InvalidOwner",
      "type": "error"
    },
    {
      "inputs": [
        {
          "internalType": "address",
          "name": "receiver",
          "type": "address"
        }
      ],
      "name": "ERC721InvalidReceiver",
      "type": "error"
    },
    {
      "inputs": [
        {
          "internalType": "address",
          "name": "sender",
          "type": "address"
        }
      ],
      "name": "ERC721InvalidSender",
      "type": "error"
    },
    {
      "inputs": [
        {
          "internalType": "uint256",
          "name": "tokenId",
          "type": "uint256"
        }
      ],
      "name": "ERC721NonexistentToken",
      "type": "error"
    },
    {
      "inputs": [
        {
          "internalType": "address",
          "name": "owner",
          "type": "address"
        }
      ],
      "name": "OwnableInvalidOwner",
      "type": "error"
    },
    {
      "inputs": [
        {
          "internalType": "address",
          "name": "account",
          "type": "address"
        }
      ],
      "name": "OwnableUnauthorizedAccount",
      "type": "error"
    },
    {
      "anonymous": false,
      "inputs": [
        {
          "indexed": true,
          "internalType": "address",
          "name": "owner",
          "type": "address"
        },
        {
          "indexed": true,
          "internalType": "address",
          "name": "approved",
          "type": "address"
        },
        {
          "indexed": true,
          "internalType": "uint256",
          "name": "tokenId",
          "type": "uint256"
        }
      ],
      "name": "Approval",
      "type": "event"
    },
    {
      "anonymous": false,
      "inputs": [
        {
          "indexed": true,
          "internalType": "address",
          "name": "owner",
          "type": "address"
        },
        {
          "indexed": true,
          "internalType": "address",
          "name": "operator",
          "type": "address"
        },
        {
          "indexed": false,
          "internalType": "bool",
          "name": "approved",
          "type": "bool"
        }
      ],
      "name": "ApprovalForAll",
      "type": "event"
    },
    {
      "anonymous": false,
      "inputs": [
        {
          "indexed": true,
          "internalType": "address",
          "name": "artist",
          "type": "address"
        },
        {
          "indexed": false,
          "internalType": "string",
          "name": "name",
          "type": "string"
        }
      ],
      "name": "ArtistRegistered",
      "type": "event"
    },
    {
      "anonymous": false,
      "inputs": [
        {
          "indexed": false,
          "internalType": "uint256",
          "name": "_fromTokenId",
          "type": "uint256"
        },
        {
          "indexed": false,
          "internalType": "uint256",
          "name": "_toTokenId",
          "type": "uint256"
        }
      ],
      "name": "BatchMetadataUpdate",
      "type": "event"
    },
    {
      "anonymous": false,
      "inputs": [
        {
          "indexed": true,
          "internalType": "uint256",
          "name": "tokenId",
          "type": "uint256"
        },
        {
          "indexed": false,
          "internalType": "string",
          "name": "content",
          "type": "string"
        }
      ],
      "name": "CommunityPostAdded",
      "type": "event"
    },
    {
      "anonymous": false,
      "inputs": [
        {
          "indexed": true,
          "internalType": "uint256",
          "name": "tokenId",
          "type": "uint256"
        },
        {
          "indexed": true,
          "internalType": "address",
          "name": "buyer",
          "type": "address"
        }
      ],
      "name": "DesignBought",
      "type": "event"
    },
    {
      "anonymous": false,
      "inputs": [
        {
          "indexed": true,
          "internalType": "uint256",
          "name": "tokenId",
          "type": "uint256"
        },
        {
          "indexed": true,
          "internalType": "address",
          "name": "liker",
          "type": "address"
        }
      ],
      "name": "DesignLiked",
      "type": "event"
    },
    {
      "anonymous": false,
      "inputs": [
        {
          "indexed": true,
          "internalType": "uint256",
          "name": "tokenId",
          "type": "uint256"
        },
        {
          "indexed": true,
          "internalType": "address",
          "name": "creator",
          "type": "address"
        },
        {
          "indexed": false,
          "internalType": "string",
          "name": "category",
          "type": "string"
        },
        {
          "indexed": false,
          "internalType": "string",
          "name": "designType",
          "type": "string"
        }
      ],
      "name": "DesignUploaded",
      "type": "event"
    },
    {
      "anonymous": false,
      "inputs": [
        {
          "indexed": true,
          "internalType": "address",
          "name": "artist",
          "type": "address"
        },
        {
          "indexed": true,
          "internalType": "address",
          "name": "minter",
          "type": "address"
        },
        {
          "indexed": false,
          "internalType": "uint256",
          "name": "tokenId",
          "type": "uint256"
        }
      ],
      "name": "MembershipNFTMinted",
      "type": "event"
    },
    {
      "anonymous": false,
      "inputs": [
        {
          "indexed": false,
          "internalType": "uint256",
          "name": "_tokenId",
          "type": "uint256"
        }
      ],
      "name": "MetadataUpdate",
      "type": "event"
    },
    {
      "anonymous": false,
      "inputs": [
        {
          "indexed": true,
          "internalType": "address",
          "name": "previousOwner",
          "type": "address"
        },
        {
          "indexed": true,
          "internalType": "address",
          "name": "newOwner",
          "type": "address"
        }
      ],
      "name": "OwnershipTransferred",
      "type": "event"
    },
    {
      "anonymous": false,
      "inputs": [
        {
          "indexed": true,
          "internalType": "address",
          "name": "from",
          "type": "address"
        },
        {
          "indexed": true,
          "internalType": "address",
          "name": "to",
          "type": "address"
        },
        {
          "indexed": true,
          "internalType": "uint256",
          "name": "tokenId",
          "type": "uint256"
        }
      ],
      "name": "Transfer",
      "type": "event"
    },
    {
      "inputs": [
        {
          "internalType": "uint256",
          "name": "_tokenId",
          "type": "uint256"
        },
        {
          "internalType": "string",
          "name": "_content",
          "type": "string"
        }
      ],
      "name": "addCommunityPost",
      "outputs": [],
      "stateMutability": "nonpayable",
      "type": "function"
    },
    {
      "inputs": [
        {
          "internalType": "address",
          "name": "to",
          "type": "address"
        },
        {
          "internalType": "uint256",
          "name": "tokenId",
          "type": "uint256"
        }
      ],
      "name": "approve",
      "outputs": [],
      "stateMutability": "nonpayable",
      "type": "function"
    },
    {
      "inputs": [
        {
          "internalType": "address",
          "name": "",
          "type": "address"
        },
        {
          "internalType": "uint256",
          "name": "",
          "type": "uint256"
        }
      ],
      "name": "artistMembershipNFTs",
      "outputs": [
        {
          "internalType": "uint256",
          "name": "",
          "type": "uint256"
        }
      ],
      "stateMutability": "view",
      "type": "function"
    },
    {
      "inputs": [
        {
          "internalType": "address",
          "name": "",
          "type": "address"
        }
      ],
      "name": "artists",
      "outputs": [
        {
          "internalType": "string",
          "name": "name",
          "type": "string"
        },
        {
          "internalType": "string",
          "name": "profileURI",
          "type": "string"
        },
        {
          "internalType": "bool",
          "name": "registered",
          "type": "bool"
        }
      ],
      "stateMutability": "view",
      "type": "function"
    },
    {
      "inputs": [
        {
          "internalType": "address",
          "name": "owner",
          "type": "address"
        }
      ],
      "name": "balanceOf",
      "outputs": [
        {
          "internalType": "uint256",
          "name": "",
          "type": "uint256"
        }
      ],
      "stateMutability": "view",
      "type": "function"
    },
    {
      "inputs": [
        {
          "internalType": "uint256",
          "name": "_tokenId",
          "type": "uint256"
        }
      ],
      "name": "buyDesign",
      "outputs": [],
      "stateMutability": "payable",
      "type": "function"
    },
    {
      "inputs": [
        {
          "internalType": "address",
          "name": "artist",
          "type": "address"
        },
        {
          "internalType": "address",
          "name": "viewer",
          "type": "address"
        }
      ],
      "name": "canViewPremiumNFTs",
      "outputs": [
        {
          "internalType": "bool",
          "name": "",
          "type": "bool"
        }
      ],
      "stateMutability": "view",
      "type": "function"
    },
    {
      "inputs": [
        {
          "internalType": "uint256",
          "name": "",
          "type": "uint256"
        },
        {
          "internalType": "uint256",
          "name": "",
          "type": "uint256"
        }
      ],
      "name": "communityPosts",
      "outputs": [
        {
          "internalType": "string",
          "name": "",
          "type": "string"
        }
      ],
      "stateMutability": "view",
      "type": "function"
    },
    {
      "inputs": [
        {
          "internalType": "uint256",
          "name": "",
          "type": "uint256"
        }
      ],
      "name": "designs",
      "outputs": [
        {
          "internalType": "uint256",
          "name": "tokenId",
          "type": "uint256"
        },
        {
          "internalType": "string",
          "name": "designURI",
          "type": "string"
        },
        {
          "internalType": "address",
          "name": "creator",
          "type": "address"
        },
        {
          "internalType": "string",
          "name": "category",
          "type": "string"
        },
        {
          "internalType": "string",
          "name": "designType",
          "type": "string"
        },
        {
          "internalType": "uint256",
          "name": "price",
          "type": "uint256"
        },
        {
          "internalType": "uint256",
          "name": "likes",
          "type": "uint256"
        }
      ],
      "stateMutability": "view",
      "type": "function"
    },
    {
      "inputs": [
        {
          "internalType": "uint256",
          "name": "tokenId",
          "type": "uint256"
        }
      ],
      "name": "getApproved",
      "outputs": [
        {
          "internalType": "address",
          "name": "",
          "type": "address"
        }
      ],
      "stateMutability": "view",
      "type": "function"
    },
    {
      "inputs": [
        {
          "internalType": "address",
          "name": "owner",
          "type": "address"
        },
        {
          "internalType": "address",
          "name": "operator",
          "type": "address"
        }
      ],
      "name": "isApprovedForAll",
      "outputs": [
        {
          "internalType": "bool",
          "name": "",
          "type": "bool"
        }
      ],
      "stateMutability": "view",
      "type": "function"
    },
    {
      "inputs": [
        {
          "internalType": "uint256",
          "name": "_tokenId",
          "type": "uint256"
        }
      ],
      "name": "likeDesign",
      "outputs": [],
      "stateMutability": "nonpayable",
      "type": "function"
    },
    {
      "inputs": [
        {
          "internalType": "address",
          "name": "artist",
          "type": "address"
        }
      ],
      "name": "mintMembershipNFT",
      "outputs": [],
      "stateMutability": "nonpayable",
      "type": "function"
    },
    {
      "inputs": [],
      "name": "name",
      "outputs": [
        {
          "internalType": "string",
          "name": "",
          "type": "string"
        }
      ],
      "stateMutability": "view",
      "type": "function"
    },
    {
      "inputs": [],
      "name": "owner",
      "outputs": [
        {
          "internalType": "address",
          "name": "",
          "type": "address"
        }
      ],
      "stateMutability": "view",
      "type": "function"
    },
    {
      "inputs": [
        {
          "internalType": "uint256",
          "name": "tokenId",
          "type": "uint256"
        }
      ],
      "name": "ownerOf",
      "outputs": [
        {
          "internalType": "address",
          "name": "",
          "type": "address"
        }
      ],
      "stateMutability": "view",
      "type": "function"
    },
    {
      "inputs": [
        {
          "internalType": "string",
          "name": "_name",
          "type": "string"
        },
        {
          "internalType": "string",
          "name": "_profileURI",
          "type": "string"
        }
      ],
      "name": "registerArtist",
      "outputs": [],
      "stateMutability": "nonpayable",
      "type": "function"
    },
    {
      "inputs": [],
      "name": "renounceOwnership",
      "outputs": [],
      "stateMutability": "nonpayable",
      "type": "function"
    },
    {
      "inputs": [
        {
          "internalType": "address",
          "name": "from",
          "type": "address"
        },
        {
          "internalType": "address",
          "name": "to",
          "type": "address"
        },
        {
          "internalType": "uint256",
          "name": "tokenId",
          "type": "uint256"
        }
      ],
      "name": "safeTransferFrom",
      "outputs": [],
      "stateMutability": "nonpayable",
      "type": "function"
    },
    {
      "inputs": [
        {
          "internalType": "address",
          "name": "from",
          "type": "address"
        },
        {
          "internalType": "address",
          "name": "to",
          "type": "address"
        },
        {
          "internalType": "uint256",
          "name": "tokenId",
          "type": "uint256"
        },
        {
          "internalType": "bytes",
          "name": "data",
          "type": "bytes"
        }
      ],
      "name": "safeTransferFrom",
      "outputs": [],
      "stateMutability": "nonpayable",
      "type": "function"
    },
    {
      "inputs": [
        {
          "internalType": "address",
          "name": "operator",
          "type": "address"
        },
        {
          "internalType": "bool",
          "name": "approved",
          "type": "bool"
        }
      ],
      "name": "setApprovalForAll",
      "outputs": [],
      "stateMutability": "nonpayable",
      "type": "function"
    },
    {
      "inputs": [
        {
          "internalType": "string",
          "name": "_tokenURI",
          "type": "string"
        },
        {
          "internalType": "string",
          "name": "_category",
          "type": "string"
        },
        {
          "internalType": "string",
          "name": "_designType",
          "type": "string"
        },
        {
          "internalType": "uint256",
          "name": "_price",
          "type": "uint256"
        }
      ],
      "name": "singleUploadDesign",
      "outputs": [],
      "stateMutability": "nonpayable",
      "type": "function"
    },
    {
      "inputs": [
        {
          "internalType": "bytes4",
          "name": "interfaceId",
          "type": "bytes4"
        }
      ],
      "name": "supportsInterface",
      "outputs": [
        {
          "internalType": "bool",
          "name": "",
          "type": "bool"
        }
      ],
      "stateMutability": "view",
      "type": "function"
    },
    {
      "inputs": [],
      "name": "symbol",
      "outputs": [
        {
          "internalType": "string",
          "name": "",
          "type": "string"
        }
      ],
      "stateMutability": "view",
      "type": "function"
    },
    {
      "inputs": [],
      "name": "tokenCounter",
      "outputs": [
        {
          "internalType": "uint256",
          "name": "",
          "type": "uint256"
        }
      ],
      "stateMutability": "view",
      "type": "function"
    },
    {
      "inputs": [
        {
          "internalType": "uint256",
          "name": "tokenId",
          "type": "uint256"
        }
      ],
      "name": "tokenURI",
      "outputs": [
        {
          "internalType": "string",
          "name": "",
          "type": "string"
        }
      ],
      "stateMutability": "view",
      "type": "function"
    },
    {
      "inputs": [
        {
          "internalType": "address",
          "name": "from",
          "type": "address"
        },
        {
          "internalType": "address",
          "name": "to",
          "type": "address"
        },
        {
          "internalType": "uint256",
          "name": "tokenId",
          "type": "uint256"
        }
      ],
      "name": "transferFrom",
      "outputs": [],
      "stateMutability": "nonpayable",
      "type": "function"
    },
    {
      "inputs": [
        {
          "internalType": "address",
          "name": "newOwner",
          "type": "address"
        }
      ],
      "name": "transferOwnership",
      "outputs": [],
      "stateMutability": "nonpayable",
      "type": "function"
    },
    {
      "inputs": [
        {
          "internalType": "address",
          "name": "",
          "type": "address"
        },
        {
          "internalType": "uint256",
          "name": "",
          "type": "uint256"
        }
      ],
      "name": "userOwnedDesigns",
      "outputs": [
        {
          "internalType": "uint256",
          "name": "",
          "type": "uint256"
        }
      ],
      "stateMutability": "view",
      "type": "function"
    }
  ],
  "bytecode": "0x60806040523480156200001157600080fd5b50336040518060400160405280600a81526020017f46617368696f6e4e4654000000000000000000000000000000000000000000008152506040518060400160405280600781526020017f46415348494f4e0000000000000000000000000000000000000000000000000081525081600090816200009091906200047a565b508060019081620000a291906200047a565b505050600073ffffffffffffffffffffffffffffffffffffffff168173ffffffffffffffffffffffffffffffffffffffff16036200011a5760006040517f1e4fbdf7000000000000000000000000000000000000000000000000000000008152600401620001119190620005a6565b60405180910390fd5b6200012b816200013a60201b60201c565b506001600881905550620005c3565b6000600760009054906101000a900473ffffffffffffffffffffffffffffffffffffffff16905081600760006101000a81548173ffffffffffffffffffffffffffffffffffffffff021916908373ffffffffffffffffffffffffffffffffffffffff1602179055508173ffffffffffffffffffffffffffffffffffffffff168173ffffffffffffffffffffffffffffffffffffffff167f8be0079c531659141344cd1fd0a4f28419497f9722a3daafe3b4186f6b6457e060405160405180910390a35050565b600081519050919050565b7f4e487b7100000000000000000000000000000000000000000000000000000000600052604160045260246000fd5b7f4e487b7100000000000000000000000000000000000000000000000000000000600052602260045260246000fd5b600060028204905060018216806200028257607f821691505b6020821081036200029857620002976200023a565b5b50919050565b60008190508160005260206000209050919050565b60006020601f8301049050919050565b600082821b905092915050565b600060088302620003027fffffffffffffffffffffffffffffffffffffffffffffffffffffffffffffffff82620002c3565b6200030e8683620002c3565b95508019841693508086168417925050509392505050565b6000819050919050565b6000819050919050565b60006200035b620003556200034f8462000326565b62000330565b62000326565b9050919050565b6000819050919050565b62000377836200033a565b6200038f620003868262000362565b848454620002d0565b825550505050565b600090565b620003a662000397565b620003b38184846200036c565b505050565b5b81811015620003db57620003cf6000826200039c565b600181019050620003b9565b5050565b601f8211156200042a57620003f4816200029e565b620003ff84620002b3565b810160208510156200040f578190505b620004276200041e85620002b3565b830182620003b8565b50505b505050565b600082821c905092915050565b60006200044f600019846008026200042f565b1980831691505092915050565b60006200046a83836200043c565b9150826002028217905092915050565b620004858262000200565b67ffffffffffffffff811115620004a157620004a06200020b565b5b620004ad825462000269565b620004ba828285620003df565b600060209050601f831160018114620004f25760008415620004dd578287015190505b620004e985826200045c565b86555062000559565b601f19841662000502866200029e565b60005b828110156200052c5784890151825560018201915060208501945060208101905062000505565b868310156200054c578489015162000548601f8916826200043c565b8355505b6001600288020188555050505b505050505050565b600073ffffffffffffffffffffffffffffffffffffffff82169050919050565b60006200058e8262000561565b9050919050565b620005a08162000581565b82525050565b6000602082019050620005bd600083018462000595565b92915050565b61485d80620005d36000396000f3fe6080604052600436106101c25760003560e01c8063778e8fe4116100f7578063a22cb46511610095578063d082e38111610064578063d082e38114610693578063e431fc98146106be578063e985e9c5146106e7578063f2fde38b14610724576101c2565b8063a22cb465146105c7578063b88d4fde146105f0578063c86cbb4314610619578063c87b56dd14610656576101c2565b80638da5cb5b116100d15780638da5cb5b146104f157806390ac11a31461051c57806395d89b411461055f57806396fd1f6f1461058a576101c2565b8063778e8fe4146104765780637a332b951461049f5780637a4ff7c9146104c8576101c2565b806342842e0e116101645780635ef471711161013e5780635ef47171146103a85780636352211e146103e557806370a0823114610422578063715018a61461045f576101c2565b806342842e0e1461033a578063559e3b00146103635780635da1c1de1461038c576101c2565b8063081812fc116101a0578063081812fc1461026e578063095ea7b3146102ab57806322eeeaf0146102d457806323b872dd14610311576101c2565b806301ffc9a7146101c7578063069dab8f1461020457806306fdde0314610243575b600080fd5b3480156101d357600080fd5b506101ee60048036038101906101e9919061337a565b61074d565b6040516101fb91906133c2565b60405180910390f35b34801561021057600080fd5b5061022b6004803603810190610226919061343b565b6107ae565b60405161023a939291906134f8565b60405180910390f35b34801561024f57600080fd5b506102586108f5565b604051610265919061353d565b60405180910390f35b34801561027a57600080fd5b5061029560048036038101906102909190613595565b610987565b6040516102a291906135d1565b60405180910390f35b3480156102b757600080fd5b506102d260048036038101906102cd91906135ec565b6109a3565b005b3480156102e057600080fd5b506102fb60048036038101906102f691906135ec565b6109b9565b604051610308919061363b565b60405180910390f35b34801561031d57600080fd5b5061033860048036038101906103339190613656565b6109ea565b005b34801561034657600080fd5b50610361600480360381019061035c9190613656565b610aec565b005b34801561036f57600080fd5b5061038a600480360381019061038591906137de565b610b0c565b005b6103a660048036038101906103a19190613595565b610c9a565b005b3480156103b457600080fd5b506103cf60048036038101906103ca9190613856565b6110f8565b6040516103dc919061353d565b60405180910390f35b3480156103f157600080fd5b5061040c60048036038101906104079190613595565b6111b1565b60405161041991906135d1565b60405180910390f35b34801561042e57600080fd5b506104496004803603810190610444919061343b565b6111c3565b604051610456919061363b565b60405180910390f35b34801561046b57600080fd5b5061047461127d565b005b34801561048257600080fd5b5061049d6004803603810190610498919061343b565b611291565b005b3480156104ab57600080fd5b506104c660048036038101906104c19190613595565b611487565b005b3480156104d457600080fd5b506104ef60048036038101906104ea9190613896565b611555565b005b3480156104fd57600080fd5b506105066119df565b60405161051391906135d1565b60405180910390f35b34801561052857600080fd5b50610543600480360381019061053e9190613595565b611a09565b6040516105569796959493929190613951565b60405180910390f35b34801561056b57600080fd5b50610574611c03565b604051610581919061353d565b60405180910390f35b34801561059657600080fd5b506105b160048036038101906105ac91906135ec565b611c95565b6040516105be919061363b565b60405180910390f35b3480156105d357600080fd5b506105ee60048036038101906105e99190613a01565b611cc6565b005b3480156105fc57600080fd5b5061061760048036038101906106129190613ae2565b611cdc565b005b34801561062557600080fd5b50610640600480360381019061063b9190613b65565b611d01565b60405161064d91906133c2565b60405180910390f35b34801561066257600080fd5b5061067d60048036038101906106789190613595565b611e20565b60405161068a919061353d565b60405180910390f35b34801561069f57600080fd5b506106a8611f33565b6040516106b5919061363b565b60405180910390f35b3480156106ca57600080fd5b506106e560048036038101906106e09190613ba5565b611f39565b005b3480156106f357600080fd5b5061070e60048036038101906107099190613b65565b612058565b60405161071b91906133c2565b60405180910390f35b34801561073057600080fd5b5061074b6004803603810190610746919061343b565b6120ec565b005b6000634906490660e01b7bffffffffffffffffffffffffffffffffffffffffffffffffffffffff1916827bffffffffffffffffffffffffffffffffffffffffffffffffffffffff191614806107a757506107a682612172565b5b9050919050565b60096020528060005260406000206000915090508060000180546107d190613c30565b80601f01602080910402602001604051908101604052809291908181526020018280546107fd90613c30565b801561084a5780601f1061081f5761010080835404028352916020019161084a565b820191906000526020600020905b81548152906001019060200180831161082d57829003601f168201915b50505050509080600101805461085f90613c30565b80601f016020809104026020016040519081016040528092919081815260200182805461088b90613c30565b80156108d85780601f106108ad576101008083540402835291602001916108d8565b820191906000526020600020905b8154815290600101906020018083116108bb57829003601f168201915b5050505050908060020160009054906101000a900460ff16905083565b60606000805461090490613c30565b80601f016020809104026020016040519081016040528092919081815260200182805461093090613c30565b801561097d5780601f106109525761010080835404028352916020019161097d565b820191906000526020600020905b81548152906001019060200180831161096057829003601f168201915b5050505050905090565b600061099282612254565b5061099c826122dc565b9050919050565b6109b582826109b0612319565b612321565b5050565b600d60205281600052604060002081815481106109d557600080fd5b90600052602060002001600091509150505481565b600073ffffffffffffffffffffffffffffffffffffffff168273ffffffffffffffffffffffffffffffffffffffff1603610a5c5760006040517f64a0ae92000000000000000000000000000000000000000000000000000000008152600401610a5391906135d1565b60405180910390fd5b6000610a708383610a6b612319565b612333565b90508373ffffffffffffffffffffffffffffffffffffffff168173ffffffffffffffffffffffffffffffffffffffff1614610ae6578382826040517f64283d7b000000000000000000000000000000000000000000000000000000008152600401610add93929190613c61565b60405180910390fd5b50505050565b610b0783838360405180602001604052806000815250611cdc565b505050565b600960003373ffffffffffffffffffffffffffffffffffffffff1673ffffffffffffffffffffffffffffffffffffffff16815260200190815260200160002060020160009054906101000a900460ff1615610b9c576040517f08c379a0000000000000000000000000000000000000000000000000000000008152600401610b9390613ce4565b60405180910390fd5b604051806060016040528083815260200182815260200160011515815250600960003373ffffffffffffffffffffffffffffffffffffffff1673ffffffffffffffffffffffffffffffffffffffff1681526020019081526020016000206000820151816000019081610c0e9190613eb0565b506020820151816001019081610c249190613eb0565b5060408201518160020160006101000a81548160ff0219169083151502179055509050503373ffffffffffffffffffffffffffffffffffffffff167fd4fd8fd455c3fdfe36126d7de16d1f208385873ff3250ddf3bc9b833ba2b7e3583604051610c8e919061353d565b60405180910390a25050565b6000600a60008381526020019081526020016000206040518060e001604052908160008201548152602001600182018054610cd490613c30565b80601f0160208091040260200160405190810160405280929190818152602001828054610d0090613c30565b8015610d4d5780601f10610d2257610100808354040283529160200191610d4d565b820191906000526020600020905b815481529060010190602001808311610d3057829003601f168201915b505050505081526020016002820160009054906101000a900473ffffffffffffffffffffffffffffffffffffffff1673ffffffffffffffffffffffffffffffffffffffff1673ffffffffffffffffffffffffffffffffffffffff168152602001600382018054610dbc90613c30565b80601f0160208091040260200160405190810160405280929190818152602001828054610de890613c30565b8015610e355780601f10610e0a57610100808354040283529160200191610e35565b820191906000526020600020905b815481529060010190602001808311610e1857829003601f168201915b50505050508152602001600482018054610e4e90613c30565b80601f0160208091040260200160405190810160405280929190818152602001828054610e7a90613c30565b8015610ec75780601f10610e9c57610100808354040283529160200191610ec7565b820191906000526020600020905b815481529060010190602001808311610eaa57829003601f168201915b505050505081526020016005820154815260200160068201548152505090506000816000015103610f2d576040517f08c379a0000000000000000000000000000000000000000000000000000000008152600401610f2490613fce565b60405180910390fd5b806040015173ffffffffffffffffffffffffffffffffffffffff163373ffffffffffffffffffffffffffffffffffffffff1603610f9f576040517f08c379a0000000000000000000000000000000000000000000000000000000008152600401610f9690614060565b60405180910390fd5b8060a00151341015610fe6576040517f08c379a0000000000000000000000000000000000000000000000000000000008152600401610fdd906140cc565b60405180910390fd5b6000816040015190508073ffffffffffffffffffffffffffffffffffffffff166108fc349081150290604051600060405180830381858888f19350505050158015611035573d6000803e3d6000fd5b50611049611042846111b1565b338561254d565b600b60003373ffffffffffffffffffffffffffffffffffffffff1673ffffffffffffffffffffffffffffffffffffffff1681526020019081526020016000208390806001815401808255809150506001900390600052602060002001600090919091909150553373ffffffffffffffffffffffffffffffffffffffff16837f015d09dfcd024446daddf454800a085be52caf28e84b51fe76854f5a833a1a7e60405160405180910390a3505050565b600c602052816000526040600020818154811061111457600080fd5b9060005260206000200160009150915050805461113090613c30565b80601f016020809104026020016040519081016040528092919081815260200182805461115c90613c30565b80156111a95780601f1061117e576101008083540402835291602001916111a9565b820191906000526020600020905b81548152906001019060200180831161118c57829003601f168201915b505050505081565b60006111bc82612254565b9050919050565b60008073ffffffffffffffffffffffffffffffffffffffff168273ffffffffffffffffffffffffffffffffffffffff16036112365760006040517f89c62b6400000000000000000000000000000000000000000000000000000000815260040161122d91906135d1565b60405180910390fd5b600360008373ffffffffffffffffffffffffffffffffffffffff1673ffffffffffffffffffffffffffffffffffffffff168152602001908152602001600020549050919050565b6112856126ba565b61128f6000612741565b565b600960008273ffffffffffffffffffffffffffffffffffffffff1673ffffffffffffffffffffffffffffffffffffffff16815260200190815260200160002060020160009054906101000a900460ff16611320576040517f08c379a000000000000000000000000000000000000000000000000000000000815260040161131790614138565b60405180910390fd5b600073ffffffffffffffffffffffffffffffffffffffff163373ffffffffffffffffffffffffffffffffffffffff160361138f576040517f08c379a0000000000000000000000000000000000000000000000000000000008152600401611386906141a4565b60405180910390fd5b600060085490506113a03382612807565b600d60008373ffffffffffffffffffffffffffffffffffffffff1673ffffffffffffffffffffffffffffffffffffffff16815260200190815260200160002081908060018154018082558091505060019003906000526020600020016000909190919091505560086000815480929190611419906141f3565b91905055503373ffffffffffffffffffffffffffffffffffffffff168273ffffffffffffffffffffffffffffffffffffffff167fdd0a22f894b6ae25a82db4ff76f56b360523afdf8ee72eb57fee5a4540f2cc688360405161147b919061363b565b60405180910390a35050565b6000600a600083815260200190815260200160002060000154036114e0576040517f08c379a00000000000000000000000000000000000000000000000000000000081526004016114d790613fce565b60405180910390fd5b6001600a60008381526020019081526020016000206006016000828254611507919061423b565b925050819055503373ffffffffffffffffffffffffffffffffffffffff16817fc6634ab7aeee3cff2c8c91ba52bd7636869c494bee1329ea21d9ab7c9e3affaa60405160405180910390a350565b600960003373ffffffffffffffffffffffffffffffffffffffff1673ffffffffffffffffffffffffffffffffffffffff16815260200190815260200160002060020160009054906101000a900460ff166115e4576040517f08c379a00000000000000000000000000000000000000000000000000000000081526004016115db906142bb565b60405180910390fd5b6040516020016115f390614332565b604051602081830303815290604052805190602001208360405160200161161a9190614378565b6040516020818303038152906040528051906020012014806116855750604051602001611646906143db565b604051602081830303815290604052805190602001208360405160200161166d9190614378565b60405160208183030381529060405280519060200120145b6116c4576040517f08c379a00000000000000000000000000000000000000000000000000000000081526004016116bb9061443c565b60405180910390fd5b6040516020016116d3906144a8565b60405160208183030381529060405280519060200120826040516020016116fa9190614378565b604051602081830303815290604052805190602001201480611765575060405160200161172690614509565b604051602081830303815290604052805190602001208260405160200161174d9190614378565b60405160208183030381529060405280519060200120145b6117a4576040517f08c379a000000000000000000000000000000000000000000000000000000000815260040161179b9061456a565b60405180910390fd5b600081116117e7576040517f08c379a00000000000000000000000000000000000000000000000000000000081526004016117de906145d6565b60405180910390fd5b600060085490506117f83382612807565b6118028186612900565b6040518060e001604052808281526020018681526020013373ffffffffffffffffffffffffffffffffffffffff1681526020018581526020018481526020018381526020016000815250600a600083815260200190815260200160002060008201518160000155602082015181600101908161187e9190613eb0565b5060408201518160020160006101000a81548173ffffffffffffffffffffffffffffffffffffffff021916908373ffffffffffffffffffffffffffffffffffffffff16021790555060608201518160030190816118db9190613eb0565b5060808201518160040190816118f19190613eb0565b5060a0820151816005015560c08201518160060155905050600b60003373ffffffffffffffffffffffffffffffffffffffff1673ffffffffffffffffffffffffffffffffffffffff16815260200190815260200160002081908060018154018082558091505060019003906000526020600020016000909190919091505560086000815480929190611982906141f3565b91905055503373ffffffffffffffffffffffffffffffffffffffff16817f2d3e4bf750865a23ba11ab0b1a891d174f35ebdd0e266948f302f38bdea7ba2f86866040516119d09291906145f6565b60405180910390a35050505050565b6000600760009054906101000a900473ffffffffffffffffffffffffffffffffffffffff16905090565b600a602052806000526040600020600091509050806000015490806001018054611a3290613c30565b80601f0160208091040260200160405190810160405280929190818152602001828054611a5e90613c30565b8015611aab5780601f10611a8057610100808354040283529160200191611aab565b820191906000526020600020905b815481529060010190602001808311611a8e57829003601f168201915b5050505050908060020160009054906101000a900473ffffffffffffffffffffffffffffffffffffffff1690806003018054611ae690613c30565b80601f0160208091040260200160405190810160405280929190818152602001828054611b1290613c30565b8015611b5f5780601f10611b3457610100808354040283529160200191611b5f565b820191906000526020600020905b815481529060010190602001808311611b4257829003601f168201915b505050505090806004018054611b7490613c30565b80601f0160208091040260200160405190810160405280929190818152602001828054611ba090613c30565b8015611bed5780601f10611bc257610100808354040283529160200191611bed565b820191906000526020600020905b815481529060010190602001808311611bd057829003601f168201915b5050505050908060050154908060060154905087565b606060018054611c1290613c30565b80601f0160208091040260200160405190810160405280929190818152602001828054611c3e90613c30565b8015611c8b5780601f10611c6057610100808354040283529160200191611c8b565b820191906000526020600020905b815481529060010190602001808311611c6e57829003601f168201915b5050505050905090565b600b6020528160005260406000208181548110611cb157600080fd5b90600052602060002001600091509150505481565b611cd8611cd1612319565b838361295c565b5050565b611ce78484846109ea565b611cfb611cf2612319565b85858585612acb565b50505050565b600080600d60008573ffffffffffffffffffffffffffffffffffffffff1673ffffffffffffffffffffffffffffffffffffffff168152602001908152602001600020805480602002602001604051908101604052809291908181526020018280548015611d8d57602002820191906000526020600020905b815481526020019060010190808311611d79575b5050505050905060005b8151811015611e13578373ffffffffffffffffffffffffffffffffffffffff16611dda838381518110611dcd57611dcc61462d565b5b60200260200101516111b1565b73ffffffffffffffffffffffffffffffffffffffff1603611e0057600192505050611e1a565b8080611e0b906141f3565b915050611d97565b5060009150505b92915050565b6060611e2b82612254565b506000600660008481526020019081526020016000208054611e4c90613c30565b80601f0160208091040260200160405190810160405280929190818152602001828054611e7890613c30565b8015611ec55780601f10611e9a57610100808354040283529160200191611ec5565b820191906000526020600020905b815481529060010190602001808311611ea857829003601f168201915b505050505090506000611ed6612c7c565b90506000815103611eeb578192505050611f2e565b600082511115611f20578082604051602001611f0892919061465c565b60405160208183030381529060405292505050611f2e565b611f2984612c93565b925050505b919050565b60085481565b6000600a60008481526020019081526020016000206000015403611f92576040517f08c379a0000000000000000000000000000000000000000000000000000000008152600401611f8990613fce565b60405180910390fd5b6000815111611fd6576040517f08c379a0000000000000000000000000000000000000000000000000000000008152600401611fcd906146cc565b60405180910390fd5b600c60008381526020019081526020016000208190806001815401808255809150506001900390600052602060002001600090919091909150908161201b9190613eb0565b50817f280cdacab590a3abc1d512498a9998ca3748e76ae92a1fb0924b42e1b533372f8260405161204c919061353d565b60405180910390a25050565b6000600560008473ffffffffffffffffffffffffffffffffffffffff1673ffffffffffffffffffffffffffffffffffffffff16815260200190815260200160002060008373ffffffffffffffffffffffffffffffffffffffff1673ffffffffffffffffffffffffffffffffffffffff16815260200190815260200160002060009054906101000a900460ff16905092915050565b6120f46126ba565b600073ffffffffffffffffffffffffffffffffffffffff168173ffffffffffffffffffffffffffffffffffffffff16036121665760006040517f1e4fbdf700000000000000000000000000000000000000000000000000000000815260040161215d91906135d1565b60405180910390fd5b61216f81612741565b50565b60007f80ac58cd000000000000000000000000000000000000000000000000000000007bffffffffffffffffffffffffffffffffffffffffffffffffffffffff1916827bffffffffffffffffffffffffffffffffffffffffffffffffffffffff1916148061223d57507f5b5e139f000000000000000000000000000000000000000000000000000000007bffffffffffffffffffffffffffffffffffffffffffffffffffffffff1916827bffffffffffffffffffffffffffffffffffffffffffffffffffffffff1916145b8061224d575061224c82612cfc565b5b9050919050565b60008061226083612d66565b9050600073ffffffffffffffffffffffffffffffffffffffff168173ffffffffffffffffffffffffffffffffffffffff16036122d357826040517f7e2732890000000000000000000000000000000000000000000000000000000081526004016122ca919061363b565b60405180910390fd5b80915050919050565b60006004600083815260200190815260200160002060009054906101000a900473ffffffffffffffffffffffffffffffffffffffff169050919050565b600033905090565b61232e8383836001612da3565b505050565b60008061233f84612d66565b9050600073ffffffffffffffffffffffffffffffffffffffff168373ffffffffffffffffffffffffffffffffffffffff161461238157612380818486612f68565b5b600073ffffffffffffffffffffffffffffffffffffffff168173ffffffffffffffffffffffffffffffffffffffff1614612412576123c3600085600080612da3565b6001600360008373ffffffffffffffffffffffffffffffffffffffff1673ffffffffffffffffffffffffffffffffffffffff168152602001908152602001600020600082825403925050819055505b600073ffffffffffffffffffffffffffffffffffffffff168573ffffffffffffffffffffffffffffffffffffffff1614612495576001600360008773ffffffffffffffffffffffffffffffffffffffff1673ffffffffffffffffffffffffffffffffffffffff168152602001908152602001600020600082825401925050819055505b846002600086815260200190815260200160002060006101000a81548173ffffffffffffffffffffffffffffffffffffffff021916908373ffffffffffffffffffffffffffffffffffffffff160217905550838573ffffffffffffffffffffffffffffffffffffffff168273ffffffffffffffffffffffffffffffffffffffff167fddf252ad1be2c89b69c2b068fc378daa952ba7f163c4a11628f55a4df523b3ef60405160405180910390a4809150509392505050565b600073ffffffffffffffffffffffffffffffffffffffff168273ffffffffffffffffffffffffffffffffffffffff16036125bf5760006040517f64a0ae920000000000000000000000000000000000000000000000000000000081526004016125b691906135d1565b60405180910390fd5b60006125cd83836000612333565b9050600073ffffffffffffffffffffffffffffffffffffffff168173ffffffffffffffffffffffffffffffffffffffff160361264057816040517f7e273289000000000000000000000000000000000000000000000000000000008152600401612637919061363b565b60405180910390fd5b8373ffffffffffffffffffffffffffffffffffffffff168173ffffffffffffffffffffffffffffffffffffffff16146126b4578382826040517f64283d7b0000000000000000000000000000000000000000000000000000000081526004016126ab93929190613c61565b60405180910390fd5b50505050565b6126c2612319565b73ffffffffffffffffffffffffffffffffffffffff166126e06119df565b73ffffffffffffffffffffffffffffffffffffffff161461273f57612703612319565b6040517f118cdaa700000000000000000000000000000000000000000000000000000000815260040161273691906135d1565b60405180910390fd5b565b6000600760009054906101000a900473ffffffffffffffffffffffffffffffffffffffff16905081600760006101000a81548173ffffffffffffffffffffffffffffffffffffffff021916908373ffffffffffffffffffffffffffffffffffffffff1602179055508173ffffffffffffffffffffffffffffffffffffffff168173ffffffffffffffffffffffffffffffffffffffff167f8be0079c531659141344cd1fd0a4f28419497f9722a3daafe3b4186f6b6457e060405160405180910390a35050565b600073ffffffffffffffffffffffffffffffffffffffff168273ffffffffffffffffffffffffffffffffffffffff16036128795760006040517f64a0ae9200000000000000000000000000000000000000000000000000000000815260040161287091906135d1565b60405180910390fd5b600061288783836000612333565b9050600073ffffffffffffffffffffffffffffffffffffffff168173ffffffffffffffffffffffffffffffffffffffff16146128fb5760006040517f73c6ac6e0000000000000000000000000000000000000000000000000000000081526004016128f291906135d1565b60405180910390fd5b505050565b806006600084815260200190815260200160002090816129209190613eb0565b507ff8e1a15aba9398e019f0b49df1a4fde98ee17ae345cb5f6b5e2c27f5033e8ce782604051612950919061363b565b60405180910390a15050565b600073ffffffffffffffffffffffffffffffffffffffff168273ffffffffffffffffffffffffffffffffffffffff16036129cd57816040517f5b08ba180000000000000000000000000000000000000000000000000000000081526004016129c491906135d1565b60405180910390fd5b80600560008573ffffffffffffffffffffffffffffffffffffffff1673ffffffffffffffffffffffffffffffffffffffff16815260200190815260200160002060008473ffffffffffffffffffffffffffffffffffffffff1673ffffffffffffffffffffffffffffffffffffffff16815260200190815260200160002060006101000a81548160ff0219169083151502179055508173ffffffffffffffffffffffffffffffffffffffff168373ffffffffffffffffffffffffffffffffffffffff167f17307eab39ab6107e8899845ad3d59bd9653f200f220920489ca2b5937696c3183604051612abe91906133c2565b60405180910390a3505050565b60008373ffffffffffffffffffffffffffffffffffffffff163b1115612c75578273ffffffffffffffffffffffffffffffffffffffff1663150b7a02868685856040518563ffffffff1660e01b8152600401612b2a9493929190614741565b6020604051808303816000875af1925050508015612b6657506040513d601f19601f82011682018060405250810190612b6391906147a2565b60015b612bea573d8060008114612b96576040519150601f19603f3d011682016040523d82523d6000602084013e612b9b565b606091505b506000815103612be257836040517f64a0ae92000000000000000000000000000000000000000000000000000000008152600401612bd991906135d1565b60405180910390fd5b805181602001fd5b63150b7a0260e01b7bffffffffffffffffffffffffffffffffffffffffffffffffffffffff1916817bffffffffffffffffffffffffffffffffffffffffffffffffffffffff191614612c7357836040517f64a0ae92000000000000000000000000000000000000000000000000000000008152600401612c6a91906135d1565b60405180910390fd5b505b5050505050565b606060405180602001604052806000815250905090565b6060612c9e82612254565b506000612ca9612c7c565b90506000815111612cc95760405180602001604052806000815250612cf4565b80612cd38461302c565b604051602001612ce492919061465c565b6040516020818303038152906040525b915050919050565b60007f01ffc9a7000000000000000000000000000000000000000000000000000000007bffffffffffffffffffffffffffffffffffffffffffffffffffffffff1916827bffffffffffffffffffffffffffffffffffffffffffffffffffffffff1916149050919050565b60006002600083815260200190815260200160002060009054906101000a900473ffffffffffffffffffffffffffffffffffffffff169050919050565b8080612ddc5750600073ffffffffffffffffffffffffffffffffffffffff168273ffffffffffffffffffffffffffffffffffffffff1614155b15612f10576000612dec84612254565b9050600073ffffffffffffffffffffffffffffffffffffffff168373ffffffffffffffffffffffffffffffffffffffff1614158015612e5757508273ffffffffffffffffffffffffffffffffffffffff168173ffffffffffffffffffffffffffffffffffffffff1614155b8015612e6a5750612e688184612058565b155b15612eac57826040517fa9fbf51f000000000000000000000000000000000000000000000000000000008152600401612ea391906135d1565b60405180910390fd5b8115612f0e57838573ffffffffffffffffffffffffffffffffffffffff168273ffffffffffffffffffffffffffffffffffffffff167f8c5be1e5ebec7d5bd14f71427d1e84f3dd0314c0f7b2291e5b200ac8c7c3b92560405160405180910390a45b505b836004600085815260200190815260200160002060006101000a81548173ffffffffffffffffffffffffffffffffffffffff021916908373ffffffffffffffffffffffffffffffffffffffff16021790555050505050565b612f738383836130fa565b61302757600073ffffffffffffffffffffffffffffffffffffffff168373ffffffffffffffffffffffffffffffffffffffff1603612fe857806040517f7e273289000000000000000000000000000000000000000000000000000000008152600401612fdf919061363b565b60405180910390fd5b81816040517f177e802f00000000000000000000000000000000000000000000000000000000815260040161301e9291906147cf565b60405180910390fd5b505050565b60606000600161303b846131bb565b01905060008167ffffffffffffffff81111561305a576130596136b3565b5b6040519080825280601f01601f19166020018201604052801561308c5781602001600182028036833780820191505090505b509050600082602001820190505b6001156130ef578080600190039150507f3031323334353637383961626364656600000000000000000000000000000000600a86061a8153600a85816130e3576130e26147f8565b5b0494506000850361309a575b819350505050919050565b60008073ffffffffffffffffffffffffffffffffffffffff168373ffffffffffffffffffffffffffffffffffffffff16141580156131b257508273ffffffffffffffffffffffffffffffffffffffff168473ffffffffffffffffffffffffffffffffffffffff16148061317357506131728484612058565b5b806131b157508273ffffffffffffffffffffffffffffffffffffffff16613199836122dc565b73ffffffffffffffffffffffffffffffffffffffff16145b5b90509392505050565b600080600090507a184f03e93ff9f4daa797ed6e38ed64bf6a1f0100000000000000008310613219577a184f03e93ff9f4daa797ed6e38ed64bf6a1f010000000000000000838161320f5761320e6147f8565b5b0492506040810190505b6d04ee2d6d415b85acef81000000008310613256576d04ee2d6d415b85acef8100000000838161324c5761324b6147f8565b5b0492506020810190505b662386f26fc10000831061328557662386f26fc10000838161327b5761327a6147f8565b5b0492506010810190505b6305f5e10083106132ae576305f5e10083816132a4576132a36147f8565b5b0492506008810190505b61271083106132d35761271083816132c9576132c86147f8565b5b0492506004810190505b606483106132f657606483816132ec576132eb6147f8565b5b0492506002810190505b600a8310613305576001810190505b80915050919050565b6000604051905090565b600080fd5b600080fd5b60007fffffffff0000000000000000000000000000000000000000000000000000000082169050919050565b61335781613322565b811461336257600080fd5b50565b6000813590506133748161334e565b92915050565b6000602082840312156133905761338f613318565b5b600061339e84828501613365565b91505092915050565b60008115159050919050565b6133bc816133a7565b82525050565b60006020820190506133d760008301846133b3565b92915050565b600073ffffffffffffffffffffffffffffffffffffffff82169050919050565b6000613408826133dd565b9050919050565b613418816133fd565b811461342357600080fd5b50565b6000813590506134358161340f565b92915050565b60006020828403121561345157613450613318565b5b600061345f84828501613426565b91505092915050565b600081519050919050565b600082825260208201905092915050565b60005b838110156134a2578082015181840152602081019050613487565b60008484015250505050565b6000601f19601f8301169050919050565b60006134ca82613468565b6134d48185613473565b93506134e4818560208601613484565b6134ed816134ae565b840191505092915050565b6000606082019050818103600083015261351281866134bf565b9050818103602083015261352681856134bf565b905061353560408301846133b3565b949350505050565b6000602082019050818103600083015261355781846134bf565b905092915050565b6000819050919050565b6135728161355f565b811461357d57600080fd5b50565b60008135905061358f81613569565b92915050565b6000602082840312156135ab576135aa613318565b5b60006135b984828501613580565b91505092915050565b6135cb816133fd565b82525050565b60006020820190506135e660008301846135c2565b92915050565b6000806040838503121561360357613602613318565b5b600061361185828601613426565b925050602061362285828601613580565b9150509250929050565b6136358161355f565b82525050565b6000602082019050613650600083018461362c565b92915050565b60008060006060848603121561366f5761366e613318565b5b600061367d86828701613426565b935050602061368e86828701613426565b925050604061369f86828701613580565b9150509250925092565b600080fd5b600080fd5b7f4e487b7100000000000000000000000000000000000000000000000000000000600052604160045260246000fd5b6136eb826134ae565b810181811067ffffffffffffffff8211171561370a576137096136b3565b5b80604052505050565b600061371d61330e565b905061372982826136e2565b919050565b600067ffffffffffffffff821115613749576137486136b3565b5b613752826134ae565b9050602081019050919050565b82818337600083830152505050565b600061378161377c8461372e565b613713565b90508281526020810184848401111561379d5761379c6136ae565b5b6137a884828561375f565b509392505050565b600082601f8301126137c5576137c46136a9565b5b81356137d584826020860161376e565b91505092915050565b600080604083850312156137f5576137f4613318565b5b600083013567ffffffffffffffff8111156138135761381261331d565b5b61381f858286016137b0565b925050602083013567ffffffffffffffff8111156138405761383f61331d565b5b61384c858286016137b0565b9150509250929050565b6000806040838503121561386d5761386c613318565b5b600061387b85828601613580565b925050602061388c85828601613580565b9150509250929050565b600080600080608085870312156138b0576138af613318565b5b600085013567ffffffffffffffff8111156138ce576138cd61331d565b5b6138da878288016137b0565b945050602085013567ffffffffffffffff8111156138fb576138fa61331d565b5b613907878288016137b0565b935050604085013567ffffffffffffffff8111156139285761392761331d565b5b613934878288016137b0565b925050606061394587828801613580565b91505092959194509250565b600060e082019050613966600083018a61362c565b818103602083015261397881896134bf565b905061398760408301886135c2565b818103606083015261399981876134bf565b905081810360808301526139ad81866134bf565b90506139bc60a083018561362c565b6139c960c083018461362c565b98975050505050505050565b6139de816133a7565b81146139e957600080fd5b50565b6000813590506139fb816139d5565b92915050565b60008060408385031215613a1857613a17613318565b5b6000613a2685828601613426565b9250506020613a37858286016139ec565b9150509250929050565b600067ffffffffffffffff821115613a5c57613a5b6136b3565b5b613a65826134ae565b9050602081019050919050565b6000613a85613a8084613a41565b613713565b905082815260208101848484011115613aa157613aa06136ae565b5b613aac84828561375f565b509392505050565b600082601f830112613ac957613ac86136a9565b5b8135613ad9848260208601613a72565b91505092915050565b60008060008060808587031215613afc57613afb613318565b5b6000613b0a87828801613426565b9450506020613b1b87828801613426565b9350506040613b2c87828801613580565b925050606085013567ffffffffffffffff811115613b4d57613b4c61331d565b5b613b5987828801613ab4565b91505092959194509250565b60008060408385031215613b7c57613b7b613318565b5b6000613b8a85828601613426565b9250506020613b9b85828601613426565b9150509250929050565b60008060408385031215613bbc57613bbb613318565b5b6000613bca85828601613580565b925050602083013567ffffffffffffffff811115613beb57613bea61331d565b5b613bf7858286016137b0565b9150509250929050565b7f4e487b7100000000000000000000000000000000000000000000000000000000600052602260045260246000fd5b60006002820490506001821680613c4857607f821691505b602082108103613c5b57613c5a613c01565b5b50919050565b6000606082019050613c7660008301866135c2565b613c83602083018561362c565b613c9060408301846135c2565b949350505050565b7f41727469737420616c726561647920726567697374657265642e000000000000600082015250565b6000613cce601a83613473565b9150613cd982613c98565b602082019050919050565b60006020820190508181036000830152613cfd81613cc1565b9050919050565b60008190508160005260206000209050919050565b60006020601f8301049050919050565b600082821b905092915050565b600060088302613d667fffffffffffffffffffffffffffffffffffffffffffffffffffffffffffffffff82613d29565b613d708683613d29565b95508019841693508086168417925050509392505050565b6000819050919050565b6000613dad613da8613da38461355f565b613d88565b61355f565b9050919050565b6000819050919050565b613dc783613d92565b613ddb613dd382613db4565b848454613d36565b825550505050565b600090565b613df0613de3565b613dfb818484613dbe565b505050565b5b81811015613e1f57613e14600082613de8565b600181019050613e01565b5050565b601f821115613e6457613e3581613d04565b613e3e84613d19565b81016020851015613e4d578190505b613e61613e5985613d19565b830182613e00565b50505b505050565b600082821c905092915050565b6000613e8760001984600802613e69565b1980831691505092915050565b6000613ea08383613e76565b9150826002028217905092915050565b613eb982613468565b67ffffffffffffffff811115613ed257613ed16136b3565b5b613edc8254613c30565b613ee7828285613e23565b600060209050601f831160018114613f1a5760008415613f08578287015190505b613f128582613e94565b865550613f7a565b601f198416613f2886613d04565b60005b82811015613f5057848901518255600182019150602085019450602081019050613f2b565b86831015613f6d5784890151613f69601f891682613e76565b8355505b6001600288020188555050505b505050505050565b7f44657369676e20646f6573206e6f742065786973742e00000000000000000000600082015250565b6000613fb8601683613473565b9150613fc382613f82565b602082019050919050565b60006020820190508181036000830152613fe781613fab565b9050919050565b7f43726561746f722063616e6e6f7420627579207468656972206f776e2064657360008201527f69676e2e00000000000000000000000000000000000000000000000000000000602082015250565b600061404a602483613473565b915061405582613fee565b604082019050919050565b600060208201905081810360008301526140798161403d565b9050919050565b7f496e73756666696369656e742045746865722073656e742e0000000000000000600082015250565b60006140b6601883613473565b91506140c182614080565b602082019050919050565b600060208201905081810360008301526140e5816140a9565b9050919050565b7f417274697374206973206e6f7420726567697374657265642e00000000000000600082015250565b6000614122601983613473565b915061412d826140ec565b602082019050919050565b6000602082019050818103600083015261415181614115565b9050919050565b7f496e76616c69642073656e64657220616464726573732e000000000000000000600082015250565b600061418e601783613473565b915061419982614158565b602082019050919050565b600060208201905081810360008301526141bd81614181565b9050919050565b7f4e487b7100000000000000000000000000000000000000000000000000000000600052601160045260246000fd5b60006141fe8261355f565b91507fffffffffffffffffffffffffffffffffffffffffffffffffffffffffffffffff82036142305761422f6141c4565b5b600182019050919050565b60006142468261355f565b91506142518361355f565b9250828201905080821115614269576142686141c4565b5b92915050565b7f596f75206d75737420626520612072656769737465726564206172746973742e600082015250565b60006142a5602083613473565b91506142b08261426f565b602082019050919050565b600060208201905081810360008301526142d481614298565b9050919050565b600081905092915050565b7f47656e6572616c00000000000000000000000000000000000000000000000000600082015250565b600061431c6007836142db565b9150614327826142e6565b600782019050919050565b600061433d8261430f565b9150819050919050565b600061435282613468565b61435c81856142db565b935061436c818560208601613484565b80840191505092915050565b60006143848284614347565b915081905092915050565b7f5072656d69756d00000000000000000000000000000000000000000000000000600082015250565b60006143c56007836142db565b91506143d08261438f565b600782019050919050565b60006143e6826143b8565b9150819050919050565b7f496e76616c69642063617465676f727900000000000000000000000000000000600082015250565b6000614426601083613473565b9150614431826143f0565b602082019050919050565b6000602082019050818103600083015261445581614419565b9050919050565b7f436c6f7468696e67000000000000000000000000000000000000000000000000600082015250565b60006144926008836142db565b915061449d8261445c565b600882019050919050565b60006144b382614485565b9150819050919050565b7f4661627269630000000000000000000000000000000000000000000000000000600082015250565b60006144f36006836142db565b91506144fe826144bd565b600682019050919050565b6000614514826144e6565b9150819050919050565b7f496e76616c69642064657369676e207479706500000000000000000000000000600082015250565b6000614554601383613473565b915061455f8261451e565b602082019050919050565b6000602082019050818103600083015261458381614547565b9050919050565b7f5072696365206d7573742062652067726561746572207468616e20302e000000600082015250565b60006145c0601d83613473565b91506145cb8261458a565b602082019050919050565b600060208201905081810360008301526145ef816145b3565b9050919050565b6000604082019050818103600083015261461081856134bf565b9050818103602083015261462481846134bf565b90509392505050565b7f4e487b7100000000000000000000000000000000000000000000000000000000600052603260045260246000fd5b60006146688285614347565b91506146748284614347565b91508190509392505050565b7f436f6e74656e742063616e6e6f7420626520656d7074792e0000000000000000600082015250565b60006146b6601883613473565b91506146c182614680565b602082019050919050565b600060208201905081810360008301526146e5816146a9565b9050919050565b600081519050919050565b600082825260208201905092915050565b6000614713826146ec565b61471d81856146f7565b935061472d818560208601613484565b614736816134ae565b840191505092915050565b600060808201905061475660008301876135c2565b61476360208301866135c2565b614770604083018561362c565b81810360608301526147828184614708565b905095945050505050565b60008151905061479c8161334e565b92915050565b6000602082840312156147b8576147b7613318565b5b60006147c68482850161478d565b91505092915050565b60006040820190506147e460008301856135c2565b6147f1602083018461362c565b9392505050565b7f4e487b7100000000000000000000000000000000000000000000000000000000600052601260045260246000fdfea2646970667358221220784e5de7229d259900384184a3111bfba4b9ffc829e397c79cffb4e7c9ffa97164736f6c63430008140033",
  "linkReferences": {},
  "deployedLinkReferences": {}
}