{
  "_format": "hh-sol-artifact-1",
  "contractName": "Battle",
  "sourceName": "contracts/Battle.sol",
  "abi": [
    {
      "inputs": [],
      "stateMutability": "nonpayable",
      "type": "constructor"
    },
    {
      "inputs": [
        {
          "internalType": "address",
          "name": "sender",
          "type": "address"
        },
        {
          "internalType": "uint256",
          "name": "tokenId",
          "type": "uint256"
        },
        {
          "internalType": "address",
          "name": "owner",
          "type": "address"
        }
      ],
      "name": "ERC721IncorrectOwner",
      "type": "error"
    },
    {
      "inputs": [
        {
          "internalType": "address",
          "name": "operator",
          "type": "address"
        },
        {
          "internalType": "uint256",
          "name": "tokenId",
          "type": "uint256"
        }
      ],
      "name": "ERC721InsufficientApproval",
      "type": "error"
    },
    {
      "inputs": [
        {
          "internalType": "address",
          "name": "approver",
          "type": "address"
        }
      ],
      "name": "ERC721InvalidApprover",
      "type": "error"
    },
    {
      "inputs": [
        {
          "internalType": "address",
          "name": "operator",
          "type": "address"
        }
      ],
      "name": "ERC721InvalidOperator",
      "type": "error"
    },
    {
      "inputs": [
        {
          "internalType": "address",
          "name": "owner",
          "type": "address"
        }
      ],
      "name": "ERC721InvalidOwner",
      "type": "error"
    },
    {
      "inputs": [
        {
          "internalType": "address",
          "name": "receiver",
          "type": "address"
        }
      ],
      "name": "ERC721InvalidReceiver",
      "type": "error"
    },
    {
      "inputs": [
        {
          "internalType": "address",
          "name": "sender",
          "type": "address"
        }
      ],
      "name": "ERC721InvalidSender",
      "type": "error"
    },
    {
      "inputs": [
        {
          "internalType": "uint256",
          "name": "tokenId",
          "type": "uint256"
        }
      ],
      "name": "ERC721NonexistentToken",
      "type": "error"
    },
    {
      "inputs": [
        {
          "internalType": "address",
          "name": "owner",
          "type": "address"
        }
      ],
      "name": "OwnableInvalidOwner",
      "type": "error"
    },
    {
      "inputs": [
        {
          "internalType": "address",
          "name": "account",
          "type": "address"
        }
      ],
      "name": "OwnableUnauthorizedAccount",
      "type": "error"
    },
    {
      "anonymous": false,
      "inputs": [
        {
          "indexed": true,
          "internalType": "address",
          "name": "owner",
          "type": "address"
        },
        {
          "indexed": true,
          "internalType": "address",
          "name": "approved",
          "type": "address"
        },
        {
          "indexed": true,
          "internalType": "uint256",
          "name": "tokenId",
          "type": "uint256"
        }
      ],
      "name": "Approval",
      "type": "event"
    },
    {
      "anonymous": false,
      "inputs": [
        {
          "indexed": true,
          "internalType": "address",
          "name": "owner",
          "type": "address"
        },
        {
          "indexed": true,
          "internalType": "address",
          "name": "operator",
          "type": "address"
        },
        {
          "indexed": false,
          "internalType": "bool",
          "name": "approved",
          "type": "bool"
        }
      ],
      "name": "ApprovalForAll",
      "type": "event"
    },
    {
      "anonymous": false,
      "inputs": [
        {
          "indexed": false,
          "internalType": "uint256",
          "name": "_fromTokenId",
          "type": "uint256"
        },
        {
          "indexed": false,
          "internalType": "uint256",
          "name": "_toTokenId",
          "type": "uint256"
        }
      ],
      "name": "BatchMetadataUpdate",
      "type": "event"
    },
    {
      "anonymous": false,
      "inputs": [
        {
          "indexed": true,
          "internalType": "uint256",
          "name": "battleId",
          "type": "uint256"
        },
        {
          "indexed": false,
          "internalType": "uint256",
          "name": "startTime",
          "type": "uint256"
        },
        {
          "indexed": false,
          "internalType": "uint256",
          "name": "endTime",
          "type": "uint256"
        },
        {
          "indexed": false,
          "internalType": "string",
          "name": "battleURI",
          "type": "string"
        }
      ],
      "name": "BattleCreated",
      "type": "event"
    },
    {
      "anonymous": false,
      "inputs": [
        {
          "indexed": true,
          "internalType": "uint256",
          "name": "battleId",
          "type": "uint256"
        },
        {
          "indexed": false,
          "internalType": "uint256",
          "name": "designId",
          "type": "uint256"
        },
        {
          "indexed": false,
          "internalType": "address",
          "name": "creator",
          "type": "address"
        },
        {
          "indexed": false,
          "internalType": "string",
          "name": "designURI",
          "type": "string"
        }
      ],
      "name": "DesignSubmitted",
      "type": "event"
    },
    {
      "anonymous": false,
      "inputs": [
        {
          "indexed": false,
          "internalType": "uint256",
          "name": "_tokenId",
          "type": "uint256"
        }
      ],
      "name": "MetadataUpdate",
      "type": "event"
    },
    {
      "anonymous": false,
      "inputs": [
        {
          "indexed": true,
          "internalType": "address",
          "name": "previousOwner",
          "type": "address"
        },
        {
          "indexed": true,
          "internalType": "address",
          "name": "newOwner",
          "type": "address"
        }
      ],
      "name": "OwnershipTransferred",
      "type": "event"
    },
    {
      "anonymous": false,
      "inputs": [
        {
          "indexed": true,
          "internalType": "address",
          "name": "from",
          "type": "address"
        },
        {
          "indexed": true,
          "internalType": "address",
          "name": "to",
          "type": "address"
        },
        {
          "indexed": true,
          "internalType": "uint256",
          "name": "tokenId",
          "type": "uint256"
        }
      ],
      "name": "Transfer",
      "type": "event"
    },
    {
      "anonymous": false,
      "inputs": [
        {
          "indexed": true,
          "internalType": "uint256",
          "name": "battleId",
          "type": "uint256"
        },
        {
          "indexed": false,
          "internalType": "uint256",
          "name": "designId",
          "type": "uint256"
        },
        {
          "indexed": false,
          "internalType": "address",
          "name": "voter",
          "type": "address"
        }
      ],
      "name": "Voted",
      "type": "event"
    },
    {
      "anonymous": false,
      "inputs": [
        {
          "indexed": true,
          "internalType": "uint256",
          "name": "battleId",
          "type": "uint256"
        },
        {
          "indexed": false,
          "internalType": "uint256",
          "name": "winningDesignId",
          "type": "uint256"
        },
        {
          "indexed": false,
          "internalType": "address",
          "name": "winner",
          "type": "address"
        }
      ],
      "name": "WinnerDeclared",
      "type": "event"
    },
    {
      "inputs": [
        {
          "internalType": "address",
          "name": "to",
          "type": "address"
        },
        {
          "internalType": "uint256",
          "name": "tokenId",
          "type": "uint256"
        }
      ],
      "name": "approve",
      "outputs": [],
      "stateMutability": "nonpayable",
      "type": "function"
    },
    {
      "inputs": [
        {
          "internalType": "address",
          "name": "owner",
          "type": "address"
        }
      ],
      "name": "balanceOf",
      "outputs": [
        {
          "internalType": "uint256",
          "name": "",
          "type": "uint256"
        }
      ],
      "stateMutability": "view",
      "type": "function"
    },
    {
      "inputs": [],
      "name": "battleCounter",
      "outputs": [
        {
          "internalType": "uint256",
          "name": "",
          "type": "uint256"
        }
      ],
      "stateMutability": "view",
      "type": "function"
    },
    {
      "inputs": [
        {
          "internalType": "uint256",
          "name": "",
          "type": "uint256"
        }
      ],
      "name": "battles",
      "outputs": [
        {
          "internalType": "uint256",
          "name": "battleId",
          "type": "uint256"
        },
        {
          "internalType": "string",
          "name": "battleURI",
          "type": "string"
        },
        {
          "internalType": "uint256",
          "name": "startTime",
          "type": "uint256"
        },
        {
          "internalType": "uint256",
          "name": "endTime",
          "type": "uint256"
        },
        {
          "internalType": "bool",
          "name": "ended",
          "type": "bool"
        },
        {
          "internalType": "uint256",
          "name": "designCount",
          "type": "uint256"
        }
      ],
      "stateMutability": "view",
      "type": "function"
    },
    {
      "inputs": [
        {
          "internalType": "uint256",
          "name": "duration",
          "type": "uint256"
        },
        {
          "internalType": "string",
          "name": "_battleURI",
          "type": "string"
        }
      ],
      "name": "createBattle",
      "outputs": [],
      "stateMutability": "nonpayable",
      "type": "function"
    },
    {
      "inputs": [
        {
          "internalType": "uint256",
          "name": "battleId",
          "type": "uint256"
        }
      ],
      "name": "declareWinner",
      "outputs": [],
      "stateMutability": "nonpayable",
      "type": "function"
    },
    {
      "inputs": [
        {
          "internalType": "uint256",
          "name": "tokenId",
          "type": "uint256"
        }
      ],
      "name": "getApproved",
      "outputs": [
        {
          "internalType": "address",
          "name": "",
          "type": "address"
        }
      ],
      "stateMutability": "view",
      "type": "function"
    },
    {
      "inputs": [
        {
          "internalType": "address",
          "name": "owner",
          "type": "address"
        },
        {
          "internalType": "address",
          "name": "operator",
          "type": "address"
        }
      ],
      "name": "isApprovedForAll",
      "outputs": [
        {
          "internalType": "bool",
          "name": "",
          "type": "bool"
        }
      ],
      "stateMutability": "view",
      "type": "function"
    },
    {
      "inputs": [],
      "name": "name",
      "outputs": [
        {
          "internalType": "string",
          "name": "",
          "type": "string"
        }
      ],
      "stateMutability": "view",
      "type": "function"
    },
    {
      "inputs": [],
      "name": "owner",
      "outputs": [
        {
          "internalType": "address",
          "name": "",
          "type": "address"
        }
      ],
      "stateMutability": "view",
      "type": "function"
    },
    {
      "inputs": [
        {
          "internalType": "uint256",
          "name": "tokenId",
          "type": "uint256"
        }
      ],
      "name": "ownerOf",
      "outputs": [
        {
          "internalType": "address",
          "name": "",
          "type": "address"
        }
      ],
      "stateMutability": "view",
      "type": "function"
    },
    {
      "inputs": [],
      "name": "renounceOwnership",
      "outputs": [],
      "stateMutability": "nonpayable",
      "type": "function"
    },
    {
      "inputs": [
        {
          "internalType": "address",
          "name": "from",
          "type": "address"
        },
        {
          "internalType": "address",
          "name": "to",
          "type": "address"
        },
        {
          "internalType": "uint256",
          "name": "tokenId",
          "type": "uint256"
        }
      ],
      "name": "safeTransferFrom",
      "outputs": [],
      "stateMutability": "nonpayable",
      "type": "function"
    },
    {
      "inputs": [
        {
          "internalType": "address",
          "name": "from",
          "type": "address"
        },
        {
          "internalType": "address",
          "name": "to",
          "type": "address"
        },
        {
          "internalType": "uint256",
          "name": "tokenId",
          "type": "uint256"
        },
        {
          "internalType": "bytes",
          "name": "data",
          "type": "bytes"
        }
      ],
      "name": "safeTransferFrom",
      "outputs": [],
      "stateMutability": "nonpayable",
      "type": "function"
    },
    {
      "inputs": [
        {
          "internalType": "address",
          "name": "operator",
          "type": "address"
        },
        {
          "internalType": "bool",
          "name": "approved",
          "type": "bool"
        }
      ],
      "name": "setApprovalForAll",
      "outputs": [],
      "stateMutability": "nonpayable",
      "type": "function"
    },
    {
      "inputs": [
        {
          "internalType": "uint256",
          "name": "battleId",
          "type": "uint256"
        },
        {
          "internalType": "string",
          "name": "designURI",
          "type": "string"
        }
      ],
      "name": "submitDesign",
      "outputs": [],
      "stateMutability": "nonpayable",
      "type": "function"
    },
    {
      "inputs": [
        {
          "internalType": "bytes4",
          "name": "interfaceId",
          "type": "bytes4"
        }
      ],
      "name": "supportsInterface",
      "outputs": [
        {
          "internalType": "bool",
          "name": "",
          "type": "bool"
        }
      ],
      "stateMutability": "view",
      "type": "function"
    },
    {
      "inputs": [],
      "name": "symbol",
      "outputs": [
        {
          "internalType": "string",
          "name": "",
          "type": "string"
        }
      ],
      "stateMutability": "view",
      "type": "function"
    },
    {
      "inputs": [],
      "name": "tokenCounter",
      "outputs": [
        {
          "internalType": "uint256",
          "name": "",
          "type": "uint256"
        }
      ],
      "stateMutability": "view",
      "type": "function"
    },
    {
      "inputs": [
        {
          "internalType": "uint256",
          "name": "tokenId",
          "type": "uint256"
        }
      ],
      "name": "tokenURI",
      "outputs": [
        {
          "internalType": "string",
          "name": "",
          "type": "string"
        }
      ],
      "stateMutability": "view",
      "type": "function"
    },
    {
      "inputs": [
        {
          "internalType": "address",
          "name": "from",
          "type": "address"
        },
        {
          "internalType": "address",
          "name": "to",
          "type": "address"
        },
        {
          "internalType": "uint256",
          "name": "tokenId",
          "type": "uint256"
        }
      ],
      "name": "transferFrom",
      "outputs": [],
      "stateMutability": "nonpayable",
      "type": "function"
    },
    {
      "inputs": [
        {
          "internalType": "address",
          "name": "newOwner",
          "type": "address"
        }
      ],
      "name": "transferOwnership",
      "outputs": [],
      "stateMutability": "nonpayable",
      "type": "function"
    },
    {
      "inputs": [
        {
          "internalType": "uint256",
          "name": "battleId",
          "type": "uint256"
        }
      ],
      "name": "viewDesigns",
      "outputs": [
        {
          "components": [
            {
              "internalType": "address",
              "name": "creator",
              "type": "address"
            },
            {
              "internalType": "string",
              "name": "designURI",
              "type": "string"
            },
            {
              "internalType": "uint256",
              "name": "votes",
              "type": "uint256"
            }
          ],
          "internalType": "struct Battle.Design[]",
          "name": "",
          "type": "tuple[]"
        }
      ],
      "stateMutability": "view",
      "type": "function"
    },
    {
      "inputs": [
        {
          "internalType": "uint256",
          "name": "battleId",
          "type": "uint256"
        },
        {
          "internalType": "uint256",
          "name": "designId",
          "type": "uint256"
        }
      ],
      "name": "vote",
      "outputs": [],
      "stateMutability": "nonpayable",
      "type": "function"
    }
  ],
  "bytecode": "0x60806040523480156200001157600080fd5b50336040518060400160405280600981526020017f4e4654426174746c6500000000000000000000000000000000000000000000008152506040518060400160405280600481526020017f4e46544200000000000000000000000000000000000000000000000000000000815250816000908162000090919062000472565b508060019081620000a2919062000472565b505050600073ffffffffffffffffffffffffffffffffffffffff168173ffffffffffffffffffffffffffffffffffffffff16036200011a5760006040517f1e4fbdf70000000000000000000000000000000000000000000000000000000081526004016200011191906200059e565b60405180910390fd5b6200012b816200013260201b60201c565b50620005bb565b6000600760009054906101000a900473ffffffffffffffffffffffffffffffffffffffff16905081600760006101000a81548173ffffffffffffffffffffffffffffffffffffffff021916908373ffffffffffffffffffffffffffffffffffffffff1602179055508173ffffffffffffffffffffffffffffffffffffffff168173ffffffffffffffffffffffffffffffffffffffff167f8be0079c531659141344cd1fd0a4f28419497f9722a3daafe3b4186f6b6457e060405160405180910390a35050565b600081519050919050565b7f4e487b7100000000000000000000000000000000000000000000000000000000600052604160045260246000fd5b7f4e487b7100000000000000000000000000000000000000000000000000000000600052602260045260246000fd5b600060028204905060018216806200027a57607f821691505b60208210810362000290576200028f62000232565b5b50919050565b60008190508160005260206000209050919050565b60006020601f8301049050919050565b600082821b905092915050565b600060088302620002fa7fffffffffffffffffffffffffffffffffffffffffffffffffffffffffffffffff82620002bb565b620003068683620002bb565b95508019841693508086168417925050509392505050565b6000819050919050565b6000819050919050565b6000620003536200034d62000347846200031e565b62000328565b6200031e565b9050919050565b6000819050919050565b6200036f8362000332565b620003876200037e826200035a565b848454620002c8565b825550505050565b600090565b6200039e6200038f565b620003ab81848462000364565b505050565b5b81811015620003d357620003c760008262000394565b600181019050620003b1565b5050565b601f8211156200042257620003ec8162000296565b620003f784620002ab565b8101602085101562000407578190505b6200041f6200041685620002ab565b830182620003b0565b50505b505050565b600082821c905092915050565b6000620004476000198460080262000427565b1980831691505092915050565b600062000462838362000434565b9150826002028217905092915050565b6200047d82620001f8565b67ffffffffffffffff81111562000499576200049862000203565b5b620004a5825462000261565b620004b2828285620003d7565b600060209050601f831160018114620004ea5760008415620004d5578287015190505b620004e1858262000454565b86555062000551565b601f198416620004fa8662000296565b60005b828110156200052457848901518255600182019150602085019450602081019050620004fd565b8683101562000544578489015162000540601f89168262000434565b8355505b6001600288020188555050505b505050505050565b600073ffffffffffffffffffffffffffffffffffffffff82169050919050565b6000620005868262000559565b9050919050565b620005988162000579565b82525050565b6000602082019050620005b560008301846200058d565b92915050565b61385080620005cb6000396000f3fe608060405234801561001057600080fd5b50600436106101575760003560e01c8063781d718e116100c3578063b88d4fde1161007c578063b88d4fde146103b3578063c56d9047146103cf578063c87b56dd146103ff578063d082e3811461042f578063e985e9c51461044d578063f2fde38b1461047d57610157565b8063781d718e146103055780638da5cb5b1461032157806395d89b411461033f578063a22cb4651461035d578063a9b9be3f14610379578063b384abef1461039757610157565b806342842e0e1161011557806342842e0e1461022e57806345fb2e861461024a578063606d2e96146102665780636352211e1461029b57806370a08231146102cb578063715018a6146102fb57610157565b8062c2943c1461015c57806301ffc9a71461017857806306fdde03146101a8578063081812fc146101c6578063095ea7b3146101f657806323b872dd14610212575b600080fd5b610176600480360381019061017191906126b2565b610499565b005b610192600480360381019061018d9190612737565b610781565b60405161019f919061277f565b60405180910390f35b6101b06107e2565b6040516101bd919061282a565b60405180910390f35b6101e060048036038101906101db91906126b2565b610874565b6040516101ed919061288d565b60405180910390f35b610210600480360381019061020b91906128d4565b610890565b005b61022c60048036038101906102279190612914565b6108a6565b005b61024860048036038101906102439190612914565b6109a8565b005b610264600480360381019061025f9190612a9c565b6109c8565b005b610280600480360381019061027b91906126b2565b610ba1565b60405161029296959493929190612b07565b60405180910390f35b6102b560048036038101906102b091906126b2565b610c72565b6040516102c2919061288d565b60405180910390f35b6102e560048036038101906102e09190612b6f565b610c84565b6040516102f29190612b9c565b60405180910390f35b610303610d3e565b005b61031f600480360381019061031a9190612a9c565b610d52565b005b610329610e74565b604051610336919061288d565b60405180910390f35b610347610e9e565b604051610354919061282a565b60405180910390f35b61037760048036038101906103729190612be3565b610f30565b005b610381610f46565b60405161038e9190612b9c565b60405180910390f35b6103b160048036038101906103ac9190612c23565b610f4c565b005b6103cd60048036038101906103c89190612d04565b61117d565b005b6103e960048036038101906103e491906126b2565b6111a2565b6040516103f69190612f01565b60405180910390f35b610419600480360381019061041491906126b2565b6113cf565b604051610426919061282a565b60405180910390f35b6104376114e2565b6040516104449190612b9c565b60405180910390f35b61046760048036038101906104629190612f23565b6114e8565b604051610474919061277f565b60405180910390f35b61049760048036038101906104929190612b6f565b61157c565b005b600a60008281526020019081526020016000206003015442116104f1576040517f08c379a00000000000000000000000000000000000000000000000000000000081526004016104e890612faf565b60405180910390fd5b600a600082815260200190815260200160002060040160009054906101000a900460ff1615610555576040517f08c379a000000000000000000000000000000000000000000000000000000000815260040161054c9061301b565b60405180910390fd5b6000600a6000838152602001908152602001600020905060008060005b83600601548110156105d057818460050160008381526020019081526020016000206002015411156105bd578360050160008281526020019081526020016000206002015491508092505b80806105c89061306a565b915050610572565b5060018360040160006101000a81548160ff02191690831515021790555060008360050160008481526020019081526020016000206040518060600160405290816000820160009054906101000a900473ffffffffffffffffffffffffffffffffffffffff1673ffffffffffffffffffffffffffffffffffffffff1673ffffffffffffffffffffffffffffffffffffffff168152602001600182018054610676906130e1565b80601f01602080910402602001604051908101604052809291908181526020018280546106a2906130e1565b80156106ef5780601f106106c4576101008083540402835291602001916106ef565b820191906000526020600020905b8154815290600101906020018083116106d257829003601f168201915b505050505081526020016002820154815250509050600960008154809291906107179061306a565b919050555061072c8160000151600954611602565b61073c60095482602001516116fb565b847f8981fdd74bd05da9ef8f2aeb472f541ee871b1e9e3908c19d01a9bf51ce5f7ab848360000151604051610772929190613112565b60405180910390a25050505050565b6000634906490660e01b7bffffffffffffffffffffffffffffffffffffffffffffffffffffffff1916827bffffffffffffffffffffffffffffffffffffffffffffffffffffffff191614806107db57506107da82611757565b5b9050919050565b6060600080546107f1906130e1565b80601f016020809104026020016040519081016040528092919081815260200182805461081d906130e1565b801561086a5780601f1061083f5761010080835404028352916020019161086a565b820191906000526020600020905b81548152906001019060200180831161084d57829003601f168201915b5050505050905090565b600061087f82611839565b50610889826118c1565b9050919050565b6108a2828261089d6118fe565b611906565b5050565b600073ffffffffffffffffffffffffffffffffffffffff168273ffffffffffffffffffffffffffffffffffffffff16036109185760006040517f64a0ae9200000000000000000000000000000000000000000000000000000000815260040161090f919061288d565b60405180910390fd5b600061092c83836109276118fe565b611918565b90508373ffffffffffffffffffffffffffffffffffffffff168173ffffffffffffffffffffffffffffffffffffffff16146109a2578382826040517f64283d7b0000000000000000000000000000000000000000000000000000000081526004016109999392919061313b565b60405180910390fd5b50505050565b6109c38383836040518060200160405280600081525061117d565b505050565b600a600083815260200190815260200160002060020154421015610a21576040517f08c379a0000000000000000000000000000000000000000000000000000000008152600401610a18906131be565b60405180910390fd5b600a600083815260200190815260200160002060030154421115610a7a576040517f08c379a0000000000000000000000000000000000000000000000000000000008152600401610a719061322a565b60405180910390fd5b6000600a600084815260200190815260200160002090506000816006016000815480929190610aa89061306a565b91905055905060405180606001604052803373ffffffffffffffffffffffffffffffffffffffff168152602001848152602001600081525082600501600083815260200190815260200160002060008201518160000160006101000a81548173ffffffffffffffffffffffffffffffffffffffff021916908373ffffffffffffffffffffffffffffffffffffffff1602179055506020820151816001019081610b5191906133f6565b5060408201518160020155905050837fcdd9b3b2be2ff399e508390246704b925813ef2db68652dd5c871bc35c880e8d823386604051610b93939291906134c8565b60405180910390a250505050565b600a602052806000526040600020600091509050806000015490806001018054610bca906130e1565b80601f0160208091040260200160405190810160405280929190818152602001828054610bf6906130e1565b8015610c435780601f10610c1857610100808354040283529160200191610c43565b820191906000526020600020905b815481529060010190602001808311610c2657829003601f168201915b5050505050908060020154908060030154908060040160009054906101000a900460ff16908060060154905086565b6000610c7d82611839565b9050919050565b60008073ffffffffffffffffffffffffffffffffffffffff168273ffffffffffffffffffffffffffffffffffffffff1603610cf75760006040517f89c62b64000000000000000000000000000000000000000000000000000000008152600401610cee919061288d565b60405180910390fd5b600360008373ffffffffffffffffffffffffffffffffffffffff1673ffffffffffffffffffffffffffffffffffffffff168152602001908152602001600020549050919050565b610d46611b32565b610d506000611bb9565b565b610d5a611b32565b60086000815480929190610d6d9061306a565b91905055506000600854905080600a60008381526020019081526020016000206000018190555042600a6000838152602001908152602001600020600201819055508242610dbb9190613506565b600a6000838152602001908152602001600020600301819055506000600a600083815260200190815260200160002060040160006101000a81548160ff02191690831515021790555081600a60008381526020019081526020016000206001019081610e2791906133f6565b50807f51415188781a4eca8fe0e9554719a0edeca00b832e406fd31907147e2b54038e428542610e579190613506565b85604051610e679392919061353a565b60405180910390a2505050565b6000600760009054906101000a900473ffffffffffffffffffffffffffffffffffffffff16905090565b606060018054610ead906130e1565b80601f0160208091040260200160405190810160405280929190818152602001828054610ed9906130e1565b8015610f265780601f10610efb57610100808354040283529160200191610f26565b820191906000526020600020905b815481529060010190602001808311610f0957829003601f168201915b5050505050905090565b610f42610f3b6118fe565b8383611c7f565b5050565b60085481565b600a600083815260200190815260200160002060020154421015610fa5576040517f08c379a0000000000000000000000000000000000000000000000000000000008152600401610f9c906131be565b60405180910390fd5b600a600083815260200190815260200160002060030154421115610ffe576040517f08c379a0000000000000000000000000000000000000000000000000000000008152600401610ff59061322a565b60405180910390fd5b600a600083815260200190815260200160002060070160003373ffffffffffffffffffffffffffffffffffffffff1673ffffffffffffffffffffffffffffffffffffffff16815260200190815260200160002060009054906101000a900460ff161561109f576040517f08c379a0000000000000000000000000000000000000000000000000000000008152600401611096906135c4565b60405180910390fd5b6000600a6000848152602001908152602001600020905060018160070160003373ffffffffffffffffffffffffffffffffffffffff1673ffffffffffffffffffffffffffffffffffffffff16815260200190815260200160002060006101000a81548160ff02191690831515021790555080600501600083815260200190815260200160002060020160008154809291906111399061306a565b9190505550827fd91ecafccf238642dccd41161308b3eebe62a12bc5819daf5164780c221ec95b8333604051611170929190613112565b60405180910390a2505050565b6111888484846108a6565b61119c6111936118fe565b85858585611dee565b50505050565b60606000600a600084815260200190815260200160002060020154036111fd576040517f08c379a00000000000000000000000000000000000000000000000000000000081526004016111f490613630565b60405180910390fd5b6000600a6000848152602001908152602001600020905060008160060154905060008167ffffffffffffffff81111561123957611238612971565b5b60405190808252806020026020018201604052801561127257816020015b61125f612631565b8152602001906001900390816112575790505b50905060005b828110156113c3578360050160008281526020019081526020016000206040518060600160405290816000820160009054906101000a900473ffffffffffffffffffffffffffffffffffffffff1673ffffffffffffffffffffffffffffffffffffffff1673ffffffffffffffffffffffffffffffffffffffff168152602001600182018054611306906130e1565b80601f0160208091040260200160405190810160405280929190818152602001828054611332906130e1565b801561137f5780601f106113545761010080835404028352916020019161137f565b820191906000526020600020905b81548152906001019060200180831161136257829003601f168201915b505050505081526020016002820154815250508282815181106113a5576113a4613650565b5b602002602001018190525080806113bb9061306a565b915050611278565b50809350505050919050565b60606113da82611839565b5060006006600084815260200190815260200160002080546113fb906130e1565b80601f0160208091040260200160405190810160405280929190818152602001828054611427906130e1565b80156114745780601f1061144957610100808354040283529160200191611474565b820191906000526020600020905b81548152906001019060200180831161145757829003601f168201915b505050505090506000611485611f9f565b9050600081510361149a5781925050506114dd565b6000825111156114cf5780826040516020016114b79291906136bb565b604051602081830303815290604052925050506114dd565b6114d884611fb6565b925050505b919050565b60095481565b6000600560008473ffffffffffffffffffffffffffffffffffffffff1673ffffffffffffffffffffffffffffffffffffffff16815260200190815260200160002060008373ffffffffffffffffffffffffffffffffffffffff1673ffffffffffffffffffffffffffffffffffffffff16815260200190815260200160002060009054906101000a900460ff16905092915050565b611584611b32565b600073ffffffffffffffffffffffffffffffffffffffff168173ffffffffffffffffffffffffffffffffffffffff16036115f65760006040517f1e4fbdf70000000000000000000000000000000000000000000000000000000081526004016115ed919061288d565b60405180910390fd5b6115ff81611bb9565b50565b600073ffffffffffffffffffffffffffffffffffffffff168273ffffffffffffffffffffffffffffffffffffffff16036116745760006040517f64a0ae9200000000000000000000000000000000000000000000000000000000815260040161166b919061288d565b60405180910390fd5b600061168283836000611918565b9050600073ffffffffffffffffffffffffffffffffffffffff168173ffffffffffffffffffffffffffffffffffffffff16146116f65760006040517f73c6ac6e0000000000000000000000000000000000000000000000000000000081526004016116ed919061288d565b60405180910390fd5b505050565b8060066000848152602001908152602001600020908161171b91906133f6565b507ff8e1a15aba9398e019f0b49df1a4fde98ee17ae345cb5f6b5e2c27f5033e8ce78260405161174b9190612b9c565b60405180910390a15050565b60007f80ac58cd000000000000000000000000000000000000000000000000000000007bffffffffffffffffffffffffffffffffffffffffffffffffffffffff1916827bffffffffffffffffffffffffffffffffffffffffffffffffffffffff1916148061182257507f5b5e139f000000000000000000000000000000000000000000000000000000007bffffffffffffffffffffffffffffffffffffffffffffffffffffffff1916827bffffffffffffffffffffffffffffffffffffffffffffffffffffffff1916145b8061183257506118318261201f565b5b9050919050565b60008061184583612089565b9050600073ffffffffffffffffffffffffffffffffffffffff168173ffffffffffffffffffffffffffffffffffffffff16036118b857826040517f7e2732890000000000000000000000000000000000000000000000000000000081526004016118af9190612b9c565b60405180910390fd5b80915050919050565b60006004600083815260200190815260200160002060009054906101000a900473ffffffffffffffffffffffffffffffffffffffff169050919050565b600033905090565b61191383838360016120c6565b505050565b60008061192484612089565b9050600073ffffffffffffffffffffffffffffffffffffffff168373ffffffffffffffffffffffffffffffffffffffff16146119665761196581848661228b565b5b600073ffffffffffffffffffffffffffffffffffffffff168173ffffffffffffffffffffffffffffffffffffffff16146119f7576119a86000856000806120c6565b6001600360008373ffffffffffffffffffffffffffffffffffffffff1673ffffffffffffffffffffffffffffffffffffffff168152602001908152602001600020600082825403925050819055505b600073ffffffffffffffffffffffffffffffffffffffff168573ffffffffffffffffffffffffffffffffffffffff1614611a7a576001600360008773ffffffffffffffffffffffffffffffffffffffff1673ffffffffffffffffffffffffffffffffffffffff168152602001908152602001600020600082825401925050819055505b846002600086815260200190815260200160002060006101000a81548173ffffffffffffffffffffffffffffffffffffffff021916908373ffffffffffffffffffffffffffffffffffffffff160217905550838573ffffffffffffffffffffffffffffffffffffffff168273ffffffffffffffffffffffffffffffffffffffff167fddf252ad1be2c89b69c2b068fc378daa952ba7f163c4a11628f55a4df523b3ef60405160405180910390a4809150509392505050565b611b3a6118fe565b73ffffffffffffffffffffffffffffffffffffffff16611b58610e74565b73ffffffffffffffffffffffffffffffffffffffff1614611bb757611b7b6118fe565b6040517f118cdaa7000000000000000000000000000000000000000000000000000000008152600401611bae919061288d565b60405180910390fd5b565b6000600760009054906101000a900473ffffffffffffffffffffffffffffffffffffffff16905081600760006101000a81548173ffffffffffffffffffffffffffffffffffffffff021916908373ffffffffffffffffffffffffffffffffffffffff1602179055508173ffffffffffffffffffffffffffffffffffffffff168173ffffffffffffffffffffffffffffffffffffffff167f8be0079c531659141344cd1fd0a4f28419497f9722a3daafe3b4186f6b6457e060405160405180910390a35050565b600073ffffffffffffffffffffffffffffffffffffffff168273ffffffffffffffffffffffffffffffffffffffff1603611cf057816040517f5b08ba18000000000000000000000000000000000000000000000000000000008152600401611ce7919061288d565b60405180910390fd5b80600560008573ffffffffffffffffffffffffffffffffffffffff1673ffffffffffffffffffffffffffffffffffffffff16815260200190815260200160002060008473ffffffffffffffffffffffffffffffffffffffff1673ffffffffffffffffffffffffffffffffffffffff16815260200190815260200160002060006101000a81548160ff0219169083151502179055508173ffffffffffffffffffffffffffffffffffffffff168373ffffffffffffffffffffffffffffffffffffffff167f17307eab39ab6107e8899845ad3d59bd9653f200f220920489ca2b5937696c3183604051611de1919061277f565b60405180910390a3505050565b60008373ffffffffffffffffffffffffffffffffffffffff163b1115611f98578273ffffffffffffffffffffffffffffffffffffffff1663150b7a02868685856040518563ffffffff1660e01b8152600401611e4d9493929190613734565b6020604051808303816000875af1925050508015611e8957506040513d601f19601f82011682018060405250810190611e869190613795565b60015b611f0d573d8060008114611eb9576040519150601f19603f3d011682016040523d82523d6000602084013e611ebe565b606091505b506000815103611f0557836040517f64a0ae92000000000000000000000000000000000000000000000000000000008152600401611efc919061288d565b60405180910390fd5b805181602001fd5b63150b7a0260e01b7bffffffffffffffffffffffffffffffffffffffffffffffffffffffff1916817bffffffffffffffffffffffffffffffffffffffffffffffffffffffff191614611f9657836040517f64a0ae92000000000000000000000000000000000000000000000000000000008152600401611f8d919061288d565b60405180910390fd5b505b5050505050565b606060405180602001604052806000815250905090565b6060611fc182611839565b506000611fcc611f9f565b90506000815111611fec5760405180602001604052806000815250612017565b80611ff68461234f565b6040516020016120079291906136bb565b6040516020818303038152906040525b915050919050565b60007f01ffc9a7000000000000000000000000000000000000000000000000000000007bffffffffffffffffffffffffffffffffffffffffffffffffffffffff1916827bffffffffffffffffffffffffffffffffffffffffffffffffffffffff1916149050919050565b60006002600083815260200190815260200160002060009054906101000a900473ffffffffffffffffffffffffffffffffffffffff169050919050565b80806120ff5750600073ffffffffffffffffffffffffffffffffffffffff168273ffffffffffffffffffffffffffffffffffffffff1614155b1561223357600061210f84611839565b9050600073ffffffffffffffffffffffffffffffffffffffff168373ffffffffffffffffffffffffffffffffffffffff161415801561217a57508273ffffffffffffffffffffffffffffffffffffffff168173ffffffffffffffffffffffffffffffffffffffff1614155b801561218d575061218b81846114e8565b155b156121cf57826040517fa9fbf51f0000000000000000000000000000000000000000000000000000000081526004016121c6919061288d565b60405180910390fd5b811561223157838573ffffffffffffffffffffffffffffffffffffffff168273ffffffffffffffffffffffffffffffffffffffff167f8c5be1e5ebec7d5bd14f71427d1e84f3dd0314c0f7b2291e5b200ac8c7c3b92560405160405180910390a45b505b836004600085815260200190815260200160002060006101000a81548173ffffffffffffffffffffffffffffffffffffffff021916908373ffffffffffffffffffffffffffffffffffffffff16021790555050505050565b61229683838361241d565b61234a57600073ffffffffffffffffffffffffffffffffffffffff168373ffffffffffffffffffffffffffffffffffffffff160361230b57806040517f7e2732890000000000000000000000000000000000000000000000000000000081526004016123029190612b9c565b60405180910390fd5b81816040517f177e802f0000000000000000000000000000000000000000000000000000000081526004016123419291906137c2565b60405180910390fd5b505050565b60606000600161235e846124de565b01905060008167ffffffffffffffff81111561237d5761237c612971565b5b6040519080825280601f01601f1916602001820160405280156123af5781602001600182028036833780820191505090505b509050600082602001820190505b600115612412578080600190039150507f3031323334353637383961626364656600000000000000000000000000000000600a86061a8153600a8581612406576124056137eb565b5b049450600085036123bd575b819350505050919050565b60008073ffffffffffffffffffffffffffffffffffffffff168373ffffffffffffffffffffffffffffffffffffffff16141580156124d557508273ffffffffffffffffffffffffffffffffffffffff168473ffffffffffffffffffffffffffffffffffffffff161480612496575061249584846114e8565b5b806124d457508273ffffffffffffffffffffffffffffffffffffffff166124bc836118c1565b73ffffffffffffffffffffffffffffffffffffffff16145b5b90509392505050565b600080600090507a184f03e93ff9f4daa797ed6e38ed64bf6a1f010000000000000000831061253c577a184f03e93ff9f4daa797ed6e38ed64bf6a1f0100000000000000008381612532576125316137eb565b5b0492506040810190505b6d04ee2d6d415b85acef81000000008310612579576d04ee2d6d415b85acef8100000000838161256f5761256e6137eb565b5b0492506020810190505b662386f26fc1000083106125a857662386f26fc10000838161259e5761259d6137eb565b5b0492506010810190505b6305f5e10083106125d1576305f5e10083816125c7576125c66137eb565b5b0492506008810190505b61271083106125f65761271083816125ec576125eb6137eb565b5b0492506004810190505b60648310612619576064838161260f5761260e6137eb565b5b0492506002810190505b600a8310612628576001810190505b80915050919050565b6040518060600160405280600073ffffffffffffffffffffffffffffffffffffffff16815260200160608152602001600081525090565b6000604051905090565b600080fd5b600080fd5b6000819050919050565b61268f8161267c565b811461269a57600080fd5b50565b6000813590506126ac81612686565b92915050565b6000602082840312156126c8576126c7612672565b5b60006126d68482850161269d565b91505092915050565b60007fffffffff0000000000000000000000000000000000000000000000000000000082169050919050565b612714816126df565b811461271f57600080fd5b50565b6000813590506127318161270b565b92915050565b60006020828403121561274d5761274c612672565b5b600061275b84828501612722565b91505092915050565b60008115159050919050565b61277981612764565b82525050565b60006020820190506127946000830184612770565b92915050565b600081519050919050565b600082825260208201905092915050565b60005b838110156127d45780820151818401526020810190506127b9565b60008484015250505050565b6000601f19601f8301169050919050565b60006127fc8261279a565b61280681856127a5565b93506128168185602086016127b6565b61281f816127e0565b840191505092915050565b6000602082019050818103600083015261284481846127f1565b905092915050565b600073ffffffffffffffffffffffffffffffffffffffff82169050919050565b60006128778261284c565b9050919050565b6128878161286c565b82525050565b60006020820190506128a2600083018461287e565b92915050565b6128b18161286c565b81146128bc57600080fd5b50565b6000813590506128ce816128a8565b92915050565b600080604083850312156128eb576128ea612672565b5b60006128f9858286016128bf565b925050602061290a8582860161269d565b9150509250929050565b60008060006060848603121561292d5761292c612672565b5b600061293b868287016128bf565b935050602061294c868287016128bf565b925050604061295d8682870161269d565b9150509250925092565b600080fd5b600080fd5b7f4e487b7100000000000000000000000000000000000000000000000000000000600052604160045260246000fd5b6129a9826127e0565b810181811067ffffffffffffffff821117156129c8576129c7612971565b5b80604052505050565b60006129db612668565b90506129e782826129a0565b919050565b600067ffffffffffffffff821115612a0757612a06612971565b5b612a10826127e0565b9050602081019050919050565b82818337600083830152505050565b6000612a3f612a3a846129ec565b6129d1565b905082815260208101848484011115612a5b57612a5a61296c565b5b612a66848285612a1d565b509392505050565b600082601f830112612a8357612a82612967565b5b8135612a93848260208601612a2c565b91505092915050565b60008060408385031215612ab357612ab2612672565b5b6000612ac18582860161269d565b925050602083013567ffffffffffffffff811115612ae257612ae1612677565b5b612aee85828601612a6e565b9150509250929050565b612b018161267c565b82525050565b600060c082019050612b1c6000830189612af8565b8181036020830152612b2e81886127f1565b9050612b3d6040830187612af8565b612b4a6060830186612af8565b612b576080830185612770565b612b6460a0830184612af8565b979650505050505050565b600060208284031215612b8557612b84612672565b5b6000612b93848285016128bf565b91505092915050565b6000602082019050612bb16000830184612af8565b92915050565b612bc081612764565b8114612bcb57600080fd5b50565b600081359050612bdd81612bb7565b92915050565b60008060408385031215612bfa57612bf9612672565b5b6000612c08858286016128bf565b9250506020612c1985828601612bce565b9150509250929050565b60008060408385031215612c3a57612c39612672565b5b6000612c488582860161269d565b9250506020612c598582860161269d565b9150509250929050565b600067ffffffffffffffff821115612c7e57612c7d612971565b5b612c87826127e0565b9050602081019050919050565b6000612ca7612ca284612c63565b6129d1565b905082815260208101848484011115612cc357612cc261296c565b5b612cce848285612a1d565b509392505050565b600082601f830112612ceb57612cea612967565b5b8135612cfb848260208601612c94565b91505092915050565b60008060008060808587031215612d1e57612d1d612672565b5b6000612d2c878288016128bf565b9450506020612d3d878288016128bf565b9350506040612d4e8782880161269d565b925050606085013567ffffffffffffffff811115612d6f57612d6e612677565b5b612d7b87828801612cd6565b91505092959194509250565b600081519050919050565b600082825260208201905092915050565b6000819050602082019050919050565b612dbc8161286c565b82525050565b600082825260208201905092915050565b6000612dde8261279a565b612de88185612dc2565b9350612df88185602086016127b6565b612e01816127e0565b840191505092915050565b612e158161267c565b82525050565b6000606083016000830151612e336000860182612db3565b5060208301518482036020860152612e4b8282612dd3565b9150506040830151612e606040860182612e0c565b508091505092915050565b6000612e778383612e1b565b905092915050565b6000602082019050919050565b6000612e9782612d87565b612ea18185612d92565b935083602082028501612eb385612da3565b8060005b85811015612eef5784840389528151612ed08582612e6b565b9450612edb83612e7f565b925060208a01995050600181019050612eb7565b50829750879550505050505092915050565b60006020820190508181036000830152612f1b8184612e8c565b905092915050565b60008060408385031215612f3a57612f39612672565b5b6000612f48858286016128bf565b9250506020612f59858286016128bf565b9150509250929050565b7f426174746c65206f6e676f696e67000000000000000000000000000000000000600082015250565b6000612f99600e836127a5565b9150612fa482612f63565b602082019050919050565b60006020820190508181036000830152612fc881612f8c565b9050919050565b7f57696e6e657220616c7265616479206465636c61726564000000000000000000600082015250565b60006130056017836127a5565b915061301082612fcf565b602082019050919050565b6000602082019050818103600083015261303481612ff8565b9050919050565b7f4e487b7100000000000000000000000000000000000000000000000000000000600052601160045260246000fd5b60006130758261267c565b91507fffffffffffffffffffffffffffffffffffffffffffffffffffffffffffffffff82036130a7576130a661303b565b5b600182019050919050565b7f4e487b7100000000000000000000000000000000000000000000000000000000600052602260045260246000fd5b600060028204905060018216806130f957607f821691505b60208210810361310c5761310b6130b2565b5b50919050565b60006040820190506131276000830185612af8565b613134602083018461287e565b9392505050565b6000606082019050613150600083018661287e565b61315d6020830185612af8565b61316a604083018461287e565b949350505050565b7f426174746c65206e6f7420737461727465640000000000000000000000000000600082015250565b60006131a86012836127a5565b91506131b382613172565b602082019050919050565b600060208201905081810360008301526131d78161319b565b9050919050565b7f426174746c6520656e6465640000000000000000000000000000000000000000600082015250565b6000613214600c836127a5565b915061321f826131de565b602082019050919050565b6000602082019050818103600083015261324381613207565b9050919050565b60008190508160005260206000209050919050565b60006020601f8301049050919050565b600082821b905092915050565b6000600883026132ac7fffffffffffffffffffffffffffffffffffffffffffffffffffffffffffffffff8261326f565b6132b6868361326f565b95508019841693508086168417925050509392505050565b6000819050919050565b60006132f36132ee6132e98461267c565b6132ce565b61267c565b9050919050565b6000819050919050565b61330d836132d8565b613321613319826132fa565b84845461327c565b825550505050565b600090565b613336613329565b613341818484613304565b505050565b5b818110156133655761335a60008261332e565b600181019050613347565b5050565b601f8211156133aa5761337b8161324a565b6133848461325f565b81016020851015613393578190505b6133a761339f8561325f565b830182613346565b50505b505050565b600082821c905092915050565b60006133cd600019846008026133af565b1980831691505092915050565b60006133e683836133bc565b9150826002028217905092915050565b6133ff8261279a565b67ffffffffffffffff81111561341857613417612971565b5b61342282546130e1565b61342d828285613369565b600060209050601f831160018114613460576000841561344e578287015190505b61345885826133da565b8655506134c0565b601f19841661346e8661324a565b60005b8281101561349657848901518255600182019150602085019450602081019050613471565b868310156134b357848901516134af601f8916826133bc565b8355505b6001600288020188555050505b505050505050565b60006060820190506134dd6000830186612af8565b6134ea602083018561287e565b81810360408301526134fc81846127f1565b9050949350505050565b60006135118261267c565b915061351c8361267c565b92508282019050808211156135345761353361303b565b5b92915050565b600060608201905061354f6000830186612af8565b61355c6020830185612af8565b818103604083015261356e81846127f1565b9050949350505050565b7f416c726561647920766f74656400000000000000000000000000000000000000600082015250565b60006135ae600d836127a5565b91506135b982613578565b602082019050919050565b600060208201905081810360008301526135dd816135a1565b9050919050565b7f426174746c6520646f6573206e6f742065786973740000000000000000000000600082015250565b600061361a6015836127a5565b9150613625826135e4565b602082019050919050565b600060208201905081810360008301526136498161360d565b9050919050565b7f4e487b7100000000000000000000000000000000000000000000000000000000600052603260045260246000fd5b600081905092915050565b60006136958261279a565b61369f818561367f565b93506136af8185602086016127b6565b80840191505092915050565b60006136c7828561368a565b91506136d3828461368a565b91508190509392505050565b600081519050919050565b600082825260208201905092915050565b6000613706826136df565b61371081856136ea565b93506137208185602086016127b6565b613729816127e0565b840191505092915050565b6000608082019050613749600083018761287e565b613756602083018661287e565b6137636040830185612af8565b818103606083015261377581846136fb565b905095945050505050565b60008151905061378f8161270b565b92915050565b6000602082840312156137ab576137aa612672565b5b60006137b984828501613780565b91505092915050565b60006040820190506137d7600083018561287e565b6137e46020830184612af8565b9392505050565b7f4e487b7100000000000000000000000000000000000000000000000000000000600052601260045260246000fdfea26469706673582212202b1c3b50acd90c1fbac2803f29eb9c9c1103dee252329b599f0ece587b7040f364736f6c63430008140033",
  "linkReferences": {},
  "deployedLinkReferences": {}
}